{
	"multisig_sol.sol": {
		"FederationSync": {
			"abi": [
				{
					"inputs": [
						{
							"internalType": "address",
							"name": "_federation_node_1",
							"type": "address"
						},
						{
							"internalType": "address",
							"name": "_federation_node_2",
							"type": "address"
						},
						{
							"internalType": "address",
							"name": "_federation_node_3",
							"type": "address"
						},
						{
							"internalType": "address",
							"name": "_bridgeContract",
							"type": "address"
						}
					],
					"stateMutability": "nonpayable",
					"type": "constructor"
				},
				{
					"anonymous": false,
					"inputs": [
						{
							"indexed": true,
							"internalType": "uint8",
							"name": "nodeIndex",
							"type": "uint8"
						},
						{
							"indexed": true,
							"internalType": "address",
							"name": "changedBy",
							"type": "address"
						},
						{
							"indexed": true,
							"internalType": "address",
							"name": "newAddress",
							"type": "address"
						}
					],
					"name": "NodeChanged",
					"type": "event"
				},
				{
					"anonymous": false,
					"inputs": [
						{
							"indexed": true,
							"internalType": "address",
							"name": "confirmedBy",
							"type": "address"
						},
						{
							"indexed": true,
							"internalType": "address",
							"name": "recipient",
							"type": "address"
						},
						{
							"indexed": false,
							"internalType": "uint256",
							"name": "amount",
							"type": "uint256"
						},
						{
							"indexed": false,
							"internalType": "uint256",
							"name": "nonce",
							"type": "uint256"
						}
					],
					"name": "RequestConfirmed",
					"type": "event"
				},
				{
					"anonymous": false,
					"inputs": [
						{
							"indexed": true,
							"internalType": "address",
							"name": "recipient",
							"type": "address"
						},
						{
							"indexed": false,
							"internalType": "uint256",
							"name": "amount",
							"type": "uint256"
						},
						{
							"indexed": false,
							"internalType": "uint256",
							"name": "nonce",
							"type": "uint256"
						}
					],
					"name": "TransferExecuted",
					"type": "event"
				},
				{
					"inputs": [],
					"name": "bridgeContract",
					"outputs": [
						{
							"internalType": "address",
							"name": "",
							"type": "address"
						}
					],
					"stateMutability": "view",
					"type": "function"
				},
				{
					"inputs": [
						{
							"internalType": "address",
							"name": "newAddress",
							"type": "address"
						}
					],
					"name": "changeNode1",
					"outputs": [],
					"stateMutability": "nonpayable",
					"type": "function"
				},
				{
					"inputs": [
						{
							"internalType": "address",
							"name": "newAddress",
							"type": "address"
						}
					],
					"name": "changeNode2",
					"outputs": [],
					"stateMutability": "nonpayable",
					"type": "function"
				},
				{
					"inputs": [
						{
							"internalType": "address",
							"name": "newAddress",
							"type": "address"
						}
					],
					"name": "changeNode3",
					"outputs": [],
					"stateMutability": "nonpayable",
					"type": "function"
				},
				{
					"inputs": [
						{
							"internalType": "address",
							"name": "recipient",
							"type": "address"
						},
						{
							"internalType": "uint256",
							"name": "amount",
							"type": "uint256"
						},
						{
							"internalType": "uint256",
							"name": "nonce",
							"type": "uint256"
						}
					],
					"name": "confirmRequest",
					"outputs": [],
					"stateMutability": "nonpayable",
					"type": "function"
				},
				{
					"inputs": [],
					"name": "federation_node_1",
					"outputs": [
						{
							"internalType": "address",
							"name": "",
							"type": "address"
						}
					],
					"stateMutability": "view",
					"type": "function"
				},
				{
					"inputs": [],
					"name": "federation_node_2",
					"outputs": [
						{
							"internalType": "address",
							"name": "",
							"type": "address"
						}
					],
					"stateMutability": "view",
					"type": "function"
				},
				{
					"inputs": [],
					"name": "federation_node_3",
					"outputs": [
						{
							"internalType": "address",
							"name": "",
							"type": "address"
						}
					],
					"stateMutability": "view",
					"type": "function"
				},
				{
					"inputs": [
						{
							"internalType": "uint256",
							"name": "",
							"type": "uint256"
						}
					],
					"name": "requests",
					"outputs": [
						{
							"internalType": "bool",
							"name": "transfer_made",
							"type": "bool"
						},
						{
							"internalType": "bool",
							"name": "node_1_confirmation",
							"type": "bool"
						},
						{
							"internalType": "bool",
							"name": "node_2_confirmation",
							"type": "bool"
						},
						{
							"internalType": "bool",
							"name": "node_3_confirmation",
							"type": "bool"
						},
						{
							"internalType": "address",
							"name": "node_1_recipient",
							"type": "address"
						},
						{
							"internalType": "address",
							"name": "node_2_recipient",
							"type": "address"
						},
						{
							"internalType": "address",
							"name": "node_3_recipient",
							"type": "address"
						},
						{
							"internalType": "uint256",
							"name": "node_1_amount",
							"type": "uint256"
						},
						{
							"internalType": "uint256",
							"name": "node_2_amount",
							"type": "uint256"
						},
						{
							"internalType": "uint256",
							"name": "node_3_amount",
							"type": "uint256"
						}
					],
					"stateMutability": "view",
					"type": "function"
				}
			],
			"devdoc": {
				"kind": "dev",
				"methods": {},
				"version": 1
			},
			"evm": {
				"assembly": "    /* \"multisig_sol.sol\":373:6927  contract FederationSync {... */\n  mstore(0x40, 0x80)\n    /* \"multisig_sol.sol\":1722:2077  constructor(... */\n  callvalue\n  dup1\n  iszero\n  tag_1\n  jumpi\n  revert(0x00, 0x00)\ntag_1:\n  pop\n  mload(0x40)\n  sub(codesize, bytecodeSize)\n  dup1\n  bytecodeSize\n  dup4\n  codecopy\n  dup2\n  dup2\n  add\n  0x40\n  mstore\n  dup2\n  add\n  swap1\n  tag_2\n  swap2\n  swap1\n  tag_3\n  jump\t// in\ntag_2:\n    /* \"multisig_sol.sol\":1911:1929  _federation_node_1 */\n  dup4\n    /* \"multisig_sol.sol\":1891:1908  federation_node_1 */\n  0x00\n  0x00\n    /* \"multisig_sol.sol\":1891:1929  federation_node_1 = _federation_node_1 */\n  0x0100\n  exp\n  dup2\n  sload\n  dup2\n  0xffffffffffffffffffffffffffffffffffffffff\n  mul\n  not\n  and\n  swap1\n  dup4\n  0xffffffffffffffffffffffffffffffffffffffff\n  and\n  mul\n  or\n  swap1\n  sstore\n  pop\n    /* \"multisig_sol.sol\":1959:1977  _federation_node_2 */\n  dup3\n    /* \"multisig_sol.sol\":1939:1956  federation_node_2 */\n  0x01\n  0x00\n    /* \"multisig_sol.sol\":1939:1977  federation_node_2 = _federation_node_2 */\n  0x0100\n  exp\n  dup2\n  sload\n  dup2\n  0xffffffffffffffffffffffffffffffffffffffff\n  mul\n  not\n  and\n  swap1\n  dup4\n  0xffffffffffffffffffffffffffffffffffffffff\n  and\n  mul\n  or\n  swap1\n  sstore\n  pop\n    /* \"multisig_sol.sol\":2007:2025  _federation_node_3 */\n  dup2\n    /* \"multisig_sol.sol\":1987:2004  federation_node_3 */\n  0x02\n  0x00\n    /* \"multisig_sol.sol\":1987:2025  federation_node_3 = _federation_node_3 */\n  0x0100\n  exp\n  dup2\n  sload\n  dup2\n  0xffffffffffffffffffffffffffffffffffffffff\n  mul\n  not\n  and\n  swap1\n  dup4\n  0xffffffffffffffffffffffffffffffffffffffff\n  and\n  mul\n  or\n  swap1\n  sstore\n  pop\n    /* \"multisig_sol.sol\":2055:2070  _bridgeContract */\n  dup1\n    /* \"multisig_sol.sol\":2035:2049  bridgeContract */\n  0x03\n  0x00\n    /* \"multisig_sol.sol\":2035:2070  bridgeContract    = _bridgeContract */\n  0x0100\n  exp\n  dup2\n  sload\n  dup2\n  0xffffffffffffffffffffffffffffffffffffffff\n  mul\n  not\n  and\n  swap1\n  dup4\n  0xffffffffffffffffffffffffffffffffffffffff\n  and\n  mul\n  or\n  swap1\n  sstore\n  pop\n    /* \"multisig_sol.sol\":1722:2077  constructor(... */\n  pop\n  pop\n  pop\n  pop\n    /* \"multisig_sol.sol\":373:6927  contract FederationSync {... */\n  jump(tag_6)\n    /* \"#utility.yul\":88:205   */\ntag_8:\n    /* \"#utility.yul\":197:198   */\n  0x00\n    /* \"#utility.yul\":194:195   */\n  0x00\n    /* \"#utility.yul\":187:199   */\n  revert\n    /* \"#utility.yul\":334:460   */\ntag_10:\n    /* \"#utility.yul\":371:378   */\n  0x00\n    /* \"#utility.yul\":411:453   */\n  0xffffffffffffffffffffffffffffffffffffffff\n    /* \"#utility.yul\":404:409   */\n  dup3\n    /* \"#utility.yul\":400:454   */\n  and\n    /* \"#utility.yul\":389:454   */\n  swap1\n  pop\n    /* \"#utility.yul\":334:460   */\n  swap2\n  swap1\n  pop\n  jump\t// out\n    /* \"#utility.yul\":466:562   */\ntag_11:\n    /* \"#utility.yul\":503:510   */\n  0x00\n    /* \"#utility.yul\":532:556   */\n  tag_20\n    /* \"#utility.yul\":550:555   */\n  dup3\n    /* \"#utility.yul\":532:556   */\n  tag_10\n  jump\t// in\ntag_20:\n    /* \"#utility.yul\":521:556   */\n  swap1\n  pop\n    /* \"#utility.yul\":466:562   */\n  swap2\n  swap1\n  pop\n  jump\t// out\n    /* \"#utility.yul\":568:690   */\ntag_12:\n    /* \"#utility.yul\":641:665   */\n  tag_22\n    /* \"#utility.yul\":659:664   */\n  dup2\n    /* \"#utility.yul\":641:665   */\n  tag_11\n  jump\t// in\ntag_22:\n    /* \"#utility.yul\":634:639   */\n  dup2\n    /* \"#utility.yul\":631:666   */\n  eq\n    /* \"#utility.yul\":621:684   */\n  tag_23\n  jumpi\n    /* \"#utility.yul\":680:681   */\n  0x00\n    /* \"#utility.yul\":677:678   */\n  0x00\n    /* \"#utility.yul\":670:682   */\n  revert\n    /* \"#utility.yul\":621:684   */\ntag_23:\n    /* \"#utility.yul\":568:690   */\n  pop\n  jump\t// out\n    /* \"#utility.yul\":696:839   */\ntag_13:\n    /* \"#utility.yul\":753:758   */\n  0x00\n    /* \"#utility.yul\":784:790   */\n  dup2\n    /* \"#utility.yul\":778:791   */\n  mload\n    /* \"#utility.yul\":769:791   */\n  swap1\n  pop\n    /* \"#utility.yul\":800:833   */\n  tag_25\n    /* \"#utility.yul\":827:832   */\n  dup2\n    /* \"#utility.yul\":800:833   */\n  tag_12\n  jump\t// in\ntag_25:\n    /* \"#utility.yul\":696:839   */\n  swap3\n  swap2\n  pop\n  pop\n  jump\t// out\n    /* \"#utility.yul\":845:1665   */\ntag_3:\n    /* \"#utility.yul\":942:948   */\n  0x00\n    /* \"#utility.yul\":950:956   */\n  0x00\n    /* \"#utility.yul\":958:964   */\n  0x00\n    /* \"#utility.yul\":966:972   */\n  0x00\n    /* \"#utility.yul\":1015:1018   */\n  0x80\n    /* \"#utility.yul\":1003:1012   */\n  dup6\n    /* \"#utility.yul\":994:1001   */\n  dup8\n    /* \"#utility.yul\":990:1013   */\n  sub\n    /* \"#utility.yul\":986:1019   */\n  slt\n    /* \"#utility.yul\":983:1103   */\n  iszero\n  tag_27\n  jumpi\n    /* \"#utility.yul\":1022:1101   */\n  tag_28\n  tag_8\n  jump\t// in\ntag_28:\n    /* \"#utility.yul\":983:1103   */\ntag_27:\n    /* \"#utility.yul\":1142:1143   */\n  0x00\n    /* \"#utility.yul\":1167:1231   */\n  tag_29\n    /* \"#utility.yul\":1223:1230   */\n  dup8\n    /* \"#utility.yul\":1214:1220   */\n  dup3\n    /* \"#utility.yul\":1203:1212   */\n  dup9\n    /* \"#utility.yul\":1199:1221   */\n  add\n    /* \"#utility.yul\":1167:1231   */\n  tag_13\n  jump\t// in\ntag_29:\n    /* \"#utility.yul\":1157:1231   */\n  swap5\n  pop\n    /* \"#utility.yul\":1113:1241   */\n  pop\n    /* \"#utility.yul\":1280:1282   */\n  0x20\n    /* \"#utility.yul\":1306:1370   */\n  tag_30\n    /* \"#utility.yul\":1362:1369   */\n  dup8\n    /* \"#utility.yul\":1353:1359   */\n  dup3\n    /* \"#utility.yul\":1342:1351   */\n  dup9\n    /* \"#utility.yul\":1338:1360   */\n  add\n    /* \"#utility.yul\":1306:1370   */\n  tag_13\n  jump\t// in\ntag_30:\n    /* \"#utility.yul\":1296:1370   */\n  swap4\n  pop\n    /* \"#utility.yul\":1251:1380   */\n  pop\n    /* \"#utility.yul\":1419:1421   */\n  0x40\n    /* \"#utility.yul\":1445:1509   */\n  tag_31\n    /* \"#utility.yul\":1501:1508   */\n  dup8\n    /* \"#utility.yul\":1492:1498   */\n  dup3\n    /* \"#utility.yul\":1481:1490   */\n  dup9\n    /* \"#utility.yul\":1477:1499   */\n  add\n    /* \"#utility.yul\":1445:1509   */\n  tag_13\n  jump\t// in\ntag_31:\n    /* \"#utility.yul\":1435:1509   */\n  swap3\n  pop\n    /* \"#utility.yul\":1390:1519   */\n  pop\n    /* \"#utility.yul\":1558:1560   */\n  0x60\n    /* \"#utility.yul\":1584:1648   */\n  tag_32\n    /* \"#utility.yul\":1640:1647   */\n  dup8\n    /* \"#utility.yul\":1631:1637   */\n  dup3\n    /* \"#utility.yul\":1620:1629   */\n  dup9\n    /* \"#utility.yul\":1616:1638   */\n  add\n    /* \"#utility.yul\":1584:1648   */\n  tag_13\n  jump\t// in\ntag_32:\n    /* \"#utility.yul\":1574:1648   */\n  swap2\n  pop\n    /* \"#utility.yul\":1529:1658   */\n  pop\n    /* \"#utility.yul\":845:1665   */\n  swap3\n  swap6\n  swap2\n  swap5\n  pop\n  swap3\n  pop\n  jump\t// out\n    /* \"multisig_sol.sol\":373:6927  contract FederationSync {... */\ntag_6:\n  dataSize(sub_0)\n  dup1\n  dataOffset(sub_0)\n  0x00\n  codecopy\n  0x00\n  return\nstop\n\nsub_0: assembly {\n        /* \"multisig_sol.sol\":373:6927  contract FederationSync {... */\n      mstore(0x40, 0x80)\n      callvalue\n      dup1\n      iszero\n      tag_1\n      jumpi\n      revert(0x00, 0x00)\n    tag_1:\n      pop\n      jumpi(tag_2, lt(calldatasize, 0x04))\n      shr(0xe0, calldataload(0x00))\n      dup1\n      0x81d12c58\n      gt\n      tag_12\n      jumpi\n      dup1\n      0x81d12c58\n      eq\n      tag_7\n      jumpi\n      dup1\n      0x86e74f1e\n      eq\n      tag_8\n      jumpi\n      dup1\n      0x9959e541\n      eq\n      tag_9\n      jumpi\n      dup1\n      0xcd596583\n      eq\n      tag_10\n      jumpi\n      dup1\n      0xdc6e0737\n      eq\n      tag_11\n      jumpi\n      jump(tag_2)\n    tag_12:\n      dup1\n      0x0562099a\n      eq\n      tag_3\n      jumpi\n      dup1\n      0x0c020914\n      eq\n      tag_4\n      jumpi\n      dup1\n      0x5e080a07\n      eq\n      tag_5\n      jumpi\n      dup1\n      0x6453aded\n      eq\n      tag_6\n      jumpi\n    tag_2:\n      revert(0x00, 0x00)\n        /* \"multisig_sol.sol\":4800:5033  function changeNode3(address newAddress) external {... */\n    tag_3:\n      tag_13\n      0x04\n      dup1\n      calldatasize\n      sub\n      dup2\n      add\n      swap1\n      tag_14\n      swap2\n      swap1\n      tag_15\n      jump\t// in\n    tag_14:\n      tag_16\n      jump\t// in\n    tag_13:\n      stop\n        /* \"multisig_sol.sol\":596:628  address public federation_node_2 */\n    tag_4:\n      tag_17\n      tag_18\n      jump\t// in\n    tag_17:\n      mload(0x40)\n      tag_19\n      swap2\n      swap1\n      tag_20\n      jump\t// in\n    tag_19:\n      mload(0x40)\n      dup1\n      swap2\n      sub\n      swap1\n      return\n        /* \"multisig_sol.sol\":558:590  address public federation_node_1 */\n    tag_5:\n      tag_21\n      tag_22\n      jump\t// in\n    tag_21:\n      mload(0x40)\n      tag_23\n      swap2\n      swap1\n      tag_20\n      jump\t// in\n    tag_23:\n      mload(0x40)\n      dup1\n      swap2\n      sub\n      swap1\n      return\n        /* \"multisig_sol.sol\":634:666  address public federation_node_3 */\n    tag_6:\n      tag_24\n      tag_25\n      jump\t// in\n    tag_24:\n      mload(0x40)\n      tag_26\n      swap2\n      swap1\n      tag_20\n      jump\t// in\n    tag_26:\n      mload(0x40)\n      dup1\n      swap2\n      sub\n      swap1\n      return\n        /* \"multisig_sol.sol\":1659:1715  mapping(uint256 => ConfirmedRequestData) public requests */\n    tag_7:\n      tag_27\n      0x04\n      dup1\n      calldatasize\n      sub\n      dup2\n      add\n      swap1\n      tag_28\n      swap2\n      swap1\n      tag_29\n      jump\t// in\n    tag_28:\n      tag_30\n      jump\t// in\n    tag_27:\n      mload(0x40)\n      tag_31\n      swap11\n      swap10\n      swap9\n      swap8\n      swap7\n      swap6\n      swap5\n      swap4\n      swap3\n      swap2\n      swap1\n      tag_32\n      jump\t// in\n    tag_31:\n      mload(0x40)\n      dup1\n      swap2\n      sub\n      swap1\n      return\n        /* \"multisig_sol.sol\":2508:4120  function confirmRequest(... */\n    tag_8:\n      tag_33\n      0x04\n      dup1\n      calldatasize\n      sub\n      dup2\n      add\n      swap1\n      tag_34\n      swap2\n      swap1\n      tag_35\n      jump\t// in\n    tag_34:\n      tag_36\n      jump\t// in\n    tag_33:\n      stop\n        /* \"multisig_sol.sol\":4561:4794  function changeNode2(address newAddress) external {... */\n    tag_9:\n      tag_37\n      0x04\n      dup1\n      calldatasize\n      sub\n      dup2\n      add\n      swap1\n      tag_38\n      swap2\n      swap1\n      tag_15\n      jump\t// in\n    tag_38:\n      tag_39\n      jump\t// in\n    tag_37:\n      stop\n        /* \"multisig_sol.sol\":823:852  address public bridgeContract */\n    tag_10:\n      tag_40\n      tag_41\n      jump\t// in\n    tag_40:\n      mload(0x40)\n      tag_42\n      swap2\n      swap1\n      tag_20\n      jump\t// in\n    tag_42:\n      mload(0x40)\n      dup1\n      swap2\n      sub\n      swap1\n      return\n        /* \"multisig_sol.sol\":4322:4555  function changeNode1(address newAddress) external {... */\n    tag_11:\n      tag_43\n      0x04\n      dup1\n      calldatasize\n      sub\n      dup2\n      add\n      swap1\n      tag_44\n      swap2\n      swap1\n      tag_15\n      jump\t// in\n    tag_44:\n      tag_45\n      jump\t// in\n    tag_43:\n      stop\n        /* \"multisig_sol.sol\":4800:5033  function changeNode3(address newAddress) external {... */\n    tag_16:\n        /* \"multisig_sol.sol\":4882:4899  federation_node_3 */\n      0x02\n      0x00\n      swap1\n      sload\n      swap1\n      0x0100\n      exp\n      swap1\n      div\n      0xffffffffffffffffffffffffffffffffffffffff\n      and\n        /* \"multisig_sol.sol\":4868:4899  msg.sender == federation_node_3 */\n      0xffffffffffffffffffffffffffffffffffffffff\n      and\n        /* \"multisig_sol.sol\":4868:4878  msg.sender */\n      caller\n        /* \"multisig_sol.sol\":4868:4899  msg.sender == federation_node_3 */\n      0xffffffffffffffffffffffffffffffffffffffff\n      and\n      eq\n        /* \"multisig_sol.sol\":4860:4933  require(msg.sender == federation_node_3, \"Only node 3 can change itself\") */\n      tag_47\n      jumpi\n      mload(0x40)\n      0x08c379a000000000000000000000000000000000000000000000000000000000\n      dup2\n      mstore\n      0x04\n      add\n      tag_48\n      swap1\n      tag_49\n      jump\t// in\n    tag_48:\n      mload(0x40)\n      dup1\n      swap2\n      sub\n      swap1\n      revert\n    tag_47:\n        /* \"multisig_sol.sol\":4963:4973  newAddress */\n      dup1\n        /* \"multisig_sol.sol\":4943:4960  federation_node_3 */\n      0x02\n      0x00\n        /* \"multisig_sol.sol\":4943:4973  federation_node_3 = newAddress */\n      0x0100\n      exp\n      dup2\n      sload\n      dup2\n      0xffffffffffffffffffffffffffffffffffffffff\n      mul\n      not\n      and\n      swap1\n      dup4\n      0xffffffffffffffffffffffffffffffffffffffff\n      and\n      mul\n      or\n      swap1\n      sstore\n      pop\n        /* \"multisig_sol.sol\":5015:5025  newAddress */\n      dup1\n        /* \"multisig_sol.sol\":4988:5026  NodeChanged(3, msg.sender, newAddress) */\n      0xffffffffffffffffffffffffffffffffffffffff\n      and\n        /* \"multisig_sol.sol\":5003:5013  msg.sender */\n      caller\n        /* \"multisig_sol.sol\":4988:5026  NodeChanged(3, msg.sender, newAddress) */\n      0xffffffffffffffffffffffffffffffffffffffff\n      and\n        /* \"multisig_sol.sol\":5000:5001  3 */\n      0x03\n        /* \"multisig_sol.sol\":4988:5026  NodeChanged(3, msg.sender, newAddress) */\n      0xf5becf5ef6bf281ea3c4f617c266a872c7662757c90aa5f5cdffe02bd2023975\n      mload(0x40)\n      mload(0x40)\n      dup1\n      swap2\n      sub\n      swap1\n      log4\n        /* \"multisig_sol.sol\":4800:5033  function changeNode3(address newAddress) external {... */\n      pop\n      jump\t// out\n        /* \"multisig_sol.sol\":596:628  address public federation_node_2 */\n    tag_18:\n      0x01\n      0x00\n      swap1\n      sload\n      swap1\n      0x0100\n      exp\n      swap1\n      div\n      0xffffffffffffffffffffffffffffffffffffffff\n      and\n      dup2\n      jump\t// out\n        /* \"multisig_sol.sol\":558:590  address public federation_node_1 */\n    tag_22:\n      0x00\n      0x00\n      swap1\n      sload\n      swap1\n      0x0100\n      exp\n      swap1\n      div\n      0xffffffffffffffffffffffffffffffffffffffff\n      and\n      dup2\n      jump\t// out\n        /* \"multisig_sol.sol\":634:666  address public federation_node_3 */\n    tag_25:\n      0x02\n      0x00\n      swap1\n      sload\n      swap1\n      0x0100\n      exp\n      swap1\n      div\n      0xffffffffffffffffffffffffffffffffffffffff\n      and\n      dup2\n      jump\t// out\n        /* \"multisig_sol.sol\":1659:1715  mapping(uint256 => ConfirmedRequestData) public requests */\n    tag_30:\n      mstore(0x20, 0x04)\n      dup1\n      0x00\n      mstore\n      keccak256(0x00, 0x40)\n      0x00\n      swap2\n      pop\n      swap1\n      pop\n      dup1\n      0x00\n      add\n      0x00\n      swap1\n      sload\n      swap1\n      0x0100\n      exp\n      swap1\n      div\n      0xff\n      and\n      swap1\n      dup1\n      0x00\n      add\n      0x01\n      swap1\n      sload\n      swap1\n      0x0100\n      exp\n      swap1\n      div\n      0xff\n      and\n      swap1\n      dup1\n      0x00\n      add\n      0x02\n      swap1\n      sload\n      swap1\n      0x0100\n      exp\n      swap1\n      div\n      0xff\n      and\n      swap1\n      dup1\n      0x00\n      add\n      0x03\n      swap1\n      sload\n      swap1\n      0x0100\n      exp\n      swap1\n      div\n      0xff\n      and\n      swap1\n      dup1\n      0x00\n      add\n      0x04\n      swap1\n      sload\n      swap1\n      0x0100\n      exp\n      swap1\n      div\n      0xffffffffffffffffffffffffffffffffffffffff\n      and\n      swap1\n      dup1\n      0x01\n      add\n      0x00\n      swap1\n      sload\n      swap1\n      0x0100\n      exp\n      swap1\n      div\n      0xffffffffffffffffffffffffffffffffffffffff\n      and\n      swap1\n      dup1\n      0x02\n      add\n      0x00\n      swap1\n      sload\n      swap1\n      0x0100\n      exp\n      swap1\n      div\n      0xffffffffffffffffffffffffffffffffffffffff\n      and\n      swap1\n      dup1\n      0x03\n      add\n      sload\n      swap1\n      dup1\n      0x04\n      add\n      sload\n      swap1\n      dup1\n      0x05\n      add\n      sload\n      swap1\n      pop\n      dup11\n      jump\t// out\n        /* \"multisig_sol.sol\":2508:4120  function confirmRequest(... */\n    tag_36:\n        /* \"multisig_sol.sol\":2631:2663  ConfirmedRequestData storage req */\n      0x00\n        /* \"multisig_sol.sol\":2666:2674  requests */\n      0x04\n        /* \"multisig_sol.sol\":2666:2681  requests[nonce] */\n      0x00\n        /* \"multisig_sol.sol\":2675:2680  nonce */\n      dup4\n        /* \"multisig_sol.sol\":2666:2681  requests[nonce] */\n      dup2\n      mstore\n      0x20\n      add\n      swap1\n      dup2\n      mstore\n      0x20\n      add\n      0x00\n      keccak256\n        /* \"multisig_sol.sol\":2631:2681  ConfirmedRequestData storage req = requests[nonce] */\n      swap1\n      pop\n        /* \"multisig_sol.sol\":2701:2704  req */\n      dup1\n        /* \"multisig_sol.sol\":2701:2718  req.transfer_made */\n      0x00\n      add\n      0x00\n      swap1\n      sload\n      swap1\n      0x0100\n      exp\n      swap1\n      div\n      0xff\n      and\n        /* \"multisig_sol.sol\":2700:2718  !req.transfer_made */\n      iszero\n        /* \"multisig_sol.sol\":2692:2748  require(!req.transfer_made, \"Transfer already executed\") */\n      tag_51\n      jumpi\n      mload(0x40)\n      0x08c379a000000000000000000000000000000000000000000000000000000000\n      dup2\n      mstore\n      0x04\n      add\n      tag_52\n      swap1\n      tag_53\n      jump\t// in\n    tag_52:\n      mload(0x40)\n      dup1\n      swap2\n      sub\n      swap1\n      revert\n    tag_51:\n        /* \"multisig_sol.sol\":2777:2794  federation_node_1 */\n      0x00\n      0x00\n      swap1\n      sload\n      swap1\n      0x0100\n      exp\n      swap1\n      div\n      0xffffffffffffffffffffffffffffffffffffffff\n      and\n        /* \"multisig_sol.sol\":2763:2794  msg.sender == federation_node_1 */\n      0xffffffffffffffffffffffffffffffffffffffff\n      and\n        /* \"multisig_sol.sol\":2763:2773  msg.sender */\n      caller\n        /* \"multisig_sol.sol\":2763:2794  msg.sender == federation_node_1 */\n      0xffffffffffffffffffffffffffffffffffffffff\n      and\n      sub\n        /* \"multisig_sol.sol\":2759:3636  if (msg.sender == federation_node_1) {... */\n      tag_54\n      jumpi\n        /* \"multisig_sol.sol\":2819:2822  req */\n      dup1\n        /* \"multisig_sol.sol\":2819:2842  req.node_1_confirmation */\n      0x00\n      add\n      0x01\n      swap1\n      sload\n      swap1\n      0x0100\n      exp\n      swap1\n      div\n      0xff\n      and\n        /* \"multisig_sol.sol\":2818:2842  !req.node_1_confirmation */\n      iszero\n        /* \"multisig_sol.sol\":2810:2871  require(!req.node_1_confirmation, \"Node 1 already confirmed\") */\n      tag_55\n      jumpi\n      mload(0x40)\n      0x08c379a000000000000000000000000000000000000000000000000000000000\n      dup2\n      mstore\n      0x04\n      add\n      tag_56\n      swap1\n      tag_57\n      jump\t// in\n    tag_56:\n      mload(0x40)\n      dup1\n      swap2\n      sub\n      swap1\n      revert\n    tag_55:\n        /* \"multisig_sol.sol\":2911:2915  true */\n      0x01\n        /* \"multisig_sol.sol\":2885:2888  req */\n      dup2\n        /* \"multisig_sol.sol\":2885:2908  req.node_1_confirmation */\n      0x00\n      add\n      0x01\n        /* \"multisig_sol.sol\":2885:2915  req.node_1_confirmation = true */\n      0x0100\n      exp\n      dup2\n      sload\n      dup2\n      0xff\n      mul\n      not\n      and\n      swap1\n      dup4\n      iszero\n      iszero\n      mul\n      or\n      swap1\n      sstore\n      pop\n        /* \"multisig_sol.sol\":2955:2964  recipient */\n      dup4\n        /* \"multisig_sol.sol\":2929:2932  req */\n      dup2\n        /* \"multisig_sol.sol\":2929:2949  req.node_1_recipient */\n      0x00\n      add\n      0x04\n        /* \"multisig_sol.sol\":2929:2964  req.node_1_recipient    = recipient */\n      0x0100\n      exp\n      dup2\n      sload\n      dup2\n      0xffffffffffffffffffffffffffffffffffffffff\n      mul\n      not\n      and\n      swap1\n      dup4\n      0xffffffffffffffffffffffffffffffffffffffff\n      and\n      mul\n      or\n      swap1\n      sstore\n      pop\n        /* \"multisig_sol.sol\":3004:3010  amount */\n      dup3\n        /* \"multisig_sol.sol\":2978:2981  req */\n      dup2\n        /* \"multisig_sol.sol\":2978:2995  req.node_1_amount */\n      0x03\n      add\n        /* \"multisig_sol.sol\":2978:3010  req.node_1_amount       = amount */\n      dup2\n      swap1\n      sstore\n      pop\n        /* \"multisig_sol.sol\":2759:3636  if (msg.sender == federation_node_1) {... */\n      jump(tag_58)\n    tag_54:\n        /* \"multisig_sol.sol\":3045:3062  federation_node_2 */\n      0x01\n      0x00\n      swap1\n      sload\n      swap1\n      0x0100\n      exp\n      swap1\n      div\n      0xffffffffffffffffffffffffffffffffffffffff\n      and\n        /* \"multisig_sol.sol\":3031:3062  msg.sender == federation_node_2 */\n      0xffffffffffffffffffffffffffffffffffffffff\n      and\n        /* \"multisig_sol.sol\":3031:3041  msg.sender */\n      caller\n        /* \"multisig_sol.sol\":3031:3062  msg.sender == federation_node_2 */\n      0xffffffffffffffffffffffffffffffffffffffff\n      and\n      sub\n        /* \"multisig_sol.sol\":3027:3636  if (msg.sender == federation_node_2) {... */\n      tag_59\n      jumpi\n        /* \"multisig_sol.sol\":3087:3090  req */\n      dup1\n        /* \"multisig_sol.sol\":3087:3110  req.node_2_confirmation */\n      0x00\n      add\n      0x02\n      swap1\n      sload\n      swap1\n      0x0100\n      exp\n      swap1\n      div\n      0xff\n      and\n        /* \"multisig_sol.sol\":3086:3110  !req.node_2_confirmation */\n      iszero\n        /* \"multisig_sol.sol\":3078:3139  require(!req.node_2_confirmation, \"Node 2 already confirmed\") */\n      tag_60\n      jumpi\n      mload(0x40)\n      0x08c379a000000000000000000000000000000000000000000000000000000000\n      dup2\n      mstore\n      0x04\n      add\n      tag_61\n      swap1\n      tag_62\n      jump\t// in\n    tag_61:\n      mload(0x40)\n      dup1\n      swap2\n      sub\n      swap1\n      revert\n    tag_60:\n        /* \"multisig_sol.sol\":3179:3183  true */\n      0x01\n        /* \"multisig_sol.sol\":3153:3156  req */\n      dup2\n        /* \"multisig_sol.sol\":3153:3176  req.node_2_confirmation */\n      0x00\n      add\n      0x02\n        /* \"multisig_sol.sol\":3153:3183  req.node_2_confirmation = true */\n      0x0100\n      exp\n      dup2\n      sload\n      dup2\n      0xff\n      mul\n      not\n      and\n      swap1\n      dup4\n      iszero\n      iszero\n      mul\n      or\n      swap1\n      sstore\n      pop\n        /* \"multisig_sol.sol\":3223:3232  recipient */\n      dup4\n        /* \"multisig_sol.sol\":3197:3200  req */\n      dup2\n        /* \"multisig_sol.sol\":3197:3217  req.node_2_recipient */\n      0x01\n      add\n      0x00\n        /* \"multisig_sol.sol\":3197:3232  req.node_2_recipient    = recipient */\n      0x0100\n      exp\n      dup2\n      sload\n      dup2\n      0xffffffffffffffffffffffffffffffffffffffff\n      mul\n      not\n      and\n      swap1\n      dup4\n      0xffffffffffffffffffffffffffffffffffffffff\n      and\n      mul\n      or\n      swap1\n      sstore\n      pop\n        /* \"multisig_sol.sol\":3272:3278  amount */\n      dup3\n        /* \"multisig_sol.sol\":3246:3249  req */\n      dup2\n        /* \"multisig_sol.sol\":3246:3263  req.node_2_amount */\n      0x04\n      add\n        /* \"multisig_sol.sol\":3246:3278  req.node_2_amount       = amount */\n      dup2\n      swap1\n      sstore\n      pop\n        /* \"multisig_sol.sol\":3027:3636  if (msg.sender == federation_node_2) {... */\n      jump(tag_63)\n    tag_59:\n        /* \"multisig_sol.sol\":3313:3330  federation_node_3 */\n      0x02\n      0x00\n      swap1\n      sload\n      swap1\n      0x0100\n      exp\n      swap1\n      div\n      0xffffffffffffffffffffffffffffffffffffffff\n      and\n        /* \"multisig_sol.sol\":3299:3330  msg.sender == federation_node_3 */\n      0xffffffffffffffffffffffffffffffffffffffff\n      and\n        /* \"multisig_sol.sol\":3299:3309  msg.sender */\n      caller\n        /* \"multisig_sol.sol\":3299:3330  msg.sender == federation_node_3 */\n      0xffffffffffffffffffffffffffffffffffffffff\n      and\n      sub\n        /* \"multisig_sol.sol\":3295:3636  if (msg.sender == federation_node_3) {... */\n      tag_64\n      jumpi\n        /* \"multisig_sol.sol\":3355:3358  req */\n      dup1\n        /* \"multisig_sol.sol\":3355:3378  req.node_3_confirmation */\n      0x00\n      add\n      0x03\n      swap1\n      sload\n      swap1\n      0x0100\n      exp\n      swap1\n      div\n      0xff\n      and\n        /* \"multisig_sol.sol\":3354:3378  !req.node_3_confirmation */\n      iszero\n        /* \"multisig_sol.sol\":3346:3407  require(!req.node_3_confirmation, \"Node 3 already confirmed\") */\n      tag_65\n      jumpi\n      mload(0x40)\n      0x08c379a000000000000000000000000000000000000000000000000000000000\n      dup2\n      mstore\n      0x04\n      add\n      tag_66\n      swap1\n      tag_67\n      jump\t// in\n    tag_66:\n      mload(0x40)\n      dup1\n      swap2\n      sub\n      swap1\n      revert\n    tag_65:\n        /* \"multisig_sol.sol\":3447:3451  true */\n      0x01\n        /* \"multisig_sol.sol\":3421:3424  req */\n      dup2\n        /* \"multisig_sol.sol\":3421:3444  req.node_3_confirmation */\n      0x00\n      add\n      0x03\n        /* \"multisig_sol.sol\":3421:3451  req.node_3_confirmation = true */\n      0x0100\n      exp\n      dup2\n      sload\n      dup2\n      0xff\n      mul\n      not\n      and\n      swap1\n      dup4\n      iszero\n      iszero\n      mul\n      or\n      swap1\n      sstore\n      pop\n        /* \"multisig_sol.sol\":3491:3500  recipient */\n      dup4\n        /* \"multisig_sol.sol\":3465:3468  req */\n      dup2\n        /* \"multisig_sol.sol\":3465:3485  req.node_3_recipient */\n      0x02\n      add\n      0x00\n        /* \"multisig_sol.sol\":3465:3500  req.node_3_recipient    = recipient */\n      0x0100\n      exp\n      dup2\n      sload\n      dup2\n      0xffffffffffffffffffffffffffffffffffffffff\n      mul\n      not\n      and\n      swap1\n      dup4\n      0xffffffffffffffffffffffffffffffffffffffff\n      and\n      mul\n      or\n      swap1\n      sstore\n      pop\n        /* \"multisig_sol.sol\":3540:3546  amount */\n      dup3\n        /* \"multisig_sol.sol\":3514:3517  req */\n      dup2\n        /* \"multisig_sol.sol\":3514:3531  req.node_3_amount */\n      0x05\n      add\n        /* \"multisig_sol.sol\":3514:3546  req.node_3_amount       = amount */\n      dup2\n      swap1\n      sstore\n      pop\n        /* \"multisig_sol.sol\":3295:3636  if (msg.sender == federation_node_3) {... */\n      jump(tag_68)\n    tag_64:\n        /* \"multisig_sol.sol\":3582:3625  revert(\"Only federation nodes can confirm\") */\n      mload(0x40)\n      0x08c379a000000000000000000000000000000000000000000000000000000000\n      dup2\n      mstore\n      0x04\n      add\n      tag_69\n      swap1\n      tag_70\n      jump\t// in\n    tag_69:\n      mload(0x40)\n      dup1\n      swap2\n      sub\n      swap1\n      revert\n        /* \"multisig_sol.sol\":3295:3636  if (msg.sender == federation_node_3) {... */\n    tag_68:\n        /* \"multisig_sol.sol\":3027:3636  if (msg.sender == federation_node_2) {... */\n    tag_63:\n        /* \"multisig_sol.sol\":2759:3636  if (msg.sender == federation_node_1) {... */\n    tag_58:\n        /* \"multisig_sol.sol\":3680:3689  recipient */\n      dup4\n        /* \"multisig_sol.sol\":3651:3705  RequestConfirmed(msg.sender, recipient, amount, nonce) */\n      0xffffffffffffffffffffffffffffffffffffffff\n      and\n        /* \"multisig_sol.sol\":3668:3678  msg.sender */\n      caller\n        /* \"multisig_sol.sol\":3651:3705  RequestConfirmed(msg.sender, recipient, amount, nonce) */\n      0xffffffffffffffffffffffffffffffffffffffff\n      and\n      0x6718bbbc3a1333e921501591df5fe974bd1de1e3dc5498203221a126967067b8\n        /* \"multisig_sol.sol\":3691:3697  amount */\n      dup6\n        /* \"multisig_sol.sol\":3699:3704  nonce */\n      dup6\n        /* \"multisig_sol.sol\":3651:3705  RequestConfirmed(msg.sender, recipient, amount, nonce) */\n      mload(0x40)\n      tag_71\n      swap3\n      swap2\n      swap1\n      tag_72\n      jump\t// in\n    tag_71:\n      mload(0x40)\n      dup1\n      swap2\n      sub\n      swap1\n      log3\n        /* \"multisig_sol.sol\":3720:3740  _hasConsensus(nonce) */\n      tag_73\n        /* \"multisig_sol.sol\":3734:3739  nonce */\n      dup3\n        /* \"multisig_sol.sol\":3720:3733  _hasConsensus */\n      tag_74\n        /* \"multisig_sol.sol\":3720:3740  _hasConsensus(nonce) */\n      jump\t// in\n    tag_73:\n        /* \"multisig_sol.sol\":3716:4114  if (_hasConsensus(nonce)) {... */\n      iszero\n      tag_75\n      jumpi\n        /* \"multisig_sol.sol\":3776:3780  true */\n      0x01\n        /* \"multisig_sol.sol\":3756:3759  req */\n      dup2\n        /* \"multisig_sol.sol\":3756:3773  req.transfer_made */\n      0x00\n      add\n      0x00\n        /* \"multisig_sol.sol\":3756:3780  req.transfer_made = true */\n      0x0100\n      exp\n      dup2\n      sload\n      dup2\n      0xff\n      mul\n      not\n      and\n      swap1\n      dup4\n      iszero\n      iszero\n      mul\n      or\n      swap1\n      sstore\n      pop\n        /* \"multisig_sol.sol\":3999:4013  bridgeContract */\n      0x03\n      0x00\n      swap1\n      sload\n      swap1\n      0x0100\n      exp\n      swap1\n      div\n      0xffffffffffffffffffffffffffffffffffffffff\n      and\n        /* \"multisig_sol.sol\":3991:4023  IBridge(bridgeContract).Transfer */\n      0xffffffffffffffffffffffffffffffffffffffff\n      and\n      0x69ca02dd\n        /* \"multisig_sol.sol\":4024:4033  recipient */\n      dup6\n        /* \"multisig_sol.sol\":4035:4041  amount */\n      dup6\n        /* \"multisig_sol.sol\":3991:4042  IBridge(bridgeContract).Transfer(recipient, amount) */\n      mload(0x40)\n      dup4\n      0xffffffff\n      and\n      0xe0\n      shl\n      dup2\n      mstore\n      0x04\n      add\n      tag_76\n      swap3\n      swap2\n      swap1\n      tag_77\n      jump\t// in\n    tag_76:\n      0x00\n      mload(0x40)\n      dup1\n      dup4\n      sub\n      dup2\n      0x00\n      dup8\n      dup1\n      extcodesize\n      iszero\n      dup1\n      iszero\n      tag_78\n      jumpi\n      revert(0x00, 0x00)\n    tag_78:\n      pop\n      gas\n      call\n      iszero\n      dup1\n      iszero\n      tag_80\n      jumpi\n      returndatacopy(0x00, 0x00, returndatasize)\n      revert(0x00, returndatasize)\n    tag_80:\n      pop\n      pop\n      pop\n      pop\n        /* \"multisig_sol.sol\":4078:4087  recipient */\n      dup4\n        /* \"multisig_sol.sol\":4061:4103  TransferExecuted(recipient, amount, nonce) */\n      0xffffffffffffffffffffffffffffffffffffffff\n      and\n      0xf8d62a11d316e69c1460662f86b7046003826db86fdc0d5ffa8c3adaa24f0a58\n        /* \"multisig_sol.sol\":4089:4095  amount */\n      dup5\n        /* \"multisig_sol.sol\":4097:4102  nonce */\n      dup5\n        /* \"multisig_sol.sol\":4061:4103  TransferExecuted(recipient, amount, nonce) */\n      mload(0x40)\n      tag_81\n      swap3\n      swap2\n      swap1\n      tag_72\n      jump\t// in\n    tag_81:\n      mload(0x40)\n      dup1\n      swap2\n      sub\n      swap1\n      log2\n        /* \"multisig_sol.sol\":3716:4114  if (_hasConsensus(nonce)) {... */\n    tag_75:\n        /* \"multisig_sol.sol\":2621:4120  {... */\n      pop\n        /* \"multisig_sol.sol\":2508:4120  function confirmRequest(... */\n      pop\n      pop\n      pop\n      jump\t// out\n        /* \"multisig_sol.sol\":4561:4794  function changeNode2(address newAddress) external {... */\n    tag_39:\n        /* \"multisig_sol.sol\":4643:4660  federation_node_2 */\n      0x01\n      0x00\n      swap1\n      sload\n      swap1\n      0x0100\n      exp\n      swap1\n      div\n      0xffffffffffffffffffffffffffffffffffffffff\n      and\n        /* \"multisig_sol.sol\":4629:4660  msg.sender == federation_node_2 */\n      0xffffffffffffffffffffffffffffffffffffffff\n      and\n        /* \"multisig_sol.sol\":4629:4639  msg.sender */\n      caller\n        /* \"multisig_sol.sol\":4629:4660  msg.sender == federation_node_2 */\n      0xffffffffffffffffffffffffffffffffffffffff\n      and\n      eq\n        /* \"multisig_sol.sol\":4621:4694  require(msg.sender == federation_node_2, \"Only node 2 can change itself\") */\n      tag_83\n      jumpi\n      mload(0x40)\n      0x08c379a000000000000000000000000000000000000000000000000000000000\n      dup2\n      mstore\n      0x04\n      add\n      tag_84\n      swap1\n      tag_85\n      jump\t// in\n    tag_84:\n      mload(0x40)\n      dup1\n      swap2\n      sub\n      swap1\n      revert\n    tag_83:\n        /* \"multisig_sol.sol\":4724:4734  newAddress */\n      dup1\n        /* \"multisig_sol.sol\":4704:4721  federation_node_2 */\n      0x01\n      0x00\n        /* \"multisig_sol.sol\":4704:4734  federation_node_2 = newAddress */\n      0x0100\n      exp\n      dup2\n      sload\n      dup2\n      0xffffffffffffffffffffffffffffffffffffffff\n      mul\n      not\n      and\n      swap1\n      dup4\n      0xffffffffffffffffffffffffffffffffffffffff\n      and\n      mul\n      or\n      swap1\n      sstore\n      pop\n        /* \"multisig_sol.sol\":4776:4786  newAddress */\n      dup1\n        /* \"multisig_sol.sol\":4749:4787  NodeChanged(2, msg.sender, newAddress) */\n      0xffffffffffffffffffffffffffffffffffffffff\n      and\n        /* \"multisig_sol.sol\":4764:4774  msg.sender */\n      caller\n        /* \"multisig_sol.sol\":4749:4787  NodeChanged(2, msg.sender, newAddress) */\n      0xffffffffffffffffffffffffffffffffffffffff\n      and\n        /* \"multisig_sol.sol\":4761:4762  2 */\n      0x02\n        /* \"multisig_sol.sol\":4749:4787  NodeChanged(2, msg.sender, newAddress) */\n      0xf5becf5ef6bf281ea3c4f617c266a872c7662757c90aa5f5cdffe02bd2023975\n      mload(0x40)\n      mload(0x40)\n      dup1\n      swap2\n      sub\n      swap1\n      log4\n        /* \"multisig_sol.sol\":4561:4794  function changeNode2(address newAddress) external {... */\n      pop\n      jump\t// out\n        /* \"multisig_sol.sol\":823:852  address public bridgeContract */\n    tag_41:\n      0x03\n      0x00\n      swap1\n      sload\n      swap1\n      0x0100\n      exp\n      swap1\n      div\n      0xffffffffffffffffffffffffffffffffffffffff\n      and\n      dup2\n      jump\t// out\n        /* \"multisig_sol.sol\":4322:4555  function changeNode1(address newAddress) external {... */\n    tag_45:\n        /* \"multisig_sol.sol\":4404:4421  federation_node_1 */\n      0x00\n      0x00\n      swap1\n      sload\n      swap1\n      0x0100\n      exp\n      swap1\n      div\n      0xffffffffffffffffffffffffffffffffffffffff\n      and\n        /* \"multisig_sol.sol\":4390:4421  msg.sender == federation_node_1 */\n      0xffffffffffffffffffffffffffffffffffffffff\n      and\n        /* \"multisig_sol.sol\":4390:4400  msg.sender */\n      caller\n        /* \"multisig_sol.sol\":4390:4421  msg.sender == federation_node_1 */\n      0xffffffffffffffffffffffffffffffffffffffff\n      and\n      eq\n        /* \"multisig_sol.sol\":4382:4455  require(msg.sender == federation_node_1, \"Only node 1 can change itself\") */\n      tag_87\n      jumpi\n      mload(0x40)\n      0x08c379a000000000000000000000000000000000000000000000000000000000\n      dup2\n      mstore\n      0x04\n      add\n      tag_88\n      swap1\n      tag_89\n      jump\t// in\n    tag_88:\n      mload(0x40)\n      dup1\n      swap2\n      sub\n      swap1\n      revert\n    tag_87:\n        /* \"multisig_sol.sol\":4485:4495  newAddress */\n      dup1\n        /* \"multisig_sol.sol\":4465:4482  federation_node_1 */\n      0x00\n      0x00\n        /* \"multisig_sol.sol\":4465:4495  federation_node_1 = newAddress */\n      0x0100\n      exp\n      dup2\n      sload\n      dup2\n      0xffffffffffffffffffffffffffffffffffffffff\n      mul\n      not\n      and\n      swap1\n      dup4\n      0xffffffffffffffffffffffffffffffffffffffff\n      and\n      mul\n      or\n      swap1\n      sstore\n      pop\n        /* \"multisig_sol.sol\":4537:4547  newAddress */\n      dup1\n        /* \"multisig_sol.sol\":4510:4548  NodeChanged(1, msg.sender, newAddress) */\n      0xffffffffffffffffffffffffffffffffffffffff\n      and\n        /* \"multisig_sol.sol\":4525:4535  msg.sender */\n      caller\n        /* \"multisig_sol.sol\":4510:4548  NodeChanged(1, msg.sender, newAddress) */\n      0xffffffffffffffffffffffffffffffffffffffff\n      and\n        /* \"multisig_sol.sol\":4522:4523  1 */\n      0x01\n        /* \"multisig_sol.sol\":4510:4548  NodeChanged(1, msg.sender, newAddress) */\n      0xf5becf5ef6bf281ea3c4f617c266a872c7662757c90aa5f5cdffe02bd2023975\n      mload(0x40)\n      mload(0x40)\n      dup1\n      swap2\n      sub\n      swap1\n      log4\n        /* \"multisig_sol.sol\":4322:4555  function changeNode1(address newAddress) external {... */\n      pop\n      jump\t// out\n        /* \"multisig_sol.sol\":5277:6071  function _hasConsensus(uint256 nonce) internal view returns (bool) {... */\n    tag_74:\n        /* \"multisig_sol.sol\":5338:5342  bool */\n      0x00\n        /* \"multisig_sol.sol\":5354:5386  ConfirmedRequestData storage req */\n      0x00\n        /* \"multisig_sol.sol\":5389:5397  requests */\n      0x04\n        /* \"multisig_sol.sol\":5389:5404  requests[nonce] */\n      0x00\n        /* \"multisig_sol.sol\":5398:5403  nonce */\n      dup5\n        /* \"multisig_sol.sol\":5389:5404  requests[nonce] */\n      dup2\n      mstore\n      0x20\n      add\n      swap1\n      dup2\n      mstore\n      0x20\n      add\n      0x00\n      keccak256\n        /* \"multisig_sol.sol\":5354:5404  ConfirmedRequestData storage req = requests[nonce] */\n      swap1\n      pop\n        /* \"multisig_sol.sol\":5419:5422  req */\n      dup1\n        /* \"multisig_sol.sol\":5419:5442  req.node_1_confirmation */\n      0x00\n      add\n      0x01\n      swap1\n      sload\n      swap1\n      0x0100\n      exp\n      swap1\n      div\n      0xff\n      and\n        /* \"multisig_sol.sol\":5419:5469  req.node_1_confirmation && req.node_2_confirmation */\n      dup1\n      iszero\n      tag_91\n      jumpi\n      pop\n        /* \"multisig_sol.sol\":5446:5449  req */\n      dup1\n        /* \"multisig_sol.sol\":5446:5469  req.node_2_confirmation */\n      0x00\n      add\n      0x02\n      swap1\n      sload\n      swap1\n      0x0100\n      exp\n      swap1\n      div\n      0xff\n      and\n        /* \"multisig_sol.sol\":5419:5469  req.node_1_confirmation && req.node_2_confirmation */\n    tag_91:\n        /* \"multisig_sol.sol\":5415:5618  if (req.node_1_confirmation && req.node_2_confirmation) {... */\n      iszero\n      tag_92\n      jumpi\n        /* \"multisig_sol.sol\":5513:5516  req */\n      dup1\n        /* \"multisig_sol.sol\":5513:5533  req.node_2_recipient */\n      0x01\n      add\n      0x00\n      swap1\n      sload\n      swap1\n      0x0100\n      exp\n      swap1\n      div\n      0xffffffffffffffffffffffffffffffffffffffff\n      and\n        /* \"multisig_sol.sol\":5489:5533  req.node_1_recipient == req.node_2_recipient */\n      0xffffffffffffffffffffffffffffffffffffffff\n      and\n        /* \"multisig_sol.sol\":5489:5492  req */\n      dup2\n        /* \"multisig_sol.sol\":5489:5509  req.node_1_recipient */\n      0x00\n      add\n      0x04\n      swap1\n      sload\n      swap1\n      0x0100\n      exp\n      swap1\n      div\n      0xffffffffffffffffffffffffffffffffffffffff\n      and\n        /* \"multisig_sol.sol\":5489:5533  req.node_1_recipient == req.node_2_recipient */\n      0xffffffffffffffffffffffffffffffffffffffff\n      and\n      eq\n        /* \"multisig_sol.sol\":5489:5594  req.node_1_recipient == req.node_2_recipient &&... */\n      dup1\n      iszero\n      tag_93\n      jumpi\n      pop\n        /* \"multisig_sol.sol\":5577:5580  req */\n      dup1\n        /* \"multisig_sol.sol\":5577:5594  req.node_2_amount */\n      0x04\n      add\n      sload\n        /* \"multisig_sol.sol\":5553:5556  req */\n      dup2\n        /* \"multisig_sol.sol\":5553:5570  req.node_1_amount */\n      0x03\n      add\n      sload\n        /* \"multisig_sol.sol\":5553:5594  req.node_1_amount    == req.node_2_amount */\n      eq\n        /* \"multisig_sol.sol\":5489:5594  req.node_1_recipient == req.node_2_recipient &&... */\n    tag_93:\n        /* \"multisig_sol.sol\":5485:5607  if (req.node_1_recipient == req.node_2_recipient &&... */\n      iszero\n      tag_94\n      jumpi\n        /* \"multisig_sol.sol\":5603:5607  true */\n      0x01\n        /* \"multisig_sol.sol\":5596:5607  return true */\n      swap2\n      pop\n      pop\n      jump(tag_90)\n        /* \"multisig_sol.sol\":5485:5607  if (req.node_1_recipient == req.node_2_recipient &&... */\n    tag_94:\n        /* \"multisig_sol.sol\":5415:5618  if (req.node_1_confirmation && req.node_2_confirmation) {... */\n    tag_92:\n        /* \"multisig_sol.sol\":5631:5634  req */\n      dup1\n        /* \"multisig_sol.sol\":5631:5654  req.node_1_confirmation */\n      0x00\n      add\n      0x01\n      swap1\n      sload\n      swap1\n      0x0100\n      exp\n      swap1\n      div\n      0xff\n      and\n        /* \"multisig_sol.sol\":5631:5681  req.node_1_confirmation && req.node_3_confirmation */\n      dup1\n      iszero\n      tag_95\n      jumpi\n      pop\n        /* \"multisig_sol.sol\":5658:5661  req */\n      dup1\n        /* \"multisig_sol.sol\":5658:5681  req.node_3_confirmation */\n      0x00\n      add\n      0x03\n      swap1\n      sload\n      swap1\n      0x0100\n      exp\n      swap1\n      div\n      0xff\n      and\n        /* \"multisig_sol.sol\":5631:5681  req.node_1_confirmation && req.node_3_confirmation */\n    tag_95:\n        /* \"multisig_sol.sol\":5627:5830  if (req.node_1_confirmation && req.node_3_confirmation) {... */\n      iszero\n      tag_96\n      jumpi\n        /* \"multisig_sol.sol\":5725:5728  req */\n      dup1\n        /* \"multisig_sol.sol\":5725:5745  req.node_3_recipient */\n      0x02\n      add\n      0x00\n      swap1\n      sload\n      swap1\n      0x0100\n      exp\n      swap1\n      div\n      0xffffffffffffffffffffffffffffffffffffffff\n      and\n        /* \"multisig_sol.sol\":5701:5745  req.node_1_recipient == req.node_3_recipient */\n      0xffffffffffffffffffffffffffffffffffffffff\n      and\n        /* \"multisig_sol.sol\":5701:5704  req */\n      dup2\n        /* \"multisig_sol.sol\":5701:5721  req.node_1_recipient */\n      0x00\n      add\n      0x04\n      swap1\n      sload\n      swap1\n      0x0100\n      exp\n      swap1\n      div\n      0xffffffffffffffffffffffffffffffffffffffff\n      and\n        /* \"multisig_sol.sol\":5701:5745  req.node_1_recipient == req.node_3_recipient */\n      0xffffffffffffffffffffffffffffffffffffffff\n      and\n      eq\n        /* \"multisig_sol.sol\":5701:5806  req.node_1_recipient == req.node_3_recipient &&... */\n      dup1\n      iszero\n      tag_97\n      jumpi\n      pop\n        /* \"multisig_sol.sol\":5789:5792  req */\n      dup1\n        /* \"multisig_sol.sol\":5789:5806  req.node_3_amount */\n      0x05\n      add\n      sload\n        /* \"multisig_sol.sol\":5765:5768  req */\n      dup2\n        /* \"multisig_sol.sol\":5765:5782  req.node_1_amount */\n      0x03\n      add\n      sload\n        /* \"multisig_sol.sol\":5765:5806  req.node_1_amount    == req.node_3_amount */\n      eq\n        /* \"multisig_sol.sol\":5701:5806  req.node_1_recipient == req.node_3_recipient &&... */\n    tag_97:\n        /* \"multisig_sol.sol\":5697:5819  if (req.node_1_recipient == req.node_3_recipient &&... */\n      iszero\n      tag_98\n      jumpi\n        /* \"multisig_sol.sol\":5815:5819  true */\n      0x01\n        /* \"multisig_sol.sol\":5808:5819  return true */\n      swap2\n      pop\n      pop\n      jump(tag_90)\n        /* \"multisig_sol.sol\":5697:5819  if (req.node_1_recipient == req.node_3_recipient &&... */\n    tag_98:\n        /* \"multisig_sol.sol\":5627:5830  if (req.node_1_confirmation && req.node_3_confirmation) {... */\n    tag_96:\n        /* \"multisig_sol.sol\":5843:5846  req */\n      dup1\n        /* \"multisig_sol.sol\":5843:5866  req.node_2_confirmation */\n      0x00\n      add\n      0x02\n      swap1\n      sload\n      swap1\n      0x0100\n      exp\n      swap1\n      div\n      0xff\n      and\n        /* \"multisig_sol.sol\":5843:5893  req.node_2_confirmation && req.node_3_confirmation */\n      dup1\n      iszero\n      tag_99\n      jumpi\n      pop\n        /* \"multisig_sol.sol\":5870:5873  req */\n      dup1\n        /* \"multisig_sol.sol\":5870:5893  req.node_3_confirmation */\n      0x00\n      add\n      0x03\n      swap1\n      sload\n      swap1\n      0x0100\n      exp\n      swap1\n      div\n      0xff\n      and\n        /* \"multisig_sol.sol\":5843:5893  req.node_2_confirmation && req.node_3_confirmation */\n    tag_99:\n        /* \"multisig_sol.sol\":5839:6042  if (req.node_2_confirmation && req.node_3_confirmation) {... */\n      iszero\n      tag_100\n      jumpi\n        /* \"multisig_sol.sol\":5937:5940  req */\n      dup1\n        /* \"multisig_sol.sol\":5937:5957  req.node_3_recipient */\n      0x02\n      add\n      0x00\n      swap1\n      sload\n      swap1\n      0x0100\n      exp\n      swap1\n      div\n      0xffffffffffffffffffffffffffffffffffffffff\n      and\n        /* \"multisig_sol.sol\":5913:5957  req.node_2_recipient == req.node_3_recipient */\n      0xffffffffffffffffffffffffffffffffffffffff\n      and\n        /* \"multisig_sol.sol\":5913:5916  req */\n      dup2\n        /* \"multisig_sol.sol\":5913:5933  req.node_2_recipient */\n      0x01\n      add\n      0x00\n      swap1\n      sload\n      swap1\n      0x0100\n      exp\n      swap1\n      div\n      0xffffffffffffffffffffffffffffffffffffffff\n      and\n        /* \"multisig_sol.sol\":5913:5957  req.node_2_recipient == req.node_3_recipient */\n      0xffffffffffffffffffffffffffffffffffffffff\n      and\n      eq\n        /* \"multisig_sol.sol\":5913:6018  req.node_2_recipient == req.node_3_recipient &&... */\n      dup1\n      iszero\n      tag_101\n      jumpi\n      pop\n        /* \"multisig_sol.sol\":6001:6004  req */\n      dup1\n        /* \"multisig_sol.sol\":6001:6018  req.node_3_amount */\n      0x05\n      add\n      sload\n        /* \"multisig_sol.sol\":5977:5980  req */\n      dup2\n        /* \"multisig_sol.sol\":5977:5994  req.node_2_amount */\n      0x04\n      add\n      sload\n        /* \"multisig_sol.sol\":5977:6018  req.node_2_amount    == req.node_3_amount */\n      eq\n        /* \"multisig_sol.sol\":5913:6018  req.node_2_recipient == req.node_3_recipient &&... */\n    tag_101:\n        /* \"multisig_sol.sol\":5909:6031  if (req.node_2_recipient == req.node_3_recipient &&... */\n      iszero\n      tag_102\n      jumpi\n        /* \"multisig_sol.sol\":6027:6031  true */\n      0x01\n        /* \"multisig_sol.sol\":6020:6031  return true */\n      swap2\n      pop\n      pop\n      jump(tag_90)\n        /* \"multisig_sol.sol\":5909:6031  if (req.node_2_recipient == req.node_3_recipient &&... */\n    tag_102:\n        /* \"multisig_sol.sol\":5839:6042  if (req.node_2_confirmation && req.node_3_confirmation) {... */\n    tag_100:\n        /* \"multisig_sol.sol\":6059:6064  false */\n      0x00\n        /* \"multisig_sol.sol\":6052:6064  return false */\n      swap2\n      pop\n      pop\n        /* \"multisig_sol.sol\":5277:6071  function _hasConsensus(uint256 nonce) internal view returns (bool) {... */\n    tag_90:\n      swap2\n      swap1\n      pop\n      jump\t// out\n        /* \"#utility.yul\":88:205   */\n    tag_104:\n        /* \"#utility.yul\":197:198   */\n      0x00\n        /* \"#utility.yul\":194:195   */\n      0x00\n        /* \"#utility.yul\":187:199   */\n      revert\n        /* \"#utility.yul\":334:460   */\n    tag_106:\n        /* \"#utility.yul\":371:378   */\n      0x00\n        /* \"#utility.yul\":411:453   */\n      0xffffffffffffffffffffffffffffffffffffffff\n        /* \"#utility.yul\":404:409   */\n      dup3\n        /* \"#utility.yul\":400:454   */\n      and\n        /* \"#utility.yul\":389:454   */\n      swap1\n      pop\n        /* \"#utility.yul\":334:460   */\n      swap2\n      swap1\n      pop\n      jump\t// out\n        /* \"#utility.yul\":466:562   */\n    tag_107:\n        /* \"#utility.yul\":503:510   */\n      0x00\n        /* \"#utility.yul\":532:556   */\n      tag_140\n        /* \"#utility.yul\":550:555   */\n      dup3\n        /* \"#utility.yul\":532:556   */\n      tag_106\n      jump\t// in\n    tag_140:\n        /* \"#utility.yul\":521:556   */\n      swap1\n      pop\n        /* \"#utility.yul\":466:562   */\n      swap2\n      swap1\n      pop\n      jump\t// out\n        /* \"#utility.yul\":568:690   */\n    tag_108:\n        /* \"#utility.yul\":641:665   */\n      tag_142\n        /* \"#utility.yul\":659:664   */\n      dup2\n        /* \"#utility.yul\":641:665   */\n      tag_107\n      jump\t// in\n    tag_142:\n        /* \"#utility.yul\":634:639   */\n      dup2\n        /* \"#utility.yul\":631:666   */\n      eq\n        /* \"#utility.yul\":621:684   */\n      tag_143\n      jumpi\n        /* \"#utility.yul\":680:681   */\n      0x00\n        /* \"#utility.yul\":677:678   */\n      0x00\n        /* \"#utility.yul\":670:682   */\n      revert\n        /* \"#utility.yul\":621:684   */\n    tag_143:\n        /* \"#utility.yul\":568:690   */\n      pop\n      jump\t// out\n        /* \"#utility.yul\":696:835   */\n    tag_109:\n        /* \"#utility.yul\":742:747   */\n      0x00\n        /* \"#utility.yul\":780:786   */\n      dup2\n        /* \"#utility.yul\":767:787   */\n      calldataload\n        /* \"#utility.yul\":758:787   */\n      swap1\n      pop\n        /* \"#utility.yul\":796:829   */\n      tag_145\n        /* \"#utility.yul\":823:828   */\n      dup2\n        /* \"#utility.yul\":796:829   */\n      tag_108\n      jump\t// in\n    tag_145:\n        /* \"#utility.yul\":696:835   */\n      swap3\n      swap2\n      pop\n      pop\n      jump\t// out\n        /* \"#utility.yul\":841:1170   */\n    tag_15:\n        /* \"#utility.yul\":900:906   */\n      0x00\n        /* \"#utility.yul\":949:951   */\n      0x20\n        /* \"#utility.yul\":937:946   */\n      dup3\n        /* \"#utility.yul\":928:935   */\n      dup5\n        /* \"#utility.yul\":924:947   */\n      sub\n        /* \"#utility.yul\":920:952   */\n      slt\n        /* \"#utility.yul\":917:1036   */\n      iszero\n      tag_147\n      jumpi\n        /* \"#utility.yul\":955:1034   */\n      tag_148\n      tag_104\n      jump\t// in\n    tag_148:\n        /* \"#utility.yul\":917:1036   */\n    tag_147:\n        /* \"#utility.yul\":1075:1076   */\n      0x00\n        /* \"#utility.yul\":1100:1153   */\n      tag_149\n        /* \"#utility.yul\":1145:1152   */\n      dup5\n        /* \"#utility.yul\":1136:1142   */\n      dup3\n        /* \"#utility.yul\":1125:1134   */\n      dup6\n        /* \"#utility.yul\":1121:1143   */\n      add\n        /* \"#utility.yul\":1100:1153   */\n      tag_109\n      jump\t// in\n    tag_149:\n        /* \"#utility.yul\":1090:1153   */\n      swap2\n      pop\n        /* \"#utility.yul\":1046:1163   */\n      pop\n        /* \"#utility.yul\":841:1170   */\n      swap3\n      swap2\n      pop\n      pop\n      jump\t// out\n        /* \"#utility.yul\":1176:1294   */\n    tag_110:\n        /* \"#utility.yul\":1263:1287   */\n      tag_151\n        /* \"#utility.yul\":1281:1286   */\n      dup2\n        /* \"#utility.yul\":1263:1287   */\n      tag_107\n      jump\t// in\n    tag_151:\n        /* \"#utility.yul\":1258:1261   */\n      dup3\n        /* \"#utility.yul\":1251:1288   */\n      mstore\n        /* \"#utility.yul\":1176:1294   */\n      pop\n      pop\n      jump\t// out\n        /* \"#utility.yul\":1300:1522   */\n    tag_20:\n        /* \"#utility.yul\":1393:1397   */\n      0x00\n        /* \"#utility.yul\":1431:1433   */\n      0x20\n        /* \"#utility.yul\":1420:1429   */\n      dup3\n        /* \"#utility.yul\":1416:1434   */\n      add\n        /* \"#utility.yul\":1408:1434   */\n      swap1\n      pop\n        /* \"#utility.yul\":1444:1515   */\n      tag_153\n        /* \"#utility.yul\":1512:1513   */\n      0x00\n        /* \"#utility.yul\":1501:1510   */\n      dup4\n        /* \"#utility.yul\":1497:1514   */\n      add\n        /* \"#utility.yul\":1488:1494   */\n      dup5\n        /* \"#utility.yul\":1444:1515   */\n      tag_110\n      jump\t// in\n    tag_153:\n        /* \"#utility.yul\":1300:1522   */\n      swap3\n      swap2\n      pop\n      pop\n      jump\t// out\n        /* \"#utility.yul\":1528:1605   */\n    tag_111:\n        /* \"#utility.yul\":1565:1572   */\n      0x00\n        /* \"#utility.yul\":1594:1599   */\n      dup2\n        /* \"#utility.yul\":1583:1599   */\n      swap1\n      pop\n        /* \"#utility.yul\":1528:1605   */\n      swap2\n      swap1\n      pop\n      jump\t// out\n        /* \"#utility.yul\":1611:1733   */\n    tag_112:\n        /* \"#utility.yul\":1684:1708   */\n      tag_156\n        /* \"#utility.yul\":1702:1707   */\n      dup2\n        /* \"#utility.yul\":1684:1708   */\n      tag_111\n      jump\t// in\n    tag_156:\n        /* \"#utility.yul\":1677:1682   */\n      dup2\n        /* \"#utility.yul\":1674:1709   */\n      eq\n        /* \"#utility.yul\":1664:1727   */\n      tag_157\n      jumpi\n        /* \"#utility.yul\":1723:1724   */\n      0x00\n        /* \"#utility.yul\":1720:1721   */\n      0x00\n        /* \"#utility.yul\":1713:1725   */\n      revert\n        /* \"#utility.yul\":1664:1727   */\n    tag_157:\n        /* \"#utility.yul\":1611:1733   */\n      pop\n      jump\t// out\n        /* \"#utility.yul\":1739:1878   */\n    tag_113:\n        /* \"#utility.yul\":1785:1790   */\n      0x00\n        /* \"#utility.yul\":1823:1829   */\n      dup2\n        /* \"#utility.yul\":1810:1830   */\n      calldataload\n        /* \"#utility.yul\":1801:1830   */\n      swap1\n      pop\n        /* \"#utility.yul\":1839:1872   */\n      tag_159\n        /* \"#utility.yul\":1866:1871   */\n      dup2\n        /* \"#utility.yul\":1839:1872   */\n      tag_112\n      jump\t// in\n    tag_159:\n        /* \"#utility.yul\":1739:1878   */\n      swap3\n      swap2\n      pop\n      pop\n      jump\t// out\n        /* \"#utility.yul\":1884:2213   */\n    tag_29:\n        /* \"#utility.yul\":1943:1949   */\n      0x00\n        /* \"#utility.yul\":1992:1994   */\n      0x20\n        /* \"#utility.yul\":1980:1989   */\n      dup3\n        /* \"#utility.yul\":1971:1978   */\n      dup5\n        /* \"#utility.yul\":1967:1990   */\n      sub\n        /* \"#utility.yul\":1963:1995   */\n      slt\n        /* \"#utility.yul\":1960:2079   */\n      iszero\n      tag_161\n      jumpi\n        /* \"#utility.yul\":1998:2077   */\n      tag_162\n      tag_104\n      jump\t// in\n    tag_162:\n        /* \"#utility.yul\":1960:2079   */\n    tag_161:\n        /* \"#utility.yul\":2118:2119   */\n      0x00\n        /* \"#utility.yul\":2143:2196   */\n      tag_163\n        /* \"#utility.yul\":2188:2195   */\n      dup5\n        /* \"#utility.yul\":2179:2185   */\n      dup3\n        /* \"#utility.yul\":2168:2177   */\n      dup6\n        /* \"#utility.yul\":2164:2186   */\n      add\n        /* \"#utility.yul\":2143:2196   */\n      tag_113\n      jump\t// in\n    tag_163:\n        /* \"#utility.yul\":2133:2196   */\n      swap2\n      pop\n        /* \"#utility.yul\":2089:2206   */\n      pop\n        /* \"#utility.yul\":1884:2213   */\n      swap3\n      swap2\n      pop\n      pop\n      jump\t// out\n        /* \"#utility.yul\":2219:2309   */\n    tag_114:\n        /* \"#utility.yul\":2253:2260   */\n      0x00\n        /* \"#utility.yul\":2296:2301   */\n      dup2\n        /* \"#utility.yul\":2289:2302   */\n      iszero\n        /* \"#utility.yul\":2282:2303   */\n      iszero\n        /* \"#utility.yul\":2271:2303   */\n      swap1\n      pop\n        /* \"#utility.yul\":2219:2309   */\n      swap2\n      swap1\n      pop\n      jump\t// out\n        /* \"#utility.yul\":2315:2424   */\n    tag_115:\n        /* \"#utility.yul\":2396:2417   */\n      tag_166\n        /* \"#utility.yul\":2411:2416   */\n      dup2\n        /* \"#utility.yul\":2396:2417   */\n      tag_114\n      jump\t// in\n    tag_166:\n        /* \"#utility.yul\":2391:2394   */\n      dup3\n        /* \"#utility.yul\":2384:2418   */\n      mstore\n        /* \"#utility.yul\":2315:2424   */\n      pop\n      pop\n      jump\t// out\n        /* \"#utility.yul\":2430:2548   */\n    tag_116:\n        /* \"#utility.yul\":2517:2541   */\n      tag_168\n        /* \"#utility.yul\":2535:2540   */\n      dup2\n        /* \"#utility.yul\":2517:2541   */\n      tag_111\n      jump\t// in\n    tag_168:\n        /* \"#utility.yul\":2512:2515   */\n      dup3\n        /* \"#utility.yul\":2505:2542   */\n      mstore\n        /* \"#utility.yul\":2430:2548   */\n      pop\n      pop\n      jump\t// out\n        /* \"#utility.yul\":2554:3725   */\n    tag_32:\n        /* \"#utility.yul\":2875:2879   */\n      0x00\n        /* \"#utility.yul\":2913:2916   */\n      0x0140\n        /* \"#utility.yul\":2902:2911   */\n      dup3\n        /* \"#utility.yul\":2898:2917   */\n      add\n        /* \"#utility.yul\":2890:2917   */\n      swap1\n      pop\n        /* \"#utility.yul\":2927:2992   */\n      tag_170\n        /* \"#utility.yul\":2989:2990   */\n      0x00\n        /* \"#utility.yul\":2978:2987   */\n      dup4\n        /* \"#utility.yul\":2974:2991   */\n      add\n        /* \"#utility.yul\":2965:2971   */\n      dup14\n        /* \"#utility.yul\":2927:2992   */\n      tag_115\n      jump\t// in\n    tag_170:\n        /* \"#utility.yul\":3002:3068   */\n      tag_171\n        /* \"#utility.yul\":3064:3066   */\n      0x20\n        /* \"#utility.yul\":3053:3062   */\n      dup4\n        /* \"#utility.yul\":3049:3067   */\n      add\n        /* \"#utility.yul\":3040:3046   */\n      dup13\n        /* \"#utility.yul\":3002:3068   */\n      tag_115\n      jump\t// in\n    tag_171:\n        /* \"#utility.yul\":3078:3144   */\n      tag_172\n        /* \"#utility.yul\":3140:3142   */\n      0x40\n        /* \"#utility.yul\":3129:3138   */\n      dup4\n        /* \"#utility.yul\":3125:3143   */\n      add\n        /* \"#utility.yul\":3116:3122   */\n      dup12\n        /* \"#utility.yul\":3078:3144   */\n      tag_115\n      jump\t// in\n    tag_172:\n        /* \"#utility.yul\":3154:3220   */\n      tag_173\n        /* \"#utility.yul\":3216:3218   */\n      0x60\n        /* \"#utility.yul\":3205:3214   */\n      dup4\n        /* \"#utility.yul\":3201:3219   */\n      add\n        /* \"#utility.yul\":3192:3198   */\n      dup11\n        /* \"#utility.yul\":3154:3220   */\n      tag_115\n      jump\t// in\n    tag_173:\n        /* \"#utility.yul\":3230:3303   */\n      tag_174\n        /* \"#utility.yul\":3298:3301   */\n      0x80\n        /* \"#utility.yul\":3287:3296   */\n      dup4\n        /* \"#utility.yul\":3283:3302   */\n      add\n        /* \"#utility.yul\":3274:3280   */\n      dup10\n        /* \"#utility.yul\":3230:3303   */\n      tag_110\n      jump\t// in\n    tag_174:\n        /* \"#utility.yul\":3313:3386   */\n      tag_175\n        /* \"#utility.yul\":3381:3384   */\n      0xa0\n        /* \"#utility.yul\":3370:3379   */\n      dup4\n        /* \"#utility.yul\":3366:3385   */\n      add\n        /* \"#utility.yul\":3357:3363   */\n      dup9\n        /* \"#utility.yul\":3313:3386   */\n      tag_110\n      jump\t// in\n    tag_175:\n        /* \"#utility.yul\":3396:3469   */\n      tag_176\n        /* \"#utility.yul\":3464:3467   */\n      0xc0\n        /* \"#utility.yul\":3453:3462   */\n      dup4\n        /* \"#utility.yul\":3449:3468   */\n      add\n        /* \"#utility.yul\":3440:3446   */\n      dup8\n        /* \"#utility.yul\":3396:3469   */\n      tag_110\n      jump\t// in\n    tag_176:\n        /* \"#utility.yul\":3479:3552   */\n      tag_177\n        /* \"#utility.yul\":3547:3550   */\n      0xe0\n        /* \"#utility.yul\":3536:3545   */\n      dup4\n        /* \"#utility.yul\":3532:3551   */\n      add\n        /* \"#utility.yul\":3523:3529   */\n      dup7\n        /* \"#utility.yul\":3479:3552   */\n      tag_116\n      jump\t// in\n    tag_177:\n        /* \"#utility.yul\":3562:3635   */\n      tag_178\n        /* \"#utility.yul\":3630:3633   */\n      0x0100\n        /* \"#utility.yul\":3619:3628   */\n      dup4\n        /* \"#utility.yul\":3615:3634   */\n      add\n        /* \"#utility.yul\":3606:3612   */\n      dup6\n        /* \"#utility.yul\":3562:3635   */\n      tag_116\n      jump\t// in\n    tag_178:\n        /* \"#utility.yul\":3645:3718   */\n      tag_179\n        /* \"#utility.yul\":3713:3716   */\n      0x0120\n        /* \"#utility.yul\":3702:3711   */\n      dup4\n        /* \"#utility.yul\":3698:3717   */\n      add\n        /* \"#utility.yul\":3689:3695   */\n      dup5\n        /* \"#utility.yul\":3645:3718   */\n      tag_116\n      jump\t// in\n    tag_179:\n        /* \"#utility.yul\":2554:3725   */\n      swap12\n      swap11\n      pop\n      pop\n      pop\n      pop\n      pop\n      pop\n      pop\n      pop\n      pop\n      pop\n      pop\n      jump\t// out\n        /* \"#utility.yul\":3731:4350   */\n    tag_35:\n        /* \"#utility.yul\":3808:3814   */\n      0x00\n        /* \"#utility.yul\":3816:3822   */\n      0x00\n        /* \"#utility.yul\":3824:3830   */\n      0x00\n        /* \"#utility.yul\":3873:3875   */\n      0x60\n        /* \"#utility.yul\":3861:3870   */\n      dup5\n        /* \"#utility.yul\":3852:3859   */\n      dup7\n        /* \"#utility.yul\":3848:3871   */\n      sub\n        /* \"#utility.yul\":3844:3876   */\n      slt\n        /* \"#utility.yul\":3841:3960   */\n      iszero\n      tag_181\n      jumpi\n        /* \"#utility.yul\":3879:3958   */\n      tag_182\n      tag_104\n      jump\t// in\n    tag_182:\n        /* \"#utility.yul\":3841:3960   */\n    tag_181:\n        /* \"#utility.yul\":3999:4000   */\n      0x00\n        /* \"#utility.yul\":4024:4077   */\n      tag_183\n        /* \"#utility.yul\":4069:4076   */\n      dup7\n        /* \"#utility.yul\":4060:4066   */\n      dup3\n        /* \"#utility.yul\":4049:4058   */\n      dup8\n        /* \"#utility.yul\":4045:4067   */\n      add\n        /* \"#utility.yul\":4024:4077   */\n      tag_109\n      jump\t// in\n    tag_183:\n        /* \"#utility.yul\":4014:4077   */\n      swap4\n      pop\n        /* \"#utility.yul\":3970:4087   */\n      pop\n        /* \"#utility.yul\":4126:4128   */\n      0x20\n        /* \"#utility.yul\":4152:4205   */\n      tag_184\n        /* \"#utility.yul\":4197:4204   */\n      dup7\n        /* \"#utility.yul\":4188:4194   */\n      dup3\n        /* \"#utility.yul\":4177:4186   */\n      dup8\n        /* \"#utility.yul\":4173:4195   */\n      add\n        /* \"#utility.yul\":4152:4205   */\n      tag_113\n      jump\t// in\n    tag_184:\n        /* \"#utility.yul\":4142:4205   */\n      swap3\n      pop\n        /* \"#utility.yul\":4097:4215   */\n      pop\n        /* \"#utility.yul\":4254:4256   */\n      0x40\n        /* \"#utility.yul\":4280:4333   */\n      tag_185\n        /* \"#utility.yul\":4325:4332   */\n      dup7\n        /* \"#utility.yul\":4316:4322   */\n      dup3\n        /* \"#utility.yul\":4305:4314   */\n      dup8\n        /* \"#utility.yul\":4301:4323   */\n      add\n        /* \"#utility.yul\":4280:4333   */\n      tag_113\n      jump\t// in\n    tag_185:\n        /* \"#utility.yul\":4270:4333   */\n      swap2\n      pop\n        /* \"#utility.yul\":4225:4343   */\n      pop\n        /* \"#utility.yul\":3731:4350   */\n      swap3\n      pop\n      swap3\n      pop\n      swap3\n      jump\t// out\n        /* \"#utility.yul\":4356:4525   */\n    tag_117:\n        /* \"#utility.yul\":4440:4451   */\n      0x00\n        /* \"#utility.yul\":4474:4480   */\n      dup3\n        /* \"#utility.yul\":4469:4472   */\n      dup3\n        /* \"#utility.yul\":4462:4481   */\n      mstore\n        /* \"#utility.yul\":4514:4518   */\n      0x20\n        /* \"#utility.yul\":4509:4512   */\n      dup3\n        /* \"#utility.yul\":4505:4519   */\n      add\n        /* \"#utility.yul\":4490:4519   */\n      swap1\n      pop\n        /* \"#utility.yul\":4356:4525   */\n      swap3\n      swap2\n      pop\n      pop\n      jump\t// out\n        /* \"#utility.yul\":4531:4710   */\n    tag_118:\n        /* \"#utility.yul\":4671:4702   */\n      0x4f6e6c79206e6f646520332063616e206368616e676520697473656c66000000\n        /* \"#utility.yul\":4667:4668   */\n      0x00\n        /* \"#utility.yul\":4659:4665   */\n      dup3\n        /* \"#utility.yul\":4655:4669   */\n      add\n        /* \"#utility.yul\":4648:4703   */\n      mstore\n        /* \"#utility.yul\":4531:4710   */\n      pop\n      jump\t// out\n        /* \"#utility.yul\":4716:5082   */\n    tag_119:\n        /* \"#utility.yul\":4858:4861   */\n      0x00\n        /* \"#utility.yul\":4879:4946   */\n      tag_189\n        /* \"#utility.yul\":4943:4945   */\n      0x1d\n        /* \"#utility.yul\":4938:4941   */\n      dup4\n        /* \"#utility.yul\":4879:4946   */\n      tag_117\n      jump\t// in\n    tag_189:\n        /* \"#utility.yul\":4872:4946   */\n      swap2\n      pop\n        /* \"#utility.yul\":4955:5048   */\n      tag_190\n        /* \"#utility.yul\":5044:5047   */\n      dup3\n        /* \"#utility.yul\":4955:5048   */\n      tag_118\n      jump\t// in\n    tag_190:\n        /* \"#utility.yul\":5073:5075   */\n      0x20\n        /* \"#utility.yul\":5068:5071   */\n      dup3\n        /* \"#utility.yul\":5064:5076   */\n      add\n        /* \"#utility.yul\":5057:5076   */\n      swap1\n      pop\n        /* \"#utility.yul\":4716:5082   */\n      swap2\n      swap1\n      pop\n      jump\t// out\n        /* \"#utility.yul\":5088:5507   */\n    tag_49:\n        /* \"#utility.yul\":5254:5258   */\n      0x00\n        /* \"#utility.yul\":5292:5294   */\n      0x20\n        /* \"#utility.yul\":5281:5290   */\n      dup3\n        /* \"#utility.yul\":5277:5295   */\n      add\n        /* \"#utility.yul\":5269:5295   */\n      swap1\n      pop\n        /* \"#utility.yul\":5341:5350   */\n      dup2\n        /* \"#utility.yul\":5335:5339   */\n      dup2\n        /* \"#utility.yul\":5331:5351   */\n      sub\n        /* \"#utility.yul\":5327:5328   */\n      0x00\n        /* \"#utility.yul\":5316:5325   */\n      dup4\n        /* \"#utility.yul\":5312:5329   */\n      add\n        /* \"#utility.yul\":5305:5352   */\n      mstore\n        /* \"#utility.yul\":5369:5500   */\n      tag_192\n        /* \"#utility.yul\":5495:5499   */\n      dup2\n        /* \"#utility.yul\":5369:5500   */\n      tag_119\n      jump\t// in\n    tag_192:\n        /* \"#utility.yul\":5361:5500   */\n      swap1\n      pop\n        /* \"#utility.yul\":5088:5507   */\n      swap2\n      swap1\n      pop\n      jump\t// out\n        /* \"#utility.yul\":5513:5688   */\n    tag_120:\n        /* \"#utility.yul\":5653:5680   */\n      0x5472616e7366657220616c726561647920657865637574656400000000000000\n        /* \"#utility.yul\":5649:5650   */\n      0x00\n        /* \"#utility.yul\":5641:5647   */\n      dup3\n        /* \"#utility.yul\":5637:5651   */\n      add\n        /* \"#utility.yul\":5630:5681   */\n      mstore\n        /* \"#utility.yul\":5513:5688   */\n      pop\n      jump\t// out\n        /* \"#utility.yul\":5694:6060   */\n    tag_121:\n        /* \"#utility.yul\":5836:5839   */\n      0x00\n        /* \"#utility.yul\":5857:5924   */\n      tag_195\n        /* \"#utility.yul\":5921:5923   */\n      0x19\n        /* \"#utility.yul\":5916:5919   */\n      dup4\n        /* \"#utility.yul\":5857:5924   */\n      tag_117\n      jump\t// in\n    tag_195:\n        /* \"#utility.yul\":5850:5924   */\n      swap2\n      pop\n        /* \"#utility.yul\":5933:6026   */\n      tag_196\n        /* \"#utility.yul\":6022:6025   */\n      dup3\n        /* \"#utility.yul\":5933:6026   */\n      tag_120\n      jump\t// in\n    tag_196:\n        /* \"#utility.yul\":6051:6053   */\n      0x20\n        /* \"#utility.yul\":6046:6049   */\n      dup3\n        /* \"#utility.yul\":6042:6054   */\n      add\n        /* \"#utility.yul\":6035:6054   */\n      swap1\n      pop\n        /* \"#utility.yul\":5694:6060   */\n      swap2\n      swap1\n      pop\n      jump\t// out\n        /* \"#utility.yul\":6066:6485   */\n    tag_53:\n        /* \"#utility.yul\":6232:6236   */\n      0x00\n        /* \"#utility.yul\":6270:6272   */\n      0x20\n        /* \"#utility.yul\":6259:6268   */\n      dup3\n        /* \"#utility.yul\":6255:6273   */\n      add\n        /* \"#utility.yul\":6247:6273   */\n      swap1\n      pop\n        /* \"#utility.yul\":6319:6328   */\n      dup2\n        /* \"#utility.yul\":6313:6317   */\n      dup2\n        /* \"#utility.yul\":6309:6329   */\n      sub\n        /* \"#utility.yul\":6305:6306   */\n      0x00\n        /* \"#utility.yul\":6294:6303   */\n      dup4\n        /* \"#utility.yul\":6290:6307   */\n      add\n        /* \"#utility.yul\":6283:6330   */\n      mstore\n        /* \"#utility.yul\":6347:6478   */\n      tag_198\n        /* \"#utility.yul\":6473:6477   */\n      dup2\n        /* \"#utility.yul\":6347:6478   */\n      tag_121\n      jump\t// in\n    tag_198:\n        /* \"#utility.yul\":6339:6478   */\n      swap1\n      pop\n        /* \"#utility.yul\":6066:6485   */\n      swap2\n      swap1\n      pop\n      jump\t// out\n        /* \"#utility.yul\":6491:6665   */\n    tag_122:\n        /* \"#utility.yul\":6631:6657   */\n      0x4e6f6465203120616c726561647920636f6e6669726d65640000000000000000\n        /* \"#utility.yul\":6627:6628   */\n      0x00\n        /* \"#utility.yul\":6619:6625   */\n      dup3\n        /* \"#utility.yul\":6615:6629   */\n      add\n        /* \"#utility.yul\":6608:6658   */\n      mstore\n        /* \"#utility.yul\":6491:6665   */\n      pop\n      jump\t// out\n        /* \"#utility.yul\":6671:7037   */\n    tag_123:\n        /* \"#utility.yul\":6813:6816   */\n      0x00\n        /* \"#utility.yul\":6834:6901   */\n      tag_201\n        /* \"#utility.yul\":6898:6900   */\n      0x18\n        /* \"#utility.yul\":6893:6896   */\n      dup4\n        /* \"#utility.yul\":6834:6901   */\n      tag_117\n      jump\t// in\n    tag_201:\n        /* \"#utility.yul\":6827:6901   */\n      swap2\n      pop\n        /* \"#utility.yul\":6910:7003   */\n      tag_202\n        /* \"#utility.yul\":6999:7002   */\n      dup3\n        /* \"#utility.yul\":6910:7003   */\n      tag_122\n      jump\t// in\n    tag_202:\n        /* \"#utility.yul\":7028:7030   */\n      0x20\n        /* \"#utility.yul\":7023:7026   */\n      dup3\n        /* \"#utility.yul\":7019:7031   */\n      add\n        /* \"#utility.yul\":7012:7031   */\n      swap1\n      pop\n        /* \"#utility.yul\":6671:7037   */\n      swap2\n      swap1\n      pop\n      jump\t// out\n        /* \"#utility.yul\":7043:7462   */\n    tag_57:\n        /* \"#utility.yul\":7209:7213   */\n      0x00\n        /* \"#utility.yul\":7247:7249   */\n      0x20\n        /* \"#utility.yul\":7236:7245   */\n      dup3\n        /* \"#utility.yul\":7232:7250   */\n      add\n        /* \"#utility.yul\":7224:7250   */\n      swap1\n      pop\n        /* \"#utility.yul\":7296:7305   */\n      dup2\n        /* \"#utility.yul\":7290:7294   */\n      dup2\n        /* \"#utility.yul\":7286:7306   */\n      sub\n        /* \"#utility.yul\":7282:7283   */\n      0x00\n        /* \"#utility.yul\":7271:7280   */\n      dup4\n        /* \"#utility.yul\":7267:7284   */\n      add\n        /* \"#utility.yul\":7260:7307   */\n      mstore\n        /* \"#utility.yul\":7324:7455   */\n      tag_204\n        /* \"#utility.yul\":7450:7454   */\n      dup2\n        /* \"#utility.yul\":7324:7455   */\n      tag_123\n      jump\t// in\n    tag_204:\n        /* \"#utility.yul\":7316:7455   */\n      swap1\n      pop\n        /* \"#utility.yul\":7043:7462   */\n      swap2\n      swap1\n      pop\n      jump\t// out\n        /* \"#utility.yul\":7468:7642   */\n    tag_124:\n        /* \"#utility.yul\":7608:7634   */\n      0x4e6f6465203220616c726561647920636f6e6669726d65640000000000000000\n        /* \"#utility.yul\":7604:7605   */\n      0x00\n        /* \"#utility.yul\":7596:7602   */\n      dup3\n        /* \"#utility.yul\":7592:7606   */\n      add\n        /* \"#utility.yul\":7585:7635   */\n      mstore\n        /* \"#utility.yul\":7468:7642   */\n      pop\n      jump\t// out\n        /* \"#utility.yul\":7648:8014   */\n    tag_125:\n        /* \"#utility.yul\":7790:7793   */\n      0x00\n        /* \"#utility.yul\":7811:7878   */\n      tag_207\n        /* \"#utility.yul\":7875:7877   */\n      0x18\n        /* \"#utility.yul\":7870:7873   */\n      dup4\n        /* \"#utility.yul\":7811:7878   */\n      tag_117\n      jump\t// in\n    tag_207:\n        /* \"#utility.yul\":7804:7878   */\n      swap2\n      pop\n        /* \"#utility.yul\":7887:7980   */\n      tag_208\n        /* \"#utility.yul\":7976:7979   */\n      dup3\n        /* \"#utility.yul\":7887:7980   */\n      tag_124\n      jump\t// in\n    tag_208:\n        /* \"#utility.yul\":8005:8007   */\n      0x20\n        /* \"#utility.yul\":8000:8003   */\n      dup3\n        /* \"#utility.yul\":7996:8008   */\n      add\n        /* \"#utility.yul\":7989:8008   */\n      swap1\n      pop\n        /* \"#utility.yul\":7648:8014   */\n      swap2\n      swap1\n      pop\n      jump\t// out\n        /* \"#utility.yul\":8020:8439   */\n    tag_62:\n        /* \"#utility.yul\":8186:8190   */\n      0x00\n        /* \"#utility.yul\":8224:8226   */\n      0x20\n        /* \"#utility.yul\":8213:8222   */\n      dup3\n        /* \"#utility.yul\":8209:8227   */\n      add\n        /* \"#utility.yul\":8201:8227   */\n      swap1\n      pop\n        /* \"#utility.yul\":8273:8282   */\n      dup2\n        /* \"#utility.yul\":8267:8271   */\n      dup2\n        /* \"#utility.yul\":8263:8283   */\n      sub\n        /* \"#utility.yul\":8259:8260   */\n      0x00\n        /* \"#utility.yul\":8248:8257   */\n      dup4\n        /* \"#utility.yul\":8244:8261   */\n      add\n        /* \"#utility.yul\":8237:8284   */\n      mstore\n        /* \"#utility.yul\":8301:8432   */\n      tag_210\n        /* \"#utility.yul\":8427:8431   */\n      dup2\n        /* \"#utility.yul\":8301:8432   */\n      tag_125\n      jump\t// in\n    tag_210:\n        /* \"#utility.yul\":8293:8432   */\n      swap1\n      pop\n        /* \"#utility.yul\":8020:8439   */\n      swap2\n      swap1\n      pop\n      jump\t// out\n        /* \"#utility.yul\":8445:8619   */\n    tag_126:\n        /* \"#utility.yul\":8585:8611   */\n      0x4e6f6465203320616c726561647920636f6e6669726d65640000000000000000\n        /* \"#utility.yul\":8581:8582   */\n      0x00\n        /* \"#utility.yul\":8573:8579   */\n      dup3\n        /* \"#utility.yul\":8569:8583   */\n      add\n        /* \"#utility.yul\":8562:8612   */\n      mstore\n        /* \"#utility.yul\":8445:8619   */\n      pop\n      jump\t// out\n        /* \"#utility.yul\":8625:8991   */\n    tag_127:\n        /* \"#utility.yul\":8767:8770   */\n      0x00\n        /* \"#utility.yul\":8788:8855   */\n      tag_213\n        /* \"#utility.yul\":8852:8854   */\n      0x18\n        /* \"#utility.yul\":8847:8850   */\n      dup4\n        /* \"#utility.yul\":8788:8855   */\n      tag_117\n      jump\t// in\n    tag_213:\n        /* \"#utility.yul\":8781:8855   */\n      swap2\n      pop\n        /* \"#utility.yul\":8864:8957   */\n      tag_214\n        /* \"#utility.yul\":8953:8956   */\n      dup3\n        /* \"#utility.yul\":8864:8957   */\n      tag_126\n      jump\t// in\n    tag_214:\n        /* \"#utility.yul\":8982:8984   */\n      0x20\n        /* \"#utility.yul\":8977:8980   */\n      dup3\n        /* \"#utility.yul\":8973:8985   */\n      add\n        /* \"#utility.yul\":8966:8985   */\n      swap1\n      pop\n        /* \"#utility.yul\":8625:8991   */\n      swap2\n      swap1\n      pop\n      jump\t// out\n        /* \"#utility.yul\":8997:9416   */\n    tag_67:\n        /* \"#utility.yul\":9163:9167   */\n      0x00\n        /* \"#utility.yul\":9201:9203   */\n      0x20\n        /* \"#utility.yul\":9190:9199   */\n      dup3\n        /* \"#utility.yul\":9186:9204   */\n      add\n        /* \"#utility.yul\":9178:9204   */\n      swap1\n      pop\n        /* \"#utility.yul\":9250:9259   */\n      dup2\n        /* \"#utility.yul\":9244:9248   */\n      dup2\n        /* \"#utility.yul\":9240:9260   */\n      sub\n        /* \"#utility.yul\":9236:9237   */\n      0x00\n        /* \"#utility.yul\":9225:9234   */\n      dup4\n        /* \"#utility.yul\":9221:9238   */\n      add\n        /* \"#utility.yul\":9214:9261   */\n      mstore\n        /* \"#utility.yul\":9278:9409   */\n      tag_216\n        /* \"#utility.yul\":9404:9408   */\n      dup2\n        /* \"#utility.yul\":9278:9409   */\n      tag_127\n      jump\t// in\n    tag_216:\n        /* \"#utility.yul\":9270:9409   */\n      swap1\n      pop\n        /* \"#utility.yul\":8997:9416   */\n      swap2\n      swap1\n      pop\n      jump\t// out\n        /* \"#utility.yul\":9422:9642   */\n    tag_128:\n        /* \"#utility.yul\":9562:9596   */\n      0x4f6e6c792066656465726174696f6e206e6f6465732063616e20636f6e666972\n        /* \"#utility.yul\":9558:9559   */\n      0x00\n        /* \"#utility.yul\":9550:9556   */\n      dup3\n        /* \"#utility.yul\":9546:9560   */\n      add\n        /* \"#utility.yul\":9539:9597   */\n      mstore\n        /* \"#utility.yul\":9631:9634   */\n      0x6d00000000000000000000000000000000000000000000000000000000000000\n        /* \"#utility.yul\":9626:9628   */\n      0x20\n        /* \"#utility.yul\":9618:9624   */\n      dup3\n        /* \"#utility.yul\":9614:9629   */\n      add\n        /* \"#utility.yul\":9607:9635   */\n      mstore\n        /* \"#utility.yul\":9422:9642   */\n      pop\n      jump\t// out\n        /* \"#utility.yul\":9648:10014   */\n    tag_129:\n        /* \"#utility.yul\":9790:9793   */\n      0x00\n        /* \"#utility.yul\":9811:9878   */\n      tag_219\n        /* \"#utility.yul\":9875:9877   */\n      0x21\n        /* \"#utility.yul\":9870:9873   */\n      dup4\n        /* \"#utility.yul\":9811:9878   */\n      tag_117\n      jump\t// in\n    tag_219:\n        /* \"#utility.yul\":9804:9878   */\n      swap2\n      pop\n        /* \"#utility.yul\":9887:9980   */\n      tag_220\n        /* \"#utility.yul\":9976:9979   */\n      dup3\n        /* \"#utility.yul\":9887:9980   */\n      tag_128\n      jump\t// in\n    tag_220:\n        /* \"#utility.yul\":10005:10007   */\n      0x40\n        /* \"#utility.yul\":10000:10003   */\n      dup3\n        /* \"#utility.yul\":9996:10008   */\n      add\n        /* \"#utility.yul\":9989:10008   */\n      swap1\n      pop\n        /* \"#utility.yul\":9648:10014   */\n      swap2\n      swap1\n      pop\n      jump\t// out\n        /* \"#utility.yul\":10020:10439   */\n    tag_70:\n        /* \"#utility.yul\":10186:10190   */\n      0x00\n        /* \"#utility.yul\":10224:10226   */\n      0x20\n        /* \"#utility.yul\":10213:10222   */\n      dup3\n        /* \"#utility.yul\":10209:10227   */\n      add\n        /* \"#utility.yul\":10201:10227   */\n      swap1\n      pop\n        /* \"#utility.yul\":10273:10282   */\n      dup2\n        /* \"#utility.yul\":10267:10271   */\n      dup2\n        /* \"#utility.yul\":10263:10283   */\n      sub\n        /* \"#utility.yul\":10259:10260   */\n      0x00\n        /* \"#utility.yul\":10248:10257   */\n      dup4\n        /* \"#utility.yul\":10244:10261   */\n      add\n        /* \"#utility.yul\":10237:10284   */\n      mstore\n        /* \"#utility.yul\":10301:10432   */\n      tag_222\n        /* \"#utility.yul\":10427:10431   */\n      dup2\n        /* \"#utility.yul\":10301:10432   */\n      tag_129\n      jump\t// in\n    tag_222:\n        /* \"#utility.yul\":10293:10432   */\n      swap1\n      pop\n        /* \"#utility.yul\":10020:10439   */\n      swap2\n      swap1\n      pop\n      jump\t// out\n        /* \"#utility.yul\":10445:10777   */\n    tag_72:\n        /* \"#utility.yul\":10566:10570   */\n      0x00\n        /* \"#utility.yul\":10604:10606   */\n      0x40\n        /* \"#utility.yul\":10593:10602   */\n      dup3\n        /* \"#utility.yul\":10589:10607   */\n      add\n        /* \"#utility.yul\":10581:10607   */\n      swap1\n      pop\n        /* \"#utility.yul\":10617:10688   */\n      tag_224\n        /* \"#utility.yul\":10685:10686   */\n      0x00\n        /* \"#utility.yul\":10674:10683   */\n      dup4\n        /* \"#utility.yul\":10670:10687   */\n      add\n        /* \"#utility.yul\":10661:10667   */\n      dup6\n        /* \"#utility.yul\":10617:10688   */\n      tag_116\n      jump\t// in\n    tag_224:\n        /* \"#utility.yul\":10698:10770   */\n      tag_225\n        /* \"#utility.yul\":10766:10768   */\n      0x20\n        /* \"#utility.yul\":10755:10764   */\n      dup4\n        /* \"#utility.yul\":10751:10769   */\n      add\n        /* \"#utility.yul\":10742:10748   */\n      dup5\n        /* \"#utility.yul\":10698:10770   */\n      tag_116\n      jump\t// in\n    tag_225:\n        /* \"#utility.yul\":10445:10777   */\n      swap4\n      swap3\n      pop\n      pop\n      pop\n      jump\t// out\n        /* \"#utility.yul\":10783:11115   */\n    tag_77:\n        /* \"#utility.yul\":10904:10908   */\n      0x00\n        /* \"#utility.yul\":10942:10944   */\n      0x40\n        /* \"#utility.yul\":10931:10940   */\n      dup3\n        /* \"#utility.yul\":10927:10945   */\n      add\n        /* \"#utility.yul\":10919:10945   */\n      swap1\n      pop\n        /* \"#utility.yul\":10955:11026   */\n      tag_227\n        /* \"#utility.yul\":11023:11024   */\n      0x00\n        /* \"#utility.yul\":11012:11021   */\n      dup4\n        /* \"#utility.yul\":11008:11025   */\n      add\n        /* \"#utility.yul\":10999:11005   */\n      dup6\n        /* \"#utility.yul\":10955:11026   */\n      tag_110\n      jump\t// in\n    tag_227:\n        /* \"#utility.yul\":11036:11108   */\n      tag_228\n        /* \"#utility.yul\":11104:11106   */\n      0x20\n        /* \"#utility.yul\":11093:11102   */\n      dup4\n        /* \"#utility.yul\":11089:11107   */\n      add\n        /* \"#utility.yul\":11080:11086   */\n      dup5\n        /* \"#utility.yul\":11036:11108   */\n      tag_116\n      jump\t// in\n    tag_228:\n        /* \"#utility.yul\":10783:11115   */\n      swap4\n      swap3\n      pop\n      pop\n      pop\n      jump\t// out\n        /* \"#utility.yul\":11121:11300   */\n    tag_130:\n        /* \"#utility.yul\":11261:11292   */\n      0x4f6e6c79206e6f646520322063616e206368616e676520697473656c66000000\n        /* \"#utility.yul\":11257:11258   */\n      0x00\n        /* \"#utility.yul\":11249:11255   */\n      dup3\n        /* \"#utility.yul\":11245:11259   */\n      add\n        /* \"#utility.yul\":11238:11293   */\n      mstore\n        /* \"#utility.yul\":11121:11300   */\n      pop\n      jump\t// out\n        /* \"#utility.yul\":11306:11672   */\n    tag_131:\n        /* \"#utility.yul\":11448:11451   */\n      0x00\n        /* \"#utility.yul\":11469:11536   */\n      tag_231\n        /* \"#utility.yul\":11533:11535   */\n      0x1d\n        /* \"#utility.yul\":11528:11531   */\n      dup4\n        /* \"#utility.yul\":11469:11536   */\n      tag_117\n      jump\t// in\n    tag_231:\n        /* \"#utility.yul\":11462:11536   */\n      swap2\n      pop\n        /* \"#utility.yul\":11545:11638   */\n      tag_232\n        /* \"#utility.yul\":11634:11637   */\n      dup3\n        /* \"#utility.yul\":11545:11638   */\n      tag_130\n      jump\t// in\n    tag_232:\n        /* \"#utility.yul\":11663:11665   */\n      0x20\n        /* \"#utility.yul\":11658:11661   */\n      dup3\n        /* \"#utility.yul\":11654:11666   */\n      add\n        /* \"#utility.yul\":11647:11666   */\n      swap1\n      pop\n        /* \"#utility.yul\":11306:11672   */\n      swap2\n      swap1\n      pop\n      jump\t// out\n        /* \"#utility.yul\":11678:12097   */\n    tag_85:\n        /* \"#utility.yul\":11844:11848   */\n      0x00\n        /* \"#utility.yul\":11882:11884   */\n      0x20\n        /* \"#utility.yul\":11871:11880   */\n      dup3\n        /* \"#utility.yul\":11867:11885   */\n      add\n        /* \"#utility.yul\":11859:11885   */\n      swap1\n      pop\n        /* \"#utility.yul\":11931:11940   */\n      dup2\n        /* \"#utility.yul\":11925:11929   */\n      dup2\n        /* \"#utility.yul\":11921:11941   */\n      sub\n        /* \"#utility.yul\":11917:11918   */\n      0x00\n        /* \"#utility.yul\":11906:11915   */\n      dup4\n        /* \"#utility.yul\":11902:11919   */\n      add\n        /* \"#utility.yul\":11895:11942   */\n      mstore\n        /* \"#utility.yul\":11959:12090   */\n      tag_234\n        /* \"#utility.yul\":12085:12089   */\n      dup2\n        /* \"#utility.yul\":11959:12090   */\n      tag_131\n      jump\t// in\n    tag_234:\n        /* \"#utility.yul\":11951:12090   */\n      swap1\n      pop\n        /* \"#utility.yul\":11678:12097   */\n      swap2\n      swap1\n      pop\n      jump\t// out\n        /* \"#utility.yul\":12103:12282   */\n    tag_132:\n        /* \"#utility.yul\":12243:12274   */\n      0x4f6e6c79206e6f646520312063616e206368616e676520697473656c66000000\n        /* \"#utility.yul\":12239:12240   */\n      0x00\n        /* \"#utility.yul\":12231:12237   */\n      dup3\n        /* \"#utility.yul\":12227:12241   */\n      add\n        /* \"#utility.yul\":12220:12275   */\n      mstore\n        /* \"#utility.yul\":12103:12282   */\n      pop\n      jump\t// out\n        /* \"#utility.yul\":12288:12654   */\n    tag_133:\n        /* \"#utility.yul\":12430:12433   */\n      0x00\n        /* \"#utility.yul\":12451:12518   */\n      tag_237\n        /* \"#utility.yul\":12515:12517   */\n      0x1d\n        /* \"#utility.yul\":12510:12513   */\n      dup4\n        /* \"#utility.yul\":12451:12518   */\n      tag_117\n      jump\t// in\n    tag_237:\n        /* \"#utility.yul\":12444:12518   */\n      swap2\n      pop\n        /* \"#utility.yul\":12527:12620   */\n      tag_238\n        /* \"#utility.yul\":12616:12619   */\n      dup3\n        /* \"#utility.yul\":12527:12620   */\n      tag_132\n      jump\t// in\n    tag_238:\n        /* \"#utility.yul\":12645:12647   */\n      0x20\n        /* \"#utility.yul\":12640:12643   */\n      dup3\n        /* \"#utility.yul\":12636:12648   */\n      add\n        /* \"#utility.yul\":12629:12648   */\n      swap1\n      pop\n        /* \"#utility.yul\":12288:12654   */\n      swap2\n      swap1\n      pop\n      jump\t// out\n        /* \"#utility.yul\":12660:13079   */\n    tag_89:\n        /* \"#utility.yul\":12826:12830   */\n      0x00\n        /* \"#utility.yul\":12864:12866   */\n      0x20\n        /* \"#utility.yul\":12853:12862   */\n      dup3\n        /* \"#utility.yul\":12849:12867   */\n      add\n        /* \"#utility.yul\":12841:12867   */\n      swap1\n      pop\n        /* \"#utility.yul\":12913:12922   */\n      dup2\n        /* \"#utility.yul\":12907:12911   */\n      dup2\n        /* \"#utility.yul\":12903:12923   */\n      sub\n        /* \"#utility.yul\":12899:12900   */\n      0x00\n        /* \"#utility.yul\":12888:12897   */\n      dup4\n        /* \"#utility.yul\":12884:12901   */\n      add\n        /* \"#utility.yul\":12877:12924   */\n      mstore\n        /* \"#utility.yul\":12941:13072   */\n      tag_240\n        /* \"#utility.yul\":13067:13071   */\n      dup2\n        /* \"#utility.yul\":12941:13072   */\n      tag_133\n      jump\t// in\n    tag_240:\n        /* \"#utility.yul\":12933:13072   */\n      swap1\n      pop\n        /* \"#utility.yul\":12660:13079   */\n      swap2\n      swap1\n      pop\n      jump\t// out\n\n    auxdata: 0xa2646970667358221220304cb6d49f6d1e70360f10122ef71a345e1bd48055470e49df8648f2cd797d0064736f6c63430008200033\n}\n",
				"bytecode": {
					"linkReferences": {},
					"object": "608060405234801561000f575f5ffd5b5060405161168938038061168983398181016040528101906100319190610197565b835f5f6101000a81548173ffffffffffffffffffffffffffffffffffffffff021916908373ffffffffffffffffffffffffffffffffffffffff1602179055508260015f6101000a81548173ffffffffffffffffffffffffffffffffffffffff021916908373ffffffffffffffffffffffffffffffffffffffff1602179055508160025f6101000a81548173ffffffffffffffffffffffffffffffffffffffff021916908373ffffffffffffffffffffffffffffffffffffffff1602179055508060035f6101000a81548173ffffffffffffffffffffffffffffffffffffffff021916908373ffffffffffffffffffffffffffffffffffffffff160217905550505050506101fb565b5f5ffd5b5f73ffffffffffffffffffffffffffffffffffffffff82169050919050565b5f6101668261013d565b9050919050565b6101768161015c565b8114610180575f5ffd5b50565b5f815190506101918161016d565b92915050565b5f5f5f5f608085870312156101af576101ae610139565b5b5f6101bc87828801610183565b94505060206101cd87828801610183565b93505060406101de87828801610183565b92505060606101ef87828801610183565b91505092959194509250565b611481806102085f395ff3fe608060405234801561000f575f5ffd5b5060043610610091575f3560e01c806381d12c581161006457806381d12c581461010b57806386e74f1e146101445780639959e54114610160578063cd5965831461017c578063dc6e07371461019a57610091565b80630562099a146100955780630c020914146100b15780635e080a07146100cf5780636453aded146100ed575b5f5ffd5b6100af60048036038101906100aa9190610ec3565b6101b6565b005b6100b96102e4565b6040516100c69190610efd565b60405180910390f35b6100d7610309565b6040516100e49190610efd565b60405180910390f35b6100f561032d565b6040516101029190610efd565b60405180910390f35b61012560048036038101906101209190610f49565b610352565b60405161013b9a99989796959493929190610f9d565b60405180910390f35b61015e60048036038101906101599190611037565b61042f565b005b61017a60048036038101906101759190610ec3565b610972565b005b610184610aa0565b6040516101919190610efd565b60405180910390f35b6101b460048036038101906101af9190610ec3565b610ac5565b005b60025f9054906101000a900473ffffffffffffffffffffffffffffffffffffffff1673ffffffffffffffffffffffffffffffffffffffff163373ffffffffffffffffffffffffffffffffffffffff1614610245576040517f08c379a000000000000000000000000000000000000000000000000000000000815260040161023c906110e1565b60405180910390fd5b8060025f6101000a81548173ffffffffffffffffffffffffffffffffffffffff021916908373ffffffffffffffffffffffffffffffffffffffff1602179055508073ffffffffffffffffffffffffffffffffffffffff163373ffffffffffffffffffffffffffffffffffffffff1660037ff5becf5ef6bf281ea3c4f617c266a872c7662757c90aa5f5cdffe02bd202397560405160405180910390a450565b60015f9054906101000a900473ffffffffffffffffffffffffffffffffffffffff1681565b5f5f9054906101000a900473ffffffffffffffffffffffffffffffffffffffff1681565b60025f9054906101000a900473ffffffffffffffffffffffffffffffffffffffff1681565b6004602052805f5260405f205f91509050805f015f9054906101000a900460ff1690805f0160019054906101000a900460ff1690805f0160029054906101000a900460ff1690805f0160039054906101000a900460ff1690805f0160049054906101000a900473ffffffffffffffffffffffffffffffffffffffff1690806001015f9054906101000a900473ffffffffffffffffffffffffffffffffffffffff1690806002015f9054906101000a900473ffffffffffffffffffffffffffffffffffffffff1690806003015490806004015490806005015490508a565b5f60045f8381526020019081526020015f209050805f015f9054906101000a900460ff1615610493576040517f08c379a000000000000000000000000000000000000000000000000000000000815260040161048a90611149565b60405180910390fd5b5f5f9054906101000a900473ffffffffffffffffffffffffffffffffffffffff1673ffffffffffffffffffffffffffffffffffffffff163373ffffffffffffffffffffffffffffffffffffffff16036105a357805f0160019054906101000a900460ff1615610537576040517f08c379a000000000000000000000000000000000000000000000000000000000815260040161052e906111b1565b60405180910390fd5b6001815f0160016101000a81548160ff02191690831515021790555083815f0160046101000a81548173ffffffffffffffffffffffffffffffffffffffff021916908373ffffffffffffffffffffffffffffffffffffffff160217905550828160030181905550610802565b60015f9054906101000a900473ffffffffffffffffffffffffffffffffffffffff1673ffffffffffffffffffffffffffffffffffffffff163373ffffffffffffffffffffffffffffffffffffffff16036106b457805f0160029054906101000a900460ff1615610648576040517f08c379a000000000000000000000000000000000000000000000000000000000815260040161063f90611219565b60405180910390fd5b6001815f0160026101000a81548160ff02191690831515021790555083816001015f6101000a81548173ffffffffffffffffffffffffffffffffffffffff021916908373ffffffffffffffffffffffffffffffffffffffff160217905550828160040181905550610801565b60025f9054906101000a900473ffffffffffffffffffffffffffffffffffffffff1673ffffffffffffffffffffffffffffffffffffffff163373ffffffffffffffffffffffffffffffffffffffff16036107c557805f0160039054906101000a900460ff1615610759576040517f08c379a000000000000000000000000000000000000000000000000000000000815260040161075090611281565b60405180910390fd5b6001815f0160036101000a81548160ff02191690831515021790555083816002015f6101000a81548173ffffffffffffffffffffffffffffffffffffffff021916908373ffffffffffffffffffffffffffffffffffffffff160217905550828160050181905550610800565b6040517f08c379a00000000000000000000000000000000000000000000000000000000081526004016107f79061130f565b60405180910390fd5b5b5b8373ffffffffffffffffffffffffffffffffffffffff163373ffffffffffffffffffffffffffffffffffffffff167f6718bbbc3a1333e921501591df5fe974bd1de1e3dc5498203221a126967067b8858560405161086192919061132d565b60405180910390a361087282610bf1565b1561096c576001815f015f6101000a81548160ff02191690831515021790555060035f9054906101000a900473ffffffffffffffffffffffffffffffffffffffff1673ffffffffffffffffffffffffffffffffffffffff166369ca02dd85856040518363ffffffff1660e01b81526004016108ee929190611354565b5f604051808303815f87803b158015610905575f5ffd5b505af1158015610917573d5f5f3e3d5ffd5b505050508373ffffffffffffffffffffffffffffffffffffffff167ff8d62a11d316e69c1460662f86b7046003826db86fdc0d5ffa8c3adaa24f0a58848460405161096392919061132d565b60405180910390a25b50505050565b60015f9054906101000a900473ffffffffffffffffffffffffffffffffffffffff1673ffffffffffffffffffffffffffffffffffffffff163373ffffffffffffffffffffffffffffffffffffffff1614610a01576040517f08c379a00000000000000000000000000000000000000000000000000000000081526004016109f8906113c5565b60405180910390fd5b8060015f6101000a81548173ffffffffffffffffffffffffffffffffffffffff021916908373ffffffffffffffffffffffffffffffffffffffff1602179055508073ffffffffffffffffffffffffffffffffffffffff163373ffffffffffffffffffffffffffffffffffffffff1660027ff5becf5ef6bf281ea3c4f617c266a872c7662757c90aa5f5cdffe02bd202397560405160405180910390a450565b60035f9054906101000a900473ffffffffffffffffffffffffffffffffffffffff1681565b5f5f9054906101000a900473ffffffffffffffffffffffffffffffffffffffff1673ffffffffffffffffffffffffffffffffffffffff163373ffffffffffffffffffffffffffffffffffffffff1614610b53576040517f08c379a0000000000000000000000000000000000000000000000000000000008152600401610b4a9061142d565b60405180910390fd5b805f5f6101000a81548173ffffffffffffffffffffffffffffffffffffffff021916908373ffffffffffffffffffffffffffffffffffffffff1602179055508073ffffffffffffffffffffffffffffffffffffffff163373ffffffffffffffffffffffffffffffffffffffff1660017ff5becf5ef6bf281ea3c4f617c266a872c7662757c90aa5f5cdffe02bd202397560405160405180910390a450565b5f5f60045f8481526020019081526020015f209050805f0160019054906101000a900460ff168015610c305750805f0160029054906101000a900460ff165b15610ccd57806001015f9054906101000a900473ffffffffffffffffffffffffffffffffffffffff1673ffffffffffffffffffffffffffffffffffffffff16815f0160049054906101000a900473ffffffffffffffffffffffffffffffffffffffff1673ffffffffffffffffffffffffffffffffffffffff16148015610cbd575080600401548160030154145b15610ccc576001915050610e60565b5b805f0160019054906101000a900460ff168015610cf75750805f0160039054906101000a900460ff165b15610d9457806002015f9054906101000a900473ffffffffffffffffffffffffffffffffffffffff1673ffffffffffffffffffffffffffffffffffffffff16815f0160049054906101000a900473ffffffffffffffffffffffffffffffffffffffff1673ffffffffffffffffffffffffffffffffffffffff16148015610d84575080600501548160030154145b15610d93576001915050610e60565b5b805f0160029054906101000a900460ff168015610dbe5750805f0160039054906101000a900460ff165b15610e5b57806002015f9054906101000a900473ffffffffffffffffffffffffffffffffffffffff1673ffffffffffffffffffffffffffffffffffffffff16816001015f9054906101000a900473ffffffffffffffffffffffffffffffffffffffff1673ffffffffffffffffffffffffffffffffffffffff16148015610e4b575080600501548160040154145b15610e5a576001915050610e60565b5b5f9150505b919050565b5f5ffd5b5f73ffffffffffffffffffffffffffffffffffffffff82169050919050565b5f610e9282610e69565b9050919050565b610ea281610e88565b8114610eac575f5ffd5b50565b5f81359050610ebd81610e99565b92915050565b5f60208284031215610ed857610ed7610e65565b5b5f610ee584828501610eaf565b91505092915050565b610ef781610e88565b82525050565b5f602082019050610f105f830184610eee565b92915050565b5f819050919050565b610f2881610f16565b8114610f32575f5ffd5b50565b5f81359050610f4381610f1f565b92915050565b5f60208284031215610f5e57610f5d610e65565b5b5f610f6b84828501610f35565b91505092915050565b5f8115159050919050565b610f8881610f74565b82525050565b610f9781610f16565b82525050565b5f61014082019050610fb15f83018d610f7f565b610fbe602083018c610f7f565b610fcb604083018b610f7f565b610fd8606083018a610f7f565b610fe56080830189610eee565b610ff260a0830188610eee565b610fff60c0830187610eee565b61100c60e0830186610f8e565b61101a610100830185610f8e565b611028610120830184610f8e565b9b9a5050505050505050505050565b5f5f5f6060848603121561104e5761104d610e65565b5b5f61105b86828701610eaf565b935050602061106c86828701610f35565b925050604061107d86828701610f35565b9150509250925092565b5f82825260208201905092915050565b7f4f6e6c79206e6f646520332063616e206368616e676520697473656c660000005f82015250565b5f6110cb601d83611087565b91506110d682611097565b602082019050919050565b5f6020820190508181035f8301526110f8816110bf565b9050919050565b7f5472616e7366657220616c7265616479206578656375746564000000000000005f82015250565b5f611133601983611087565b915061113e826110ff565b602082019050919050565b5f6020820190508181035f83015261116081611127565b9050919050565b7f4e6f6465203120616c726561647920636f6e6669726d656400000000000000005f82015250565b5f61119b601883611087565b91506111a682611167565b602082019050919050565b5f6020820190508181035f8301526111c88161118f565b9050919050565b7f4e6f6465203220616c726561647920636f6e6669726d656400000000000000005f82015250565b5f611203601883611087565b915061120e826111cf565b602082019050919050565b5f6020820190508181035f830152611230816111f7565b9050919050565b7f4e6f6465203320616c726561647920636f6e6669726d656400000000000000005f82015250565b5f61126b601883611087565b915061127682611237565b602082019050919050565b5f6020820190508181035f8301526112988161125f565b9050919050565b7f4f6e6c792066656465726174696f6e206e6f6465732063616e20636f6e6669725f8201527f6d00000000000000000000000000000000000000000000000000000000000000602082015250565b5f6112f9602183611087565b91506113048261129f565b604082019050919050565b5f6020820190508181035f830152611326816112ed565b9050919050565b5f6040820190506113405f830185610f8e565b61134d6020830184610f8e565b9392505050565b5f6040820190506113675f830185610eee565b6113746020830184610f8e565b9392505050565b7f4f6e6c79206e6f646520322063616e206368616e676520697473656c660000005f82015250565b5f6113af601d83611087565b91506113ba8261137b565b602082019050919050565b5f6020820190508181035f8301526113dc816113a3565b9050919050565b7f4f6e6c79206e6f646520312063616e206368616e676520697473656c660000005f82015250565b5f611417601d83611087565b9150611422826113e3565b602082019050919050565b5f6020820190508181035f8301526114448161140b565b905091905056fea2646970667358221220304cb6d49f6d1e70360f10122ef71a345e1bd48055470e49df8648f2cd797d0064736f6c63430008200033",
					"opcodes": "PUSH1 0x80 PUSH1 0x40 MSTORE CALLVALUE DUP1 ISZERO PUSH2 0xF JUMPI PUSH0 PUSH0 REVERT JUMPDEST POP PUSH1 0x40 MLOAD PUSH2 0x1689 CODESIZE SUB DUP1 PUSH2 0x1689 DUP4 CODECOPY DUP2 DUP2 ADD PUSH1 0x40 MSTORE DUP2 ADD SWAP1 PUSH2 0x31 SWAP2 SWAP1 PUSH2 0x197 JUMP JUMPDEST DUP4 PUSH0 PUSH0 PUSH2 0x100 EXP DUP2 SLOAD DUP2 PUSH20 0xFFFFFFFFFFFFFFFFFFFFFFFFFFFFFFFFFFFFFFFF MUL NOT AND SWAP1 DUP4 PUSH20 0xFFFFFFFFFFFFFFFFFFFFFFFFFFFFFFFFFFFFFFFF AND MUL OR SWAP1 SSTORE POP DUP3 PUSH1 0x1 PUSH0 PUSH2 0x100 EXP DUP2 SLOAD DUP2 PUSH20 0xFFFFFFFFFFFFFFFFFFFFFFFFFFFFFFFFFFFFFFFF MUL NOT AND SWAP1 DUP4 PUSH20 0xFFFFFFFFFFFFFFFFFFFFFFFFFFFFFFFFFFFFFFFF AND MUL OR SWAP1 SSTORE POP DUP2 PUSH1 0x2 PUSH0 PUSH2 0x100 EXP DUP2 SLOAD DUP2 PUSH20 0xFFFFFFFFFFFFFFFFFFFFFFFFFFFFFFFFFFFFFFFF MUL NOT AND SWAP1 DUP4 PUSH20 0xFFFFFFFFFFFFFFFFFFFFFFFFFFFFFFFFFFFFFFFF AND MUL OR SWAP1 SSTORE POP DUP1 PUSH1 0x3 PUSH0 PUSH2 0x100 EXP DUP2 SLOAD DUP2 PUSH20 0xFFFFFFFFFFFFFFFFFFFFFFFFFFFFFFFFFFFFFFFF MUL NOT AND SWAP1 DUP4 PUSH20 0xFFFFFFFFFFFFFFFFFFFFFFFFFFFFFFFFFFFFFFFF AND MUL OR SWAP1 SSTORE POP POP POP POP POP PUSH2 0x1FB JUMP JUMPDEST PUSH0 PUSH0 REVERT JUMPDEST PUSH0 PUSH20 0xFFFFFFFFFFFFFFFFFFFFFFFFFFFFFFFFFFFFFFFF DUP3 AND SWAP1 POP SWAP2 SWAP1 POP JUMP JUMPDEST PUSH0 PUSH2 0x166 DUP3 PUSH2 0x13D JUMP JUMPDEST SWAP1 POP SWAP2 SWAP1 POP JUMP JUMPDEST PUSH2 0x176 DUP2 PUSH2 0x15C JUMP JUMPDEST DUP2 EQ PUSH2 0x180 JUMPI PUSH0 PUSH0 REVERT JUMPDEST POP JUMP JUMPDEST PUSH0 DUP2 MLOAD SWAP1 POP PUSH2 0x191 DUP2 PUSH2 0x16D JUMP JUMPDEST SWAP3 SWAP2 POP POP JUMP JUMPDEST PUSH0 PUSH0 PUSH0 PUSH0 PUSH1 0x80 DUP6 DUP8 SUB SLT ISZERO PUSH2 0x1AF JUMPI PUSH2 0x1AE PUSH2 0x139 JUMP JUMPDEST JUMPDEST PUSH0 PUSH2 0x1BC DUP8 DUP3 DUP9 ADD PUSH2 0x183 JUMP JUMPDEST SWAP5 POP POP PUSH1 0x20 PUSH2 0x1CD DUP8 DUP3 DUP9 ADD PUSH2 0x183 JUMP JUMPDEST SWAP4 POP POP PUSH1 0x40 PUSH2 0x1DE DUP8 DUP3 DUP9 ADD PUSH2 0x183 JUMP JUMPDEST SWAP3 POP POP PUSH1 0x60 PUSH2 0x1EF DUP8 DUP3 DUP9 ADD PUSH2 0x183 JUMP JUMPDEST SWAP2 POP POP SWAP3 SWAP6 SWAP2 SWAP5 POP SWAP3 POP JUMP JUMPDEST PUSH2 0x1481 DUP1 PUSH2 0x208 PUSH0 CODECOPY PUSH0 RETURN INVALID PUSH1 0x80 PUSH1 0x40 MSTORE CALLVALUE DUP1 ISZERO PUSH2 0xF JUMPI PUSH0 PUSH0 REVERT JUMPDEST POP PUSH1 0x4 CALLDATASIZE LT PUSH2 0x91 JUMPI PUSH0 CALLDATALOAD PUSH1 0xE0 SHR DUP1 PUSH4 0x81D12C58 GT PUSH2 0x64 JUMPI DUP1 PUSH4 0x81D12C58 EQ PUSH2 0x10B JUMPI DUP1 PUSH4 0x86E74F1E EQ PUSH2 0x144 JUMPI DUP1 PUSH4 0x9959E541 EQ PUSH2 0x160 JUMPI DUP1 PUSH4 0xCD596583 EQ PUSH2 0x17C JUMPI DUP1 PUSH4 0xDC6E0737 EQ PUSH2 0x19A JUMPI PUSH2 0x91 JUMP JUMPDEST DUP1 PUSH4 0x562099A EQ PUSH2 0x95 JUMPI DUP1 PUSH4 0xC020914 EQ PUSH2 0xB1 JUMPI DUP1 PUSH4 0x5E080A07 EQ PUSH2 0xCF JUMPI DUP1 PUSH4 0x6453ADED EQ PUSH2 0xED JUMPI JUMPDEST PUSH0 PUSH0 REVERT JUMPDEST PUSH2 0xAF PUSH1 0x4 DUP1 CALLDATASIZE SUB DUP2 ADD SWAP1 PUSH2 0xAA SWAP2 SWAP1 PUSH2 0xEC3 JUMP JUMPDEST PUSH2 0x1B6 JUMP JUMPDEST STOP JUMPDEST PUSH2 0xB9 PUSH2 0x2E4 JUMP JUMPDEST PUSH1 0x40 MLOAD PUSH2 0xC6 SWAP2 SWAP1 PUSH2 0xEFD JUMP JUMPDEST PUSH1 0x40 MLOAD DUP1 SWAP2 SUB SWAP1 RETURN JUMPDEST PUSH2 0xD7 PUSH2 0x309 JUMP JUMPDEST PUSH1 0x40 MLOAD PUSH2 0xE4 SWAP2 SWAP1 PUSH2 0xEFD JUMP JUMPDEST PUSH1 0x40 MLOAD DUP1 SWAP2 SUB SWAP1 RETURN JUMPDEST PUSH2 0xF5 PUSH2 0x32D JUMP JUMPDEST PUSH1 0x40 MLOAD PUSH2 0x102 SWAP2 SWAP1 PUSH2 0xEFD JUMP JUMPDEST PUSH1 0x40 MLOAD DUP1 SWAP2 SUB SWAP1 RETURN JUMPDEST PUSH2 0x125 PUSH1 0x4 DUP1 CALLDATASIZE SUB DUP2 ADD SWAP1 PUSH2 0x120 SWAP2 SWAP1 PUSH2 0xF49 JUMP JUMPDEST PUSH2 0x352 JUMP JUMPDEST PUSH1 0x40 MLOAD PUSH2 0x13B SWAP11 SWAP10 SWAP9 SWAP8 SWAP7 SWAP6 SWAP5 SWAP4 SWAP3 SWAP2 SWAP1 PUSH2 0xF9D JUMP JUMPDEST PUSH1 0x40 MLOAD DUP1 SWAP2 SUB SWAP1 RETURN JUMPDEST PUSH2 0x15E PUSH1 0x4 DUP1 CALLDATASIZE SUB DUP2 ADD SWAP1 PUSH2 0x159 SWAP2 SWAP1 PUSH2 0x1037 JUMP JUMPDEST PUSH2 0x42F JUMP JUMPDEST STOP JUMPDEST PUSH2 0x17A PUSH1 0x4 DUP1 CALLDATASIZE SUB DUP2 ADD SWAP1 PUSH2 0x175 SWAP2 SWAP1 PUSH2 0xEC3 JUMP JUMPDEST PUSH2 0x972 JUMP JUMPDEST STOP JUMPDEST PUSH2 0x184 PUSH2 0xAA0 JUMP JUMPDEST PUSH1 0x40 MLOAD PUSH2 0x191 SWAP2 SWAP1 PUSH2 0xEFD JUMP JUMPDEST PUSH1 0x40 MLOAD DUP1 SWAP2 SUB SWAP1 RETURN JUMPDEST PUSH2 0x1B4 PUSH1 0x4 DUP1 CALLDATASIZE SUB DUP2 ADD SWAP1 PUSH2 0x1AF SWAP2 SWAP1 PUSH2 0xEC3 JUMP JUMPDEST PUSH2 0xAC5 JUMP JUMPDEST STOP JUMPDEST PUSH1 0x2 PUSH0 SWAP1 SLOAD SWAP1 PUSH2 0x100 EXP SWAP1 DIV PUSH20 0xFFFFFFFFFFFFFFFFFFFFFFFFFFFFFFFFFFFFFFFF AND PUSH20 0xFFFFFFFFFFFFFFFFFFFFFFFFFFFFFFFFFFFFFFFF AND CALLER PUSH20 0xFFFFFFFFFFFFFFFFFFFFFFFFFFFFFFFFFFFFFFFF AND EQ PUSH2 0x245 JUMPI PUSH1 0x40 MLOAD PUSH32 0x8C379A000000000000000000000000000000000000000000000000000000000 DUP2 MSTORE PUSH1 0x4 ADD PUSH2 0x23C SWAP1 PUSH2 0x10E1 JUMP JUMPDEST PUSH1 0x40 MLOAD DUP1 SWAP2 SUB SWAP1 REVERT JUMPDEST DUP1 PUSH1 0x2 PUSH0 PUSH2 0x100 EXP DUP2 SLOAD DUP2 PUSH20 0xFFFFFFFFFFFFFFFFFFFFFFFFFFFFFFFFFFFFFFFF MUL NOT AND SWAP1 DUP4 PUSH20 0xFFFFFFFFFFFFFFFFFFFFFFFFFFFFFFFFFFFFFFFF AND MUL OR SWAP1 SSTORE POP DUP1 PUSH20 0xFFFFFFFFFFFFFFFFFFFFFFFFFFFFFFFFFFFFFFFF AND CALLER PUSH20 0xFFFFFFFFFFFFFFFFFFFFFFFFFFFFFFFFFFFFFFFF AND PUSH1 0x3 PUSH32 0xF5BECF5EF6BF281EA3C4F617C266A872C7662757C90AA5F5CDFFE02BD2023975 PUSH1 0x40 MLOAD PUSH1 0x40 MLOAD DUP1 SWAP2 SUB SWAP1 LOG4 POP JUMP JUMPDEST PUSH1 0x1 PUSH0 SWAP1 SLOAD SWAP1 PUSH2 0x100 EXP SWAP1 DIV PUSH20 0xFFFFFFFFFFFFFFFFFFFFFFFFFFFFFFFFFFFFFFFF AND DUP2 JUMP JUMPDEST PUSH0 PUSH0 SWAP1 SLOAD SWAP1 PUSH2 0x100 EXP SWAP1 DIV PUSH20 0xFFFFFFFFFFFFFFFFFFFFFFFFFFFFFFFFFFFFFFFF AND DUP2 JUMP JUMPDEST PUSH1 0x2 PUSH0 SWAP1 SLOAD SWAP1 PUSH2 0x100 EXP SWAP1 DIV PUSH20 0xFFFFFFFFFFFFFFFFFFFFFFFFFFFFFFFFFFFFFFFF AND DUP2 JUMP JUMPDEST PUSH1 0x4 PUSH1 0x20 MSTORE DUP1 PUSH0 MSTORE PUSH1 0x40 PUSH0 KECCAK256 PUSH0 SWAP2 POP SWAP1 POP DUP1 PUSH0 ADD PUSH0 SWAP1 SLOAD SWAP1 PUSH2 0x100 EXP SWAP1 DIV PUSH1 0xFF AND SWAP1 DUP1 PUSH0 ADD PUSH1 0x1 SWAP1 SLOAD SWAP1 PUSH2 0x100 EXP SWAP1 DIV PUSH1 0xFF AND SWAP1 DUP1 PUSH0 ADD PUSH1 0x2 SWAP1 SLOAD SWAP1 PUSH2 0x100 EXP SWAP1 DIV PUSH1 0xFF AND SWAP1 DUP1 PUSH0 ADD PUSH1 0x3 SWAP1 SLOAD SWAP1 PUSH2 0x100 EXP SWAP1 DIV PUSH1 0xFF AND SWAP1 DUP1 PUSH0 ADD PUSH1 0x4 SWAP1 SLOAD SWAP1 PUSH2 0x100 EXP SWAP1 DIV PUSH20 0xFFFFFFFFFFFFFFFFFFFFFFFFFFFFFFFFFFFFFFFF AND SWAP1 DUP1 PUSH1 0x1 ADD PUSH0 SWAP1 SLOAD SWAP1 PUSH2 0x100 EXP SWAP1 DIV PUSH20 0xFFFFFFFFFFFFFFFFFFFFFFFFFFFFFFFFFFFFFFFF AND SWAP1 DUP1 PUSH1 0x2 ADD PUSH0 SWAP1 SLOAD SWAP1 PUSH2 0x100 EXP SWAP1 DIV PUSH20 0xFFFFFFFFFFFFFFFFFFFFFFFFFFFFFFFFFFFFFFFF AND SWAP1 DUP1 PUSH1 0x3 ADD SLOAD SWAP1 DUP1 PUSH1 0x4 ADD SLOAD SWAP1 DUP1 PUSH1 0x5 ADD SLOAD SWAP1 POP DUP11 JUMP JUMPDEST PUSH0 PUSH1 0x4 PUSH0 DUP4 DUP2 MSTORE PUSH1 0x20 ADD SWAP1 DUP2 MSTORE PUSH1 0x20 ADD PUSH0 KECCAK256 SWAP1 POP DUP1 PUSH0 ADD PUSH0 SWAP1 SLOAD SWAP1 PUSH2 0x100 EXP SWAP1 DIV PUSH1 0xFF AND ISZERO PUSH2 0x493 JUMPI PUSH1 0x40 MLOAD PUSH32 0x8C379A000000000000000000000000000000000000000000000000000000000 DUP2 MSTORE PUSH1 0x4 ADD PUSH2 0x48A SWAP1 PUSH2 0x1149 JUMP JUMPDEST PUSH1 0x40 MLOAD DUP1 SWAP2 SUB SWAP1 REVERT JUMPDEST PUSH0 PUSH0 SWAP1 SLOAD SWAP1 PUSH2 0x100 EXP SWAP1 DIV PUSH20 0xFFFFFFFFFFFFFFFFFFFFFFFFFFFFFFFFFFFFFFFF AND PUSH20 0xFFFFFFFFFFFFFFFFFFFFFFFFFFFFFFFFFFFFFFFF AND CALLER PUSH20 0xFFFFFFFFFFFFFFFFFFFFFFFFFFFFFFFFFFFFFFFF AND SUB PUSH2 0x5A3 JUMPI DUP1 PUSH0 ADD PUSH1 0x1 SWAP1 SLOAD SWAP1 PUSH2 0x100 EXP SWAP1 DIV PUSH1 0xFF AND ISZERO PUSH2 0x537 JUMPI PUSH1 0x40 MLOAD PUSH32 0x8C379A000000000000000000000000000000000000000000000000000000000 DUP2 MSTORE PUSH1 0x4 ADD PUSH2 0x52E SWAP1 PUSH2 0x11B1 JUMP JUMPDEST PUSH1 0x40 MLOAD DUP1 SWAP2 SUB SWAP1 REVERT JUMPDEST PUSH1 0x1 DUP2 PUSH0 ADD PUSH1 0x1 PUSH2 0x100 EXP DUP2 SLOAD DUP2 PUSH1 0xFF MUL NOT AND SWAP1 DUP4 ISZERO ISZERO MUL OR SWAP1 SSTORE POP DUP4 DUP2 PUSH0 ADD PUSH1 0x4 PUSH2 0x100 EXP DUP2 SLOAD DUP2 PUSH20 0xFFFFFFFFFFFFFFFFFFFFFFFFFFFFFFFFFFFFFFFF MUL NOT AND SWAP1 DUP4 PUSH20 0xFFFFFFFFFFFFFFFFFFFFFFFFFFFFFFFFFFFFFFFF AND MUL OR SWAP1 SSTORE POP DUP3 DUP2 PUSH1 0x3 ADD DUP2 SWAP1 SSTORE POP PUSH2 0x802 JUMP JUMPDEST PUSH1 0x1 PUSH0 SWAP1 SLOAD SWAP1 PUSH2 0x100 EXP SWAP1 DIV PUSH20 0xFFFFFFFFFFFFFFFFFFFFFFFFFFFFFFFFFFFFFFFF AND PUSH20 0xFFFFFFFFFFFFFFFFFFFFFFFFFFFFFFFFFFFFFFFF AND CALLER PUSH20 0xFFFFFFFFFFFFFFFFFFFFFFFFFFFFFFFFFFFFFFFF AND SUB PUSH2 0x6B4 JUMPI DUP1 PUSH0 ADD PUSH1 0x2 SWAP1 SLOAD SWAP1 PUSH2 0x100 EXP SWAP1 DIV PUSH1 0xFF AND ISZERO PUSH2 0x648 JUMPI PUSH1 0x40 MLOAD PUSH32 0x8C379A000000000000000000000000000000000000000000000000000000000 DUP2 MSTORE PUSH1 0x4 ADD PUSH2 0x63F SWAP1 PUSH2 0x1219 JUMP JUMPDEST PUSH1 0x40 MLOAD DUP1 SWAP2 SUB SWAP1 REVERT JUMPDEST PUSH1 0x1 DUP2 PUSH0 ADD PUSH1 0x2 PUSH2 0x100 EXP DUP2 SLOAD DUP2 PUSH1 0xFF MUL NOT AND SWAP1 DUP4 ISZERO ISZERO MUL OR SWAP1 SSTORE POP DUP4 DUP2 PUSH1 0x1 ADD PUSH0 PUSH2 0x100 EXP DUP2 SLOAD DUP2 PUSH20 0xFFFFFFFFFFFFFFFFFFFFFFFFFFFFFFFFFFFFFFFF MUL NOT AND SWAP1 DUP4 PUSH20 0xFFFFFFFFFFFFFFFFFFFFFFFFFFFFFFFFFFFFFFFF AND MUL OR SWAP1 SSTORE POP DUP3 DUP2 PUSH1 0x4 ADD DUP2 SWAP1 SSTORE POP PUSH2 0x801 JUMP JUMPDEST PUSH1 0x2 PUSH0 SWAP1 SLOAD SWAP1 PUSH2 0x100 EXP SWAP1 DIV PUSH20 0xFFFFFFFFFFFFFFFFFFFFFFFFFFFFFFFFFFFFFFFF AND PUSH20 0xFFFFFFFFFFFFFFFFFFFFFFFFFFFFFFFFFFFFFFFF AND CALLER PUSH20 0xFFFFFFFFFFFFFFFFFFFFFFFFFFFFFFFFFFFFFFFF AND SUB PUSH2 0x7C5 JUMPI DUP1 PUSH0 ADD PUSH1 0x3 SWAP1 SLOAD SWAP1 PUSH2 0x100 EXP SWAP1 DIV PUSH1 0xFF AND ISZERO PUSH2 0x759 JUMPI PUSH1 0x40 MLOAD PUSH32 0x8C379A000000000000000000000000000000000000000000000000000000000 DUP2 MSTORE PUSH1 0x4 ADD PUSH2 0x750 SWAP1 PUSH2 0x1281 JUMP JUMPDEST PUSH1 0x40 MLOAD DUP1 SWAP2 SUB SWAP1 REVERT JUMPDEST PUSH1 0x1 DUP2 PUSH0 ADD PUSH1 0x3 PUSH2 0x100 EXP DUP2 SLOAD DUP2 PUSH1 0xFF MUL NOT AND SWAP1 DUP4 ISZERO ISZERO MUL OR SWAP1 SSTORE POP DUP4 DUP2 PUSH1 0x2 ADD PUSH0 PUSH2 0x100 EXP DUP2 SLOAD DUP2 PUSH20 0xFFFFFFFFFFFFFFFFFFFFFFFFFFFFFFFFFFFFFFFF MUL NOT AND SWAP1 DUP4 PUSH20 0xFFFFFFFFFFFFFFFFFFFFFFFFFFFFFFFFFFFFFFFF AND MUL OR SWAP1 SSTORE POP DUP3 DUP2 PUSH1 0x5 ADD DUP2 SWAP1 SSTORE POP PUSH2 0x800 JUMP JUMPDEST PUSH1 0x40 MLOAD PUSH32 0x8C379A000000000000000000000000000000000000000000000000000000000 DUP2 MSTORE PUSH1 0x4 ADD PUSH2 0x7F7 SWAP1 PUSH2 0x130F JUMP JUMPDEST PUSH1 0x40 MLOAD DUP1 SWAP2 SUB SWAP1 REVERT JUMPDEST JUMPDEST JUMPDEST DUP4 PUSH20 0xFFFFFFFFFFFFFFFFFFFFFFFFFFFFFFFFFFFFFFFF AND CALLER PUSH20 0xFFFFFFFFFFFFFFFFFFFFFFFFFFFFFFFFFFFFFFFF AND PUSH32 0x6718BBBC3A1333E921501591DF5FE974BD1DE1E3DC5498203221A126967067B8 DUP6 DUP6 PUSH1 0x40 MLOAD PUSH2 0x861 SWAP3 SWAP2 SWAP1 PUSH2 0x132D JUMP JUMPDEST PUSH1 0x40 MLOAD DUP1 SWAP2 SUB SWAP1 LOG3 PUSH2 0x872 DUP3 PUSH2 0xBF1 JUMP JUMPDEST ISZERO PUSH2 0x96C JUMPI PUSH1 0x1 DUP2 PUSH0 ADD PUSH0 PUSH2 0x100 EXP DUP2 SLOAD DUP2 PUSH1 0xFF MUL NOT AND SWAP1 DUP4 ISZERO ISZERO MUL OR SWAP1 SSTORE POP PUSH1 0x3 PUSH0 SWAP1 SLOAD SWAP1 PUSH2 0x100 EXP SWAP1 DIV PUSH20 0xFFFFFFFFFFFFFFFFFFFFFFFFFFFFFFFFFFFFFFFF AND PUSH20 0xFFFFFFFFFFFFFFFFFFFFFFFFFFFFFFFFFFFFFFFF AND PUSH4 0x69CA02DD DUP6 DUP6 PUSH1 0x40 MLOAD DUP4 PUSH4 0xFFFFFFFF AND PUSH1 0xE0 SHL DUP2 MSTORE PUSH1 0x4 ADD PUSH2 0x8EE SWAP3 SWAP2 SWAP1 PUSH2 0x1354 JUMP JUMPDEST PUSH0 PUSH1 0x40 MLOAD DUP1 DUP4 SUB DUP2 PUSH0 DUP8 DUP1 EXTCODESIZE ISZERO DUP1 ISZERO PUSH2 0x905 JUMPI PUSH0 PUSH0 REVERT JUMPDEST POP GAS CALL ISZERO DUP1 ISZERO PUSH2 0x917 JUMPI RETURNDATASIZE PUSH0 PUSH0 RETURNDATACOPY RETURNDATASIZE PUSH0 REVERT JUMPDEST POP POP POP POP DUP4 PUSH20 0xFFFFFFFFFFFFFFFFFFFFFFFFFFFFFFFFFFFFFFFF AND PUSH32 0xF8D62A11D316E69C1460662F86B7046003826DB86FDC0D5FFA8C3ADAA24F0A58 DUP5 DUP5 PUSH1 0x40 MLOAD PUSH2 0x963 SWAP3 SWAP2 SWAP1 PUSH2 0x132D JUMP JUMPDEST PUSH1 0x40 MLOAD DUP1 SWAP2 SUB SWAP1 LOG2 JUMPDEST POP POP POP POP JUMP JUMPDEST PUSH1 0x1 PUSH0 SWAP1 SLOAD SWAP1 PUSH2 0x100 EXP SWAP1 DIV PUSH20 0xFFFFFFFFFFFFFFFFFFFFFFFFFFFFFFFFFFFFFFFF AND PUSH20 0xFFFFFFFFFFFFFFFFFFFFFFFFFFFFFFFFFFFFFFFF AND CALLER PUSH20 0xFFFFFFFFFFFFFFFFFFFFFFFFFFFFFFFFFFFFFFFF AND EQ PUSH2 0xA01 JUMPI PUSH1 0x40 MLOAD PUSH32 0x8C379A000000000000000000000000000000000000000000000000000000000 DUP2 MSTORE PUSH1 0x4 ADD PUSH2 0x9F8 SWAP1 PUSH2 0x13C5 JUMP JUMPDEST PUSH1 0x40 MLOAD DUP1 SWAP2 SUB SWAP1 REVERT JUMPDEST DUP1 PUSH1 0x1 PUSH0 PUSH2 0x100 EXP DUP2 SLOAD DUP2 PUSH20 0xFFFFFFFFFFFFFFFFFFFFFFFFFFFFFFFFFFFFFFFF MUL NOT AND SWAP1 DUP4 PUSH20 0xFFFFFFFFFFFFFFFFFFFFFFFFFFFFFFFFFFFFFFFF AND MUL OR SWAP1 SSTORE POP DUP1 PUSH20 0xFFFFFFFFFFFFFFFFFFFFFFFFFFFFFFFFFFFFFFFF AND CALLER PUSH20 0xFFFFFFFFFFFFFFFFFFFFFFFFFFFFFFFFFFFFFFFF AND PUSH1 0x2 PUSH32 0xF5BECF5EF6BF281EA3C4F617C266A872C7662757C90AA5F5CDFFE02BD2023975 PUSH1 0x40 MLOAD PUSH1 0x40 MLOAD DUP1 SWAP2 SUB SWAP1 LOG4 POP JUMP JUMPDEST PUSH1 0x3 PUSH0 SWAP1 SLOAD SWAP1 PUSH2 0x100 EXP SWAP1 DIV PUSH20 0xFFFFFFFFFFFFFFFFFFFFFFFFFFFFFFFFFFFFFFFF AND DUP2 JUMP JUMPDEST PUSH0 PUSH0 SWAP1 SLOAD SWAP1 PUSH2 0x100 EXP SWAP1 DIV PUSH20 0xFFFFFFFFFFFFFFFFFFFFFFFFFFFFFFFFFFFFFFFF AND PUSH20 0xFFFFFFFFFFFFFFFFFFFFFFFFFFFFFFFFFFFFFFFF AND CALLER PUSH20 0xFFFFFFFFFFFFFFFFFFFFFFFFFFFFFFFFFFFFFFFF AND EQ PUSH2 0xB53 JUMPI PUSH1 0x40 MLOAD PUSH32 0x8C379A000000000000000000000000000000000000000000000000000000000 DUP2 MSTORE PUSH1 0x4 ADD PUSH2 0xB4A SWAP1 PUSH2 0x142D JUMP JUMPDEST PUSH1 0x40 MLOAD DUP1 SWAP2 SUB SWAP1 REVERT JUMPDEST DUP1 PUSH0 PUSH0 PUSH2 0x100 EXP DUP2 SLOAD DUP2 PUSH20 0xFFFFFFFFFFFFFFFFFFFFFFFFFFFFFFFFFFFFFFFF MUL NOT AND SWAP1 DUP4 PUSH20 0xFFFFFFFFFFFFFFFFFFFFFFFFFFFFFFFFFFFFFFFF AND MUL OR SWAP1 SSTORE POP DUP1 PUSH20 0xFFFFFFFFFFFFFFFFFFFFFFFFFFFFFFFFFFFFFFFF AND CALLER PUSH20 0xFFFFFFFFFFFFFFFFFFFFFFFFFFFFFFFFFFFFFFFF AND PUSH1 0x1 PUSH32 0xF5BECF5EF6BF281EA3C4F617C266A872C7662757C90AA5F5CDFFE02BD2023975 PUSH1 0x40 MLOAD PUSH1 0x40 MLOAD DUP1 SWAP2 SUB SWAP1 LOG4 POP JUMP JUMPDEST PUSH0 PUSH0 PUSH1 0x4 PUSH0 DUP5 DUP2 MSTORE PUSH1 0x20 ADD SWAP1 DUP2 MSTORE PUSH1 0x20 ADD PUSH0 KECCAK256 SWAP1 POP DUP1 PUSH0 ADD PUSH1 0x1 SWAP1 SLOAD SWAP1 PUSH2 0x100 EXP SWAP1 DIV PUSH1 0xFF AND DUP1 ISZERO PUSH2 0xC30 JUMPI POP DUP1 PUSH0 ADD PUSH1 0x2 SWAP1 SLOAD SWAP1 PUSH2 0x100 EXP SWAP1 DIV PUSH1 0xFF AND JUMPDEST ISZERO PUSH2 0xCCD JUMPI DUP1 PUSH1 0x1 ADD PUSH0 SWAP1 SLOAD SWAP1 PUSH2 0x100 EXP SWAP1 DIV PUSH20 0xFFFFFFFFFFFFFFFFFFFFFFFFFFFFFFFFFFFFFFFF AND PUSH20 0xFFFFFFFFFFFFFFFFFFFFFFFFFFFFFFFFFFFFFFFF AND DUP2 PUSH0 ADD PUSH1 0x4 SWAP1 SLOAD SWAP1 PUSH2 0x100 EXP SWAP1 DIV PUSH20 0xFFFFFFFFFFFFFFFFFFFFFFFFFFFFFFFFFFFFFFFF AND PUSH20 0xFFFFFFFFFFFFFFFFFFFFFFFFFFFFFFFFFFFFFFFF AND EQ DUP1 ISZERO PUSH2 0xCBD JUMPI POP DUP1 PUSH1 0x4 ADD SLOAD DUP2 PUSH1 0x3 ADD SLOAD EQ JUMPDEST ISZERO PUSH2 0xCCC JUMPI PUSH1 0x1 SWAP2 POP POP PUSH2 0xE60 JUMP JUMPDEST JUMPDEST DUP1 PUSH0 ADD PUSH1 0x1 SWAP1 SLOAD SWAP1 PUSH2 0x100 EXP SWAP1 DIV PUSH1 0xFF AND DUP1 ISZERO PUSH2 0xCF7 JUMPI POP DUP1 PUSH0 ADD PUSH1 0x3 SWAP1 SLOAD SWAP1 PUSH2 0x100 EXP SWAP1 DIV PUSH1 0xFF AND JUMPDEST ISZERO PUSH2 0xD94 JUMPI DUP1 PUSH1 0x2 ADD PUSH0 SWAP1 SLOAD SWAP1 PUSH2 0x100 EXP SWAP1 DIV PUSH20 0xFFFFFFFFFFFFFFFFFFFFFFFFFFFFFFFFFFFFFFFF AND PUSH20 0xFFFFFFFFFFFFFFFFFFFFFFFFFFFFFFFFFFFFFFFF AND DUP2 PUSH0 ADD PUSH1 0x4 SWAP1 SLOAD SWAP1 PUSH2 0x100 EXP SWAP1 DIV PUSH20 0xFFFFFFFFFFFFFFFFFFFFFFFFFFFFFFFFFFFFFFFF AND PUSH20 0xFFFFFFFFFFFFFFFFFFFFFFFFFFFFFFFFFFFFFFFF AND EQ DUP1 ISZERO PUSH2 0xD84 JUMPI POP DUP1 PUSH1 0x5 ADD SLOAD DUP2 PUSH1 0x3 ADD SLOAD EQ JUMPDEST ISZERO PUSH2 0xD93 JUMPI PUSH1 0x1 SWAP2 POP POP PUSH2 0xE60 JUMP JUMPDEST JUMPDEST DUP1 PUSH0 ADD PUSH1 0x2 SWAP1 SLOAD SWAP1 PUSH2 0x100 EXP SWAP1 DIV PUSH1 0xFF AND DUP1 ISZERO PUSH2 0xDBE JUMPI POP DUP1 PUSH0 ADD PUSH1 0x3 SWAP1 SLOAD SWAP1 PUSH2 0x100 EXP SWAP1 DIV PUSH1 0xFF AND JUMPDEST ISZERO PUSH2 0xE5B JUMPI DUP1 PUSH1 0x2 ADD PUSH0 SWAP1 SLOAD SWAP1 PUSH2 0x100 EXP SWAP1 DIV PUSH20 0xFFFFFFFFFFFFFFFFFFFFFFFFFFFFFFFFFFFFFFFF AND PUSH20 0xFFFFFFFFFFFFFFFFFFFFFFFFFFFFFFFFFFFFFFFF AND DUP2 PUSH1 0x1 ADD PUSH0 SWAP1 SLOAD SWAP1 PUSH2 0x100 EXP SWAP1 DIV PUSH20 0xFFFFFFFFFFFFFFFFFFFFFFFFFFFFFFFFFFFFFFFF AND PUSH20 0xFFFFFFFFFFFFFFFFFFFFFFFFFFFFFFFFFFFFFFFF AND EQ DUP1 ISZERO PUSH2 0xE4B JUMPI POP DUP1 PUSH1 0x5 ADD SLOAD DUP2 PUSH1 0x4 ADD SLOAD EQ JUMPDEST ISZERO PUSH2 0xE5A JUMPI PUSH1 0x1 SWAP2 POP POP PUSH2 0xE60 JUMP JUMPDEST JUMPDEST PUSH0 SWAP2 POP POP JUMPDEST SWAP2 SWAP1 POP JUMP JUMPDEST PUSH0 PUSH0 REVERT JUMPDEST PUSH0 PUSH20 0xFFFFFFFFFFFFFFFFFFFFFFFFFFFFFFFFFFFFFFFF DUP3 AND SWAP1 POP SWAP2 SWAP1 POP JUMP JUMPDEST PUSH0 PUSH2 0xE92 DUP3 PUSH2 0xE69 JUMP JUMPDEST SWAP1 POP SWAP2 SWAP1 POP JUMP JUMPDEST PUSH2 0xEA2 DUP2 PUSH2 0xE88 JUMP JUMPDEST DUP2 EQ PUSH2 0xEAC JUMPI PUSH0 PUSH0 REVERT JUMPDEST POP JUMP JUMPDEST PUSH0 DUP2 CALLDATALOAD SWAP1 POP PUSH2 0xEBD DUP2 PUSH2 0xE99 JUMP JUMPDEST SWAP3 SWAP2 POP POP JUMP JUMPDEST PUSH0 PUSH1 0x20 DUP3 DUP5 SUB SLT ISZERO PUSH2 0xED8 JUMPI PUSH2 0xED7 PUSH2 0xE65 JUMP JUMPDEST JUMPDEST PUSH0 PUSH2 0xEE5 DUP5 DUP3 DUP6 ADD PUSH2 0xEAF JUMP JUMPDEST SWAP2 POP POP SWAP3 SWAP2 POP POP JUMP JUMPDEST PUSH2 0xEF7 DUP2 PUSH2 0xE88 JUMP JUMPDEST DUP3 MSTORE POP POP JUMP JUMPDEST PUSH0 PUSH1 0x20 DUP3 ADD SWAP1 POP PUSH2 0xF10 PUSH0 DUP4 ADD DUP5 PUSH2 0xEEE JUMP JUMPDEST SWAP3 SWAP2 POP POP JUMP JUMPDEST PUSH0 DUP2 SWAP1 POP SWAP2 SWAP1 POP JUMP JUMPDEST PUSH2 0xF28 DUP2 PUSH2 0xF16 JUMP JUMPDEST DUP2 EQ PUSH2 0xF32 JUMPI PUSH0 PUSH0 REVERT JUMPDEST POP JUMP JUMPDEST PUSH0 DUP2 CALLDATALOAD SWAP1 POP PUSH2 0xF43 DUP2 PUSH2 0xF1F JUMP JUMPDEST SWAP3 SWAP2 POP POP JUMP JUMPDEST PUSH0 PUSH1 0x20 DUP3 DUP5 SUB SLT ISZERO PUSH2 0xF5E JUMPI PUSH2 0xF5D PUSH2 0xE65 JUMP JUMPDEST JUMPDEST PUSH0 PUSH2 0xF6B DUP5 DUP3 DUP6 ADD PUSH2 0xF35 JUMP JUMPDEST SWAP2 POP POP SWAP3 SWAP2 POP POP JUMP JUMPDEST PUSH0 DUP2 ISZERO ISZERO SWAP1 POP SWAP2 SWAP1 POP JUMP JUMPDEST PUSH2 0xF88 DUP2 PUSH2 0xF74 JUMP JUMPDEST DUP3 MSTORE POP POP JUMP JUMPDEST PUSH2 0xF97 DUP2 PUSH2 0xF16 JUMP JUMPDEST DUP3 MSTORE POP POP JUMP JUMPDEST PUSH0 PUSH2 0x140 DUP3 ADD SWAP1 POP PUSH2 0xFB1 PUSH0 DUP4 ADD DUP14 PUSH2 0xF7F JUMP JUMPDEST PUSH2 0xFBE PUSH1 0x20 DUP4 ADD DUP13 PUSH2 0xF7F JUMP JUMPDEST PUSH2 0xFCB PUSH1 0x40 DUP4 ADD DUP12 PUSH2 0xF7F JUMP JUMPDEST PUSH2 0xFD8 PUSH1 0x60 DUP4 ADD DUP11 PUSH2 0xF7F JUMP JUMPDEST PUSH2 0xFE5 PUSH1 0x80 DUP4 ADD DUP10 PUSH2 0xEEE JUMP JUMPDEST PUSH2 0xFF2 PUSH1 0xA0 DUP4 ADD DUP9 PUSH2 0xEEE JUMP JUMPDEST PUSH2 0xFFF PUSH1 0xC0 DUP4 ADD DUP8 PUSH2 0xEEE JUMP JUMPDEST PUSH2 0x100C PUSH1 0xE0 DUP4 ADD DUP7 PUSH2 0xF8E JUMP JUMPDEST PUSH2 0x101A PUSH2 0x100 DUP4 ADD DUP6 PUSH2 0xF8E JUMP JUMPDEST PUSH2 0x1028 PUSH2 0x120 DUP4 ADD DUP5 PUSH2 0xF8E JUMP JUMPDEST SWAP12 SWAP11 POP POP POP POP POP POP POP POP POP POP POP JUMP JUMPDEST PUSH0 PUSH0 PUSH0 PUSH1 0x60 DUP5 DUP7 SUB SLT ISZERO PUSH2 0x104E JUMPI PUSH2 0x104D PUSH2 0xE65 JUMP JUMPDEST JUMPDEST PUSH0 PUSH2 0x105B DUP7 DUP3 DUP8 ADD PUSH2 0xEAF JUMP JUMPDEST SWAP4 POP POP PUSH1 0x20 PUSH2 0x106C DUP7 DUP3 DUP8 ADD PUSH2 0xF35 JUMP JUMPDEST SWAP3 POP POP PUSH1 0x40 PUSH2 0x107D DUP7 DUP3 DUP8 ADD PUSH2 0xF35 JUMP JUMPDEST SWAP2 POP POP SWAP3 POP SWAP3 POP SWAP3 JUMP JUMPDEST PUSH0 DUP3 DUP3 MSTORE PUSH1 0x20 DUP3 ADD SWAP1 POP SWAP3 SWAP2 POP POP JUMP JUMPDEST PUSH32 0x4F6E6C79206E6F646520332063616E206368616E676520697473656C66000000 PUSH0 DUP3 ADD MSTORE POP JUMP JUMPDEST PUSH0 PUSH2 0x10CB PUSH1 0x1D DUP4 PUSH2 0x1087 JUMP JUMPDEST SWAP2 POP PUSH2 0x10D6 DUP3 PUSH2 0x1097 JUMP JUMPDEST PUSH1 0x20 DUP3 ADD SWAP1 POP SWAP2 SWAP1 POP JUMP JUMPDEST PUSH0 PUSH1 0x20 DUP3 ADD SWAP1 POP DUP2 DUP2 SUB PUSH0 DUP4 ADD MSTORE PUSH2 0x10F8 DUP2 PUSH2 0x10BF JUMP JUMPDEST SWAP1 POP SWAP2 SWAP1 POP JUMP JUMPDEST PUSH32 0x5472616E7366657220616C726561647920657865637574656400000000000000 PUSH0 DUP3 ADD MSTORE POP JUMP JUMPDEST PUSH0 PUSH2 0x1133 PUSH1 0x19 DUP4 PUSH2 0x1087 JUMP JUMPDEST SWAP2 POP PUSH2 0x113E DUP3 PUSH2 0x10FF JUMP JUMPDEST PUSH1 0x20 DUP3 ADD SWAP1 POP SWAP2 SWAP1 POP JUMP JUMPDEST PUSH0 PUSH1 0x20 DUP3 ADD SWAP1 POP DUP2 DUP2 SUB PUSH0 DUP4 ADD MSTORE PUSH2 0x1160 DUP2 PUSH2 0x1127 JUMP JUMPDEST SWAP1 POP SWAP2 SWAP1 POP JUMP JUMPDEST PUSH32 0x4E6F6465203120616C726561647920636F6E6669726D65640000000000000000 PUSH0 DUP3 ADD MSTORE POP JUMP JUMPDEST PUSH0 PUSH2 0x119B PUSH1 0x18 DUP4 PUSH2 0x1087 JUMP JUMPDEST SWAP2 POP PUSH2 0x11A6 DUP3 PUSH2 0x1167 JUMP JUMPDEST PUSH1 0x20 DUP3 ADD SWAP1 POP SWAP2 SWAP1 POP JUMP JUMPDEST PUSH0 PUSH1 0x20 DUP3 ADD SWAP1 POP DUP2 DUP2 SUB PUSH0 DUP4 ADD MSTORE PUSH2 0x11C8 DUP2 PUSH2 0x118F JUMP JUMPDEST SWAP1 POP SWAP2 SWAP1 POP JUMP JUMPDEST PUSH32 0x4E6F6465203220616C726561647920636F6E6669726D65640000000000000000 PUSH0 DUP3 ADD MSTORE POP JUMP JUMPDEST PUSH0 PUSH2 0x1203 PUSH1 0x18 DUP4 PUSH2 0x1087 JUMP JUMPDEST SWAP2 POP PUSH2 0x120E DUP3 PUSH2 0x11CF JUMP JUMPDEST PUSH1 0x20 DUP3 ADD SWAP1 POP SWAP2 SWAP1 POP JUMP JUMPDEST PUSH0 PUSH1 0x20 DUP3 ADD SWAP1 POP DUP2 DUP2 SUB PUSH0 DUP4 ADD MSTORE PUSH2 0x1230 DUP2 PUSH2 0x11F7 JUMP JUMPDEST SWAP1 POP SWAP2 SWAP1 POP JUMP JUMPDEST PUSH32 0x4E6F6465203320616C726561647920636F6E6669726D65640000000000000000 PUSH0 DUP3 ADD MSTORE POP JUMP JUMPDEST PUSH0 PUSH2 0x126B PUSH1 0x18 DUP4 PUSH2 0x1087 JUMP JUMPDEST SWAP2 POP PUSH2 0x1276 DUP3 PUSH2 0x1237 JUMP JUMPDEST PUSH1 0x20 DUP3 ADD SWAP1 POP SWAP2 SWAP1 POP JUMP JUMPDEST PUSH0 PUSH1 0x20 DUP3 ADD SWAP1 POP DUP2 DUP2 SUB PUSH0 DUP4 ADD MSTORE PUSH2 0x1298 DUP2 PUSH2 0x125F JUMP JUMPDEST SWAP1 POP SWAP2 SWAP1 POP JUMP JUMPDEST PUSH32 0x4F6E6C792066656465726174696F6E206E6F6465732063616E20636F6E666972 PUSH0 DUP3 ADD MSTORE PUSH32 0x6D00000000000000000000000000000000000000000000000000000000000000 PUSH1 0x20 DUP3 ADD MSTORE POP JUMP JUMPDEST PUSH0 PUSH2 0x12F9 PUSH1 0x21 DUP4 PUSH2 0x1087 JUMP JUMPDEST SWAP2 POP PUSH2 0x1304 DUP3 PUSH2 0x129F JUMP JUMPDEST PUSH1 0x40 DUP3 ADD SWAP1 POP SWAP2 SWAP1 POP JUMP JUMPDEST PUSH0 PUSH1 0x20 DUP3 ADD SWAP1 POP DUP2 DUP2 SUB PUSH0 DUP4 ADD MSTORE PUSH2 0x1326 DUP2 PUSH2 0x12ED JUMP JUMPDEST SWAP1 POP SWAP2 SWAP1 POP JUMP JUMPDEST PUSH0 PUSH1 0x40 DUP3 ADD SWAP1 POP PUSH2 0x1340 PUSH0 DUP4 ADD DUP6 PUSH2 0xF8E JUMP JUMPDEST PUSH2 0x134D PUSH1 0x20 DUP4 ADD DUP5 PUSH2 0xF8E JUMP JUMPDEST SWAP4 SWAP3 POP POP POP JUMP JUMPDEST PUSH0 PUSH1 0x40 DUP3 ADD SWAP1 POP PUSH2 0x1367 PUSH0 DUP4 ADD DUP6 PUSH2 0xEEE JUMP JUMPDEST PUSH2 0x1374 PUSH1 0x20 DUP4 ADD DUP5 PUSH2 0xF8E JUMP JUMPDEST SWAP4 SWAP3 POP POP POP JUMP JUMPDEST PUSH32 0x4F6E6C79206E6F646520322063616E206368616E676520697473656C66000000 PUSH0 DUP3 ADD MSTORE POP JUMP JUMPDEST PUSH0 PUSH2 0x13AF PUSH1 0x1D DUP4 PUSH2 0x1087 JUMP JUMPDEST SWAP2 POP PUSH2 0x13BA DUP3 PUSH2 0x137B JUMP JUMPDEST PUSH1 0x20 DUP3 ADD SWAP1 POP SWAP2 SWAP1 POP JUMP JUMPDEST PUSH0 PUSH1 0x20 DUP3 ADD SWAP1 POP DUP2 DUP2 SUB PUSH0 DUP4 ADD MSTORE PUSH2 0x13DC DUP2 PUSH2 0x13A3 JUMP JUMPDEST SWAP1 POP SWAP2 SWAP1 POP JUMP JUMPDEST PUSH32 0x4F6E6C79206E6F646520312063616E206368616E676520697473656C66000000 PUSH0 DUP3 ADD MSTORE POP JUMP JUMPDEST PUSH0 PUSH2 0x1417 PUSH1 0x1D DUP4 PUSH2 0x1087 JUMP JUMPDEST SWAP2 POP PUSH2 0x1422 DUP3 PUSH2 0x13E3 JUMP JUMPDEST PUSH1 0x20 DUP3 ADD SWAP1 POP SWAP2 SWAP1 POP JUMP JUMPDEST PUSH0 PUSH1 0x20 DUP3 ADD SWAP1 POP DUP2 DUP2 SUB PUSH0 DUP4 ADD MSTORE PUSH2 0x1444 DUP2 PUSH2 0x140B JUMP JUMPDEST SWAP1 POP SWAP2 SWAP1 POP JUMP INVALID LOG2 PUSH5 0x6970667358 0x22 SLT KECCAK256 ADDRESS 0x4C 0xB6 0xD4 SWAP16 PUSH14 0x1E70360F10122EF71A345E1BD480 SSTORE SELFBALANCE 0xE BLOBHASH 0xDF DUP7 BASEFEE CALLCODE 0xCD PUSH26 0x7D0064736F6C6343000820003300000000000000000000000000 "
				},
				"gasEstimates": {
					"creation": {
						"codeDepositCost": "1049800",
						"executionCost": "infinite",
						"totalCost": "infinite"
					},
					"external": {
						"bridgeContract()": "2574",
						"changeNode1(address)": "28892",
						"changeNode2(address)": "28850",
						"changeNode3(address)": "28807",
						"confirmRequest(address,uint256,uint256)": "infinite",
						"federation_node_1()": "2552",
						"federation_node_2()": "2531",
						"federation_node_3()": "2575",
						"requests(uint256)": "infinite"
					},
					"internal": {
						"_hasConsensus(uint256)": "39201"
					}
				},
				"methodIdentifiers": {
					"bridgeContract()": "cd596583",
					"changeNode1(address)": "dc6e0737",
					"changeNode2(address)": "9959e541",
					"changeNode3(address)": "0562099a",
					"confirmRequest(address,uint256,uint256)": "86e74f1e",
					"federation_node_1()": "5e080a07",
					"federation_node_2()": "0c020914",
					"federation_node_3()": "6453aded",
					"requests(uint256)": "81d12c58"
				}
			},
			"storageLayout": {
				"storage": [
					{
						"astId": 13,
						"contract": "multisig_sol.sol:FederationSync",
						"label": "federation_node_1",
						"offset": 0,
						"slot": "0",
						"type": "t_address"
					},
					{
						"astId": 15,
						"contract": "multisig_sol.sol:FederationSync",
						"label": "federation_node_2",
						"offset": 0,
						"slot": "1",
						"type": "t_address"
					},
					{
						"astId": 17,
						"contract": "multisig_sol.sol:FederationSync",
						"label": "federation_node_3",
						"offset": 0,
						"slot": "2",
						"type": "t_address"
					},
					{
						"astId": 20,
						"contract": "multisig_sol.sol:FederationSync",
						"label": "bridgeContract",
						"offset": 0,
						"slot": "3",
						"type": "t_address"
					},
					{
						"astId": 48,
						"contract": "multisig_sol.sol:FederationSync",
						"label": "requests",
						"offset": 0,
						"slot": "4",
						"type": "t_mapping(t_uint256,t_struct(ConfirmedRequestData)42_storage)"
					}
				],
				"types": {
					"t_address": {
						"encoding": "inplace",
						"label": "address",
						"numberOfBytes": "20"
					},
					"t_bool": {
						"encoding": "inplace",
						"label": "bool",
						"numberOfBytes": "1"
					},
					"t_mapping(t_uint256,t_struct(ConfirmedRequestData)42_storage)": {
						"encoding": "mapping",
						"key": "t_uint256",
						"label": "mapping(uint256 => struct FederationSync.ConfirmedRequestData)",
						"numberOfBytes": "32",
						"value": "t_struct(ConfirmedRequestData)42_storage"
					},
					"t_struct(ConfirmedRequestData)42_storage": {
						"encoding": "inplace",
						"label": "struct FederationSync.ConfirmedRequestData",
						"members": [
							{
								"astId": 23,
								"contract": "multisig_sol.sol:FederationSync",
								"label": "transfer_made",
								"offset": 0,
								"slot": "0",
								"type": "t_bool"
							},
							{
								"astId": 25,
								"contract": "multisig_sol.sol:FederationSync",
								"label": "node_1_confirmation",
								"offset": 1,
								"slot": "0",
								"type": "t_bool"
							},
							{
								"astId": 27,
								"contract": "multisig_sol.sol:FederationSync",
								"label": "node_2_confirmation",
								"offset": 2,
								"slot": "0",
								"type": "t_bool"
							},
							{
								"astId": 29,
								"contract": "multisig_sol.sol:FederationSync",
								"label": "node_3_confirmation",
								"offset": 3,
								"slot": "0",
								"type": "t_bool"
							},
							{
								"astId": 31,
								"contract": "multisig_sol.sol:FederationSync",
								"label": "node_1_recipient",
								"offset": 4,
								"slot": "0",
								"type": "t_address"
							},
							{
								"astId": 33,
								"contract": "multisig_sol.sol:FederationSync",
								"label": "node_2_recipient",
								"offset": 0,
								"slot": "1",
								"type": "t_address"
							},
							{
								"astId": 35,
								"contract": "multisig_sol.sol:FederationSync",
								"label": "node_3_recipient",
								"offset": 0,
								"slot": "2",
								"type": "t_address"
							},
							{
								"astId": 37,
								"contract": "multisig_sol.sol:FederationSync",
								"label": "node_1_amount",
								"offset": 0,
								"slot": "3",
								"type": "t_uint256"
							},
							{
								"astId": 39,
								"contract": "multisig_sol.sol:FederationSync",
								"label": "node_2_amount",
								"offset": 0,
								"slot": "4",
								"type": "t_uint256"
							},
							{
								"astId": 41,
								"contract": "multisig_sol.sol:FederationSync",
								"label": "node_3_amount",
								"offset": 0,
								"slot": "5",
								"type": "t_uint256"
							}
						],
						"numberOfBytes": "192"
					},
					"t_uint256": {
						"encoding": "inplace",
						"label": "uint256",
						"numberOfBytes": "32"
					}
				}
			},
			"userdoc": {
				"events": {
					"NodeChanged(uint8,address,address)": {
						"notice": "Emitted when a node rotates its address. Records the node index, the old address that initiated the change, and the new address that replaces it."
					},
					"RequestConfirmed(address,address,uint256,uint256)": {
						"notice": "Emitted each time a node submits its confirmation for a given nonce. Off-chain services can track this to monitor consensus progress."
					},
					"TransferExecuted(address,uint256,uint256)": {
						"notice": "Emitted once consensus is reached and Bridge_sol.Transfer() has been called."
					}
				},
				"kind": "user",
				"methods": {
					"bridgeContract()": {
						"notice": "Address of the Bridge_sol contract that holds the USDC funds and executes the token transfer once consensus is reached."
					},
					"changeNode1(address)": {
						"notice": "Each node can rotate only its own registered address. Designed for key rotation or node infrastructure changes without requiring a full contract redeployment."
					},
					"confirmRequest(address,uint256,uint256)": {
						"notice": "Called by each node after it detects a Request_Approved event on the source chain. Each node submits the recipient address, amount, and nonce it observed. After each submission the contract checks whether any two nodes agree — if yes, transfer_made is set to true and Bridge_sol.Transfer() is called. The transfer_made flag permanently blocks re-execution for that nonce."
					},
					"federation_node_1()": {
						"notice": "Addresses of the three federation nodes. Only these addresses are allowed to confirm requests and rotate their own address."
					},
					"requests(uint256)": {
						"notice": "Maps each nonce to its confirmation data. Allows independent lookups per request without array iteration."
					}
				},
				"version": 1
			}
		}
	}
}