{
	"bridge_sol.sol": {
		"Bridge_sol": {
			"abi": [
				{
					"inputs": [
						{
							"internalType": "uint256",
							"name": "_own_balance",
							"type": "uint256"
						},
						{
							"internalType": "uint256",
							"name": "_external_balance",
							"type": "uint256"
						},
						{
							"internalType": "address",
							"name": "_token",
							"type": "address"
						}
					],
					"stateMutability": "nonpayable",
					"type": "constructor"
				},
				{
					"anonymous": false,
					"inputs": [
						{
							"indexed": true,
							"internalType": "address",
							"name": "sender",
							"type": "address"
						},
						{
							"indexed": false,
							"internalType": "uint256",
							"name": "amount",
							"type": "uint256"
						},
						{
							"indexed": false,
							"internalType": "string",
							"name": "receiver",
							"type": "string"
						},
						{
							"indexed": false,
							"internalType": "uint256",
							"name": "nonce",
							"type": "uint256"
						}
					],
					"name": "Request_Approved",
					"type": "event"
				},
				{
					"inputs": [
						{
							"internalType": "address",
							"name": "_multisig_address",
							"type": "address"
						}
					],
					"name": "ChangeMultisigAddress",
					"outputs": [],
					"stateMutability": "nonpayable",
					"type": "function"
				},
				{
					"inputs": [
						{
							"internalType": "uint256",
							"name": "amount",
							"type": "uint256"
						},
						{
							"internalType": "string",
							"name": "receiver",
							"type": "string"
						}
					],
					"name": "Deposit",
					"outputs": [],
					"stateMutability": "nonpayable",
					"type": "function"
				},
				{
					"inputs": [
						{
							"internalType": "address",
							"name": "recipient",
							"type": "address"
						},
						{
							"internalType": "uint256",
							"name": "amount",
							"type": "uint256"
						}
					],
					"name": "Transfer",
					"outputs": [],
					"stateMutability": "nonpayable",
					"type": "function"
				},
				{
					"inputs": [],
					"name": "external_balance",
					"outputs": [
						{
							"internalType": "uint256",
							"name": "",
							"type": "uint256"
						}
					],
					"stateMutability": "view",
					"type": "function"
				},
				{
					"inputs": [],
					"name": "multisig_contract",
					"outputs": [
						{
							"internalType": "address",
							"name": "",
							"type": "address"
						}
					],
					"stateMutability": "view",
					"type": "function"
				},
				{
					"inputs": [],
					"name": "nonce",
					"outputs": [
						{
							"internalType": "uint256",
							"name": "",
							"type": "uint256"
						}
					],
					"stateMutability": "view",
					"type": "function"
				},
				{
					"inputs": [],
					"name": "own_balance",
					"outputs": [
						{
							"internalType": "uint256",
							"name": "",
							"type": "uint256"
						}
					],
					"stateMutability": "view",
					"type": "function"
				},
				{
					"inputs": [],
					"name": "start_balance",
					"outputs": [
						{
							"internalType": "uint256",
							"name": "",
							"type": "uint256"
						}
					],
					"stateMutability": "view",
					"type": "function"
				},
				{
					"inputs": [],
					"name": "token",
					"outputs": [
						{
							"internalType": "address",
							"name": "",
							"type": "address"
						}
					],
					"stateMutability": "view",
					"type": "function"
				}
			],
			"devdoc": {
				"author": "no-hive",
				"kind": "dev",
				"methods": {},
				"title": "Simple USDC Stacks-Base Bridge",
				"version": 1
			},
			"evm": {
				"assembly": "    /* \"bridge_sol.sol\":646:4063  contract Bridge_sol {... */\n  mstore(0x40, 0x80)\n    /* \"bridge_sol.sol\":1478:1810  constructor(... */\n  callvalue\n  dup1\n  iszero\n  tag_1\n  jumpi\n  revert(0x00, 0x00)\ntag_1:\n  pop\n  mload(0x40)\n  sub(codesize, bytecodeSize)\n  dup1\n  bytecodeSize\n  dup4\n  codecopy\n  dup2\n  dup2\n  add\n  0x40\n  mstore\n  dup2\n  add\n  swap1\n  tag_2\n  swap2\n  swap1\n  tag_3\n  jump\t// in\ntag_2:\n    /* \"bridge_sol.sol\":1615:1627  _own_balance */\n  dup3\n    /* \"bridge_sol.sol\":1595:1606  own_balance */\n  0x00\n    /* \"bridge_sol.sol\":1595:1627  own_balance       = _own_balance */\n  dup2\n  swap1\n  sstore\n  pop\n    /* \"bridge_sol.sol\":1657:1674  _external_balance */\n  dup2\n    /* \"bridge_sol.sol\":1637:1653  external_balance */\n  0x01\n    /* \"bridge_sol.sol\":1637:1674  external_balance  = _external_balance */\n  dup2\n  swap1\n  sstore\n  pop\n    /* \"bridge_sol.sol\":1724:1736  _own_balance */\n  dup3\n    /* \"bridge_sol.sol\":1704:1721  _external_balance */\n  dup3\n    /* \"bridge_sol.sol\":1704:1736  _external_balance + _own_balance */\n  tag_6\n  swap2\n  swap1\n  tag_7\n  jump\t// in\ntag_6:\n    /* \"bridge_sol.sol\":1684:1697  start_balance */\n  0x02\n    /* \"bridge_sol.sol\":1684:1736  start_balance     = _external_balance + _own_balance */\n  dup2\n  swap1\n  sstore\n  pop\n    /* \"bridge_sol.sol\":1766:1772  _token */\n  dup1\n    /* \"bridge_sol.sol\":1746:1751  token */\n  0x04\n  0x00\n    /* \"bridge_sol.sol\":1746:1772  token             = _token */\n  0x0100\n  exp\n  dup2\n  sload\n  dup2\n  0xffffffffffffffffffffffffffffffffffffffff\n  mul\n  not\n  and\n  swap1\n  dup4\n  0xffffffffffffffffffffffffffffffffffffffff\n  and\n  mul\n  or\n  swap1\n  sstore\n  pop\n    /* \"bridge_sol.sol\":1802:1803  0 */\n  0x00\n    /* \"bridge_sol.sol\":1782:1787  nonce */\n  0x03\n    /* \"bridge_sol.sol\":1782:1803  nonce             = 0 */\n  dup2\n  swap1\n  sstore\n  pop\n    /* \"bridge_sol.sol\":1478:1810  constructor(... */\n  pop\n  pop\n  pop\n    /* \"bridge_sol.sol\":646:4063  contract Bridge_sol {... */\n  jump(tag_8)\n    /* \"#utility.yul\":88:205   */\ntag_10:\n    /* \"#utility.yul\":197:198   */\n  0x00\n    /* \"#utility.yul\":194:195   */\n  0x00\n    /* \"#utility.yul\":187:199   */\n  revert\n    /* \"#utility.yul\":334:411   */\ntag_12:\n    /* \"#utility.yul\":371:378   */\n  0x00\n    /* \"#utility.yul\":400:405   */\n  dup2\n    /* \"#utility.yul\":389:405   */\n  swap1\n  pop\n    /* \"#utility.yul\":334:411   */\n  swap2\n  swap1\n  pop\n  jump\t// out\n    /* \"#utility.yul\":417:539   */\ntag_13:\n    /* \"#utility.yul\":490:514   */\n  tag_26\n    /* \"#utility.yul\":508:513   */\n  dup2\n    /* \"#utility.yul\":490:514   */\n  tag_12\n  jump\t// in\ntag_26:\n    /* \"#utility.yul\":483:488   */\n  dup2\n    /* \"#utility.yul\":480:515   */\n  eq\n    /* \"#utility.yul\":470:533   */\n  tag_27\n  jumpi\n    /* \"#utility.yul\":529:530   */\n  0x00\n    /* \"#utility.yul\":526:527   */\n  0x00\n    /* \"#utility.yul\":519:531   */\n  revert\n    /* \"#utility.yul\":470:533   */\ntag_27:\n    /* \"#utility.yul\":417:539   */\n  pop\n  jump\t// out\n    /* \"#utility.yul\":545:688   */\ntag_14:\n    /* \"#utility.yul\":602:607   */\n  0x00\n    /* \"#utility.yul\":633:639   */\n  dup2\n    /* \"#utility.yul\":627:640   */\n  mload\n    /* \"#utility.yul\":618:640   */\n  swap1\n  pop\n    /* \"#utility.yul\":649:682   */\n  tag_29\n    /* \"#utility.yul\":676:681   */\n  dup2\n    /* \"#utility.yul\":649:682   */\n  tag_13\n  jump\t// in\ntag_29:\n    /* \"#utility.yul\":545:688   */\n  swap3\n  swap2\n  pop\n  pop\n  jump\t// out\n    /* \"#utility.yul\":694:820   */\ntag_15:\n    /* \"#utility.yul\":731:738   */\n  0x00\n    /* \"#utility.yul\":771:813   */\n  0xffffffffffffffffffffffffffffffffffffffff\n    /* \"#utility.yul\":764:769   */\n  dup3\n    /* \"#utility.yul\":760:814   */\n  and\n    /* \"#utility.yul\":749:814   */\n  swap1\n  pop\n    /* \"#utility.yul\":694:820   */\n  swap2\n  swap1\n  pop\n  jump\t// out\n    /* \"#utility.yul\":826:922   */\ntag_16:\n    /* \"#utility.yul\":863:870   */\n  0x00\n    /* \"#utility.yul\":892:916   */\n  tag_32\n    /* \"#utility.yul\":910:915   */\n  dup3\n    /* \"#utility.yul\":892:916   */\n  tag_15\n  jump\t// in\ntag_32:\n    /* \"#utility.yul\":881:916   */\n  swap1\n  pop\n    /* \"#utility.yul\":826:922   */\n  swap2\n  swap1\n  pop\n  jump\t// out\n    /* \"#utility.yul\":928:1050   */\ntag_17:\n    /* \"#utility.yul\":1001:1025   */\n  tag_34\n    /* \"#utility.yul\":1019:1024   */\n  dup2\n    /* \"#utility.yul\":1001:1025   */\n  tag_16\n  jump\t// in\ntag_34:\n    /* \"#utility.yul\":994:999   */\n  dup2\n    /* \"#utility.yul\":991:1026   */\n  eq\n    /* \"#utility.yul\":981:1044   */\n  tag_35\n  jumpi\n    /* \"#utility.yul\":1040:1041   */\n  0x00\n    /* \"#utility.yul\":1037:1038   */\n  0x00\n    /* \"#utility.yul\":1030:1042   */\n  revert\n    /* \"#utility.yul\":981:1044   */\ntag_35:\n    /* \"#utility.yul\":928:1050   */\n  pop\n  jump\t// out\n    /* \"#utility.yul\":1056:1199   */\ntag_18:\n    /* \"#utility.yul\":1113:1118   */\n  0x00\n    /* \"#utility.yul\":1144:1150   */\n  dup2\n    /* \"#utility.yul\":1138:1151   */\n  mload\n    /* \"#utility.yul\":1129:1151   */\n  swap1\n  pop\n    /* \"#utility.yul\":1160:1193   */\n  tag_37\n    /* \"#utility.yul\":1187:1192   */\n  dup2\n    /* \"#utility.yul\":1160:1193   */\n  tag_17\n  jump\t// in\ntag_37:\n    /* \"#utility.yul\":1056:1199   */\n  swap3\n  swap2\n  pop\n  pop\n  jump\t// out\n    /* \"#utility.yul\":1205:1868   */\ntag_3:\n    /* \"#utility.yul\":1293:1299   */\n  0x00\n    /* \"#utility.yul\":1301:1307   */\n  0x00\n    /* \"#utility.yul\":1309:1315   */\n  0x00\n    /* \"#utility.yul\":1358:1360   */\n  0x60\n    /* \"#utility.yul\":1346:1355   */\n  dup5\n    /* \"#utility.yul\":1337:1344   */\n  dup7\n    /* \"#utility.yul\":1333:1356   */\n  sub\n    /* \"#utility.yul\":1329:1361   */\n  slt\n    /* \"#utility.yul\":1326:1445   */\n  iszero\n  tag_39\n  jumpi\n    /* \"#utility.yul\":1364:1443   */\n  tag_40\n  tag_10\n  jump\t// in\ntag_40:\n    /* \"#utility.yul\":1326:1445   */\ntag_39:\n    /* \"#utility.yul\":1484:1485   */\n  0x00\n    /* \"#utility.yul\":1509:1573   */\n  tag_41\n    /* \"#utility.yul\":1565:1572   */\n  dup7\n    /* \"#utility.yul\":1556:1562   */\n  dup3\n    /* \"#utility.yul\":1545:1554   */\n  dup8\n    /* \"#utility.yul\":1541:1563   */\n  add\n    /* \"#utility.yul\":1509:1573   */\n  tag_14\n  jump\t// in\ntag_41:\n    /* \"#utility.yul\":1499:1573   */\n  swap4\n  pop\n    /* \"#utility.yul\":1455:1583   */\n  pop\n    /* \"#utility.yul\":1622:1624   */\n  0x20\n    /* \"#utility.yul\":1648:1712   */\n  tag_42\n    /* \"#utility.yul\":1704:1711   */\n  dup7\n    /* \"#utility.yul\":1695:1701   */\n  dup3\n    /* \"#utility.yul\":1684:1693   */\n  dup8\n    /* \"#utility.yul\":1680:1702   */\n  add\n    /* \"#utility.yul\":1648:1712   */\n  tag_14\n  jump\t// in\ntag_42:\n    /* \"#utility.yul\":1638:1712   */\n  swap3\n  pop\n    /* \"#utility.yul\":1593:1722   */\n  pop\n    /* \"#utility.yul\":1761:1763   */\n  0x40\n    /* \"#utility.yul\":1787:1851   */\n  tag_43\n    /* \"#utility.yul\":1843:1850   */\n  dup7\n    /* \"#utility.yul\":1834:1840   */\n  dup3\n    /* \"#utility.yul\":1823:1832   */\n  dup8\n    /* \"#utility.yul\":1819:1841   */\n  add\n    /* \"#utility.yul\":1787:1851   */\n  tag_18\n  jump\t// in\ntag_43:\n    /* \"#utility.yul\":1777:1851   */\n  swap2\n  pop\n    /* \"#utility.yul\":1732:1861   */\n  pop\n    /* \"#utility.yul\":1205:1868   */\n  swap3\n  pop\n  swap3\n  pop\n  swap3\n  jump\t// out\n    /* \"#utility.yul\":1874:2054   */\ntag_19:\n    /* \"#utility.yul\":1922:1999   */\n  0x4e487b7100000000000000000000000000000000000000000000000000000000\n    /* \"#utility.yul\":1919:1920   */\n  0x00\n    /* \"#utility.yul\":1912:2000   */\n  mstore\n    /* \"#utility.yul\":2019:2023   */\n  0x11\n    /* \"#utility.yul\":2016:2017   */\n  0x04\n    /* \"#utility.yul\":2009:2024   */\n  mstore\n    /* \"#utility.yul\":2043:2047   */\n  0x24\n    /* \"#utility.yul\":2040:2041   */\n  0x00\n    /* \"#utility.yul\":2033:2048   */\n  revert\n    /* \"#utility.yul\":2060:2251   */\ntag_7:\n    /* \"#utility.yul\":2100:2103   */\n  0x00\n    /* \"#utility.yul\":2119:2139   */\n  tag_46\n    /* \"#utility.yul\":2137:2138   */\n  dup3\n    /* \"#utility.yul\":2119:2139   */\n  tag_12\n  jump\t// in\ntag_46:\n    /* \"#utility.yul\":2114:2139   */\n  swap2\n  pop\n    /* \"#utility.yul\":2153:2173   */\n  tag_47\n    /* \"#utility.yul\":2171:2172   */\n  dup4\n    /* \"#utility.yul\":2153:2173   */\n  tag_12\n  jump\t// in\ntag_47:\n    /* \"#utility.yul\":2148:2173   */\n  swap3\n  pop\n    /* \"#utility.yul\":2196:2197   */\n  dup3\n    /* \"#utility.yul\":2193:2194   */\n  dup3\n    /* \"#utility.yul\":2189:2198   */\n  add\n    /* \"#utility.yul\":2182:2198   */\n  swap1\n  pop\n    /* \"#utility.yul\":2217:2220   */\n  dup1\n    /* \"#utility.yul\":2214:2215   */\n  dup3\n    /* \"#utility.yul\":2211:2221   */\n  gt\n    /* \"#utility.yul\":2208:2244   */\n  iszero\n  tag_48\n  jumpi\n    /* \"#utility.yul\":2224:2242   */\n  tag_49\n  tag_19\n  jump\t// in\ntag_49:\n    /* \"#utility.yul\":2208:2244   */\ntag_48:\n    /* \"#utility.yul\":2060:2251   */\n  swap3\n  swap2\n  pop\n  pop\n  jump\t// out\n    /* \"bridge_sol.sol\":646:4063  contract Bridge_sol {... */\ntag_8:\n  dataSize(sub_0)\n  dup1\n  dataOffset(sub_0)\n  0x00\n  codecopy\n  0x00\n  return\nstop\n\nsub_0: assembly {\n        /* \"bridge_sol.sol\":646:4063  contract Bridge_sol {... */\n      mstore(0x40, 0x80)\n      callvalue\n      dup1\n      iszero\n      tag_1\n      jumpi\n      revert(0x00, 0x00)\n    tag_1:\n      pop\n      jumpi(tag_2, lt(calldatasize, 0x04))\n      shr(0xe0, calldataload(0x00))\n      dup1\n      0x6ce5edff\n      gt\n      tag_12\n      jumpi\n      dup1\n      0x6ce5edff\n      eq\n      tag_7\n      jumpi\n      dup1\n      0x9bfb2529\n      eq\n      tag_8\n      jumpi\n      dup1\n      0xaffed0e0\n      eq\n      tag_9\n      jumpi\n      dup1\n      0xdc7ccf43\n      eq\n      tag_10\n      jumpi\n      dup1\n      0xfc0c546a\n      eq\n      tag_11\n      jumpi\n      jump(tag_2)\n    tag_12:\n      dup1\n      0x02411f5a\n      eq\n      tag_3\n      jumpi\n      dup1\n      0x22a272c3\n      eq\n      tag_4\n      jumpi\n      dup1\n      0x62ef5dce\n      eq\n      tag_5\n      jumpi\n      dup1\n      0x69ca02dd\n      eq\n      tag_6\n      jumpi\n    tag_2:\n      revert(0x00, 0x00)\n        /* \"bridge_sol.sol\":2633:2947  function Deposit(uint256 amount, string memory receiver) external {... */\n    tag_3:\n      tag_13\n      0x04\n      dup1\n      calldatasize\n      sub\n      dup2\n      add\n      swap1\n      tag_14\n      swap2\n      swap1\n      tag_15\n      jump\t// in\n    tag_14:\n      tag_16\n      jump\t// in\n    tag_13:\n      stop\n        /* \"bridge_sol.sol\":3464:3676  function ChangeMultisigAddress (address _multisig_address) public {... */\n    tag_4:\n      tag_17\n      0x04\n      dup1\n      calldatasize\n      sub\n      dup2\n      add\n      swap1\n      tag_18\n      swap2\n      swap1\n      tag_19\n      jump\t// in\n    tag_18:\n      tag_20\n      jump\t// in\n    tag_17:\n      stop\n        /* \"bridge_sol.sol\":976:1004  uint256 public start_balance */\n    tag_5:\n      tag_21\n      tag_22\n      jump\t// in\n    tag_21:\n      mload(0x40)\n      tag_23\n      swap2\n      swap1\n      tag_24\n      jump\t// in\n    tag_23:\n      mload(0x40)\n      dup1\n      swap2\n      sub\n      swap1\n      return\n        /* \"bridge_sol.sol\":3183:3458  function Transfer(address recipient, uint256 amount) external {... */\n    tag_6:\n      tag_25\n      0x04\n      dup1\n      calldatasize\n      sub\n      dup2\n      add\n      swap1\n      tag_26\n      swap2\n      swap1\n      tag_27\n      jump\t// in\n    tag_26:\n      tag_28\n      jump\t// in\n    tag_25:\n      stop\n        /* \"bridge_sol.sol\":1439:1471  address public multisig_contract */\n    tag_7:\n      tag_29\n      tag_30\n      jump\t// in\n    tag_29:\n      mload(0x40)\n      tag_31\n      swap2\n      swap1\n      tag_32\n      jump\t// in\n    tag_31:\n      mload(0x40)\n      dup1\n      swap2\n      sub\n      swap1\n      return\n        /* \"bridge_sol.sol\":907:933  uint256 public own_balance */\n    tag_8:\n      tag_33\n      tag_34\n      jump\t// in\n    tag_33:\n      mload(0x40)\n      tag_35\n      swap2\n      swap1\n      tag_24\n      jump\t// in\n    tag_35:\n      mload(0x40)\n      dup1\n      swap2\n      sub\n      swap1\n      return\n        /* \"bridge_sol.sol\":1174:1194  uint256 public nonce */\n    tag_9:\n      tag_36\n      tag_37\n      jump\t// in\n    tag_36:\n      mload(0x40)\n      tag_38\n      swap2\n      swap1\n      tag_24\n      jump\t// in\n    tag_38:\n      mload(0x40)\n      dup1\n      swap2\n      sub\n      swap1\n      return\n        /* \"bridge_sol.sol\":939:970  uint256 public external_balance */\n    tag_10:\n      tag_39\n      tag_40\n      jump\t// in\n    tag_39:\n      mload(0x40)\n      tag_41\n      swap2\n      swap1\n      tag_24\n      jump\t// in\n    tag_41:\n      mload(0x40)\n      dup1\n      swap2\n      sub\n      swap1\n      return\n        /* \"bridge_sol.sol\":1281:1301  address public token */\n    tag_11:\n      tag_42\n      tag_43\n      jump\t// in\n    tag_42:\n      mload(0x40)\n      tag_44\n      swap2\n      swap1\n      tag_32\n      jump\t// in\n    tag_44:\n      mload(0x40)\n      dup1\n      swap2\n      sub\n      swap1\n      return\n        /* \"bridge_sol.sol\":2633:2947  function Deposit(uint256 amount, string memory receiver) external {... */\n    tag_16:\n        /* \"bridge_sol.sol\":2726:2727  0 */\n      0x00\n        /* \"bridge_sol.sol\":2717:2723  amount */\n      dup3\n        /* \"bridge_sol.sol\":2717:2727  amount > 0 */\n      gt\n        /* \"bridge_sol.sol\":2709:2764  require(amount > 0, \"Amount must be greater than zero\") */\n      tag_46\n      jumpi\n      mload(0x40)\n      0x08c379a000000000000000000000000000000000000000000000000000000000\n      dup2\n      mstore\n      0x04\n      add\n      tag_47\n      swap1\n      tag_48\n      jump\t// in\n    tag_47:\n      mload(0x40)\n      dup1\n      swap2\n      sub\n      swap1\n      revert\n    tag_46:\n        /* \"bridge_sol.sol\":2774:2786  bool success */\n      0x00\n        /* \"bridge_sol.sol\":2796:2801  token */\n      0x04\n      0x00\n      swap1\n      sload\n      swap1\n      0x0100\n      exp\n      swap1\n      div\n      0xffffffffffffffffffffffffffffffffffffffff\n      and\n        /* \"bridge_sol.sol\":2789:2815  IERC20(token).transferFrom */\n      0xffffffffffffffffffffffffffffffffffffffff\n      and\n      0x23b872dd\n        /* \"bridge_sol.sol\":2816:2826  msg.sender */\n      caller\n        /* \"bridge_sol.sol\":2836:2840  this */\n      address\n        /* \"bridge_sol.sol\":2843:2849  amount */\n      dup7\n        /* \"bridge_sol.sol\":2789:2850  IERC20(token).transferFrom(msg.sender, address(this), amount) */\n      mload(0x40)\n      dup5\n      0xffffffff\n      and\n      0xe0\n      shl\n      dup2\n      mstore\n      0x04\n      add\n      tag_49\n      swap4\n      swap3\n      swap2\n      swap1\n      tag_50\n      jump\t// in\n    tag_49:\n      0x20\n      mload(0x40)\n      dup1\n      dup4\n      sub\n      dup2\n      0x00\n      dup8\n      gas\n      call\n      iszero\n      dup1\n      iszero\n      tag_52\n      jumpi\n      returndatacopy(0x00, 0x00, returndatasize)\n      revert(0x00, returndatasize)\n    tag_52:\n      pop\n      pop\n      pop\n      pop\n      mload(0x40)\n      returndatasize\n      not(0x1f)\n      0x1f\n      dup3\n      add\n      and\n      dup3\n      add\n      dup1\n      0x40\n      mstore\n      pop\n      dup2\n      add\n      swap1\n      tag_53\n      swap2\n      swap1\n      tag_54\n      jump\t// in\n    tag_53:\n        /* \"bridge_sol.sol\":2774:2850  bool success = IERC20(token).transferFrom(msg.sender, address(this), amount) */\n      swap1\n      pop\n        /* \"bridge_sol.sol\":2868:2875  success */\n      dup1\n        /* \"bridge_sol.sol\":2860:2899  require(success, \"transferFrom failed\") */\n      tag_55\n      jumpi\n      mload(0x40)\n      0x08c379a000000000000000000000000000000000000000000000000000000000\n      dup2\n      mstore\n      0x04\n      add\n      tag_56\n      swap1\n      tag_57\n      jump\t// in\n    tag_56:\n      mload(0x40)\n      dup1\n      swap2\n      sub\n      swap1\n      revert\n    tag_55:\n        /* \"bridge_sol.sol\":2909:2940  BridgeRequest(amount, receiver) */\n      tag_58\n        /* \"bridge_sol.sol\":2923:2929  amount */\n      dup4\n        /* \"bridge_sol.sol\":2931:2939  receiver */\n      dup4\n        /* \"bridge_sol.sol\":2909:2922  BridgeRequest */\n      tag_59\n        /* \"bridge_sol.sol\":2909:2940  BridgeRequest(amount, receiver) */\n      jump\t// in\n    tag_58:\n        /* \"bridge_sol.sol\":2699:2947  {... */\n      pop\n        /* \"bridge_sol.sol\":2633:2947  function Deposit(uint256 amount, string memory receiver) external {... */\n      pop\n      pop\n      jump\t// out\n        /* \"bridge_sol.sol\":3464:3676  function ChangeMultisigAddress (address _multisig_address) public {... */\n    tag_20:\n        /* \"bridge_sol.sol\":3562:3604  0x9bB51A70c346d9CfF52b382E85851D78671ACcD0 */\n      0x9bb51a70c346d9cff52b382e85851d78671accd0\n        /* \"bridge_sol.sol\":3548:3604  msg.sender == 0x9bB51A70c346d9CfF52b382E85851D78671ACcD0 */\n      0xffffffffffffffffffffffffffffffffffffffff\n      and\n        /* \"bridge_sol.sol\":3548:3558  msg.sender */\n      caller\n        /* \"bridge_sol.sol\":3548:3604  msg.sender == 0x9bB51A70c346d9CfF52b382E85851D78671ACcD0 */\n      0xffffffffffffffffffffffffffffffffffffffff\n      and\n      eq\n        /* \"bridge_sol.sol\":3540:3622  require(msg.sender == 0x9bB51A70c346d9CfF52b382E85851D78671ACcD0, \"not a no-hive\") */\n      tag_61\n      jumpi\n      mload(0x40)\n      0x08c379a000000000000000000000000000000000000000000000000000000000\n      dup2\n      mstore\n      0x04\n      add\n      tag_62\n      swap1\n      tag_63\n      jump\t// in\n    tag_62:\n      mload(0x40)\n      dup1\n      swap2\n      sub\n      swap1\n      revert\n    tag_61:\n        /* \"bridge_sol.sol\":3652:3669  _multisig_address */\n      dup1\n        /* \"bridge_sol.sol\":3632:3649  multisig_contract */\n      0x05\n      0x00\n        /* \"bridge_sol.sol\":3632:3669  multisig_contract = _multisig_address */\n      0x0100\n      exp\n      dup2\n      sload\n      dup2\n      0xffffffffffffffffffffffffffffffffffffffff\n      mul\n      not\n      and\n      swap1\n      dup4\n      0xffffffffffffffffffffffffffffffffffffffff\n      and\n      mul\n      or\n      swap1\n      sstore\n      pop\n        /* \"bridge_sol.sol\":3464:3676  function ChangeMultisigAddress (address _multisig_address) public {... */\n      pop\n      jump\t// out\n        /* \"bridge_sol.sol\":976:1004  uint256 public start_balance */\n    tag_22:\n      sload(0x02)\n      dup2\n      jump\t// out\n        /* \"bridge_sol.sol\":3183:3458  function Transfer(address recipient, uint256 amount) external {... */\n    tag_28:\n        /* \"bridge_sol.sol\":3284:3294  msg.sender */\n      caller\n        /* \"bridge_sol.sol\":3263:3294  multisig_contract == msg.sender */\n      0xffffffffffffffffffffffffffffffffffffffff\n      and\n        /* \"bridge_sol.sol\":3263:3280  multisig_contract */\n      0x05\n      0x00\n      swap1\n      sload\n      swap1\n      0x0100\n      exp\n      swap1\n      div\n      0xffffffffffffffffffffffffffffffffffffffff\n      and\n        /* \"bridge_sol.sol\":3263:3294  multisig_contract == msg.sender */\n      0xffffffffffffffffffffffffffffffffffffffff\n      and\n      eq\n        /* \"bridge_sol.sol\":3255:3334  require(multisig_contract == msg.sender, \"Caller is not the multisig contract\") */\n      tag_65\n      jumpi\n      mload(0x40)\n      0x08c379a000000000000000000000000000000000000000000000000000000000\n      dup2\n      mstore\n      0x04\n      add\n      tag_66\n      swap1\n      tag_67\n      jump\t// in\n    tag_66:\n      mload(0x40)\n      dup1\n      swap2\n      sub\n      swap1\n      revert\n    tag_65:\n        /* \"bridge_sol.sol\":3344:3356  bool success */\n      0x00\n        /* \"bridge_sol.sol\":3366:3371  token */\n      0x04\n      0x00\n      swap1\n      sload\n      swap1\n      0x0100\n      exp\n      swap1\n      div\n      0xffffffffffffffffffffffffffffffffffffffff\n      and\n        /* \"bridge_sol.sol\":3359:3381  IERC20(token).transfer */\n      0xffffffffffffffffffffffffffffffffffffffff\n      and\n      0xa9059cbb\n        /* \"bridge_sol.sol\":3382:3391  recipient */\n      dup5\n        /* \"bridge_sol.sol\":3393:3399  amount */\n      dup5\n        /* \"bridge_sol.sol\":3359:3400  IERC20(token).transfer(recipient, amount) */\n      mload(0x40)\n      dup4\n      0xffffffff\n      and\n      0xe0\n      shl\n      dup2\n      mstore\n      0x04\n      add\n      tag_68\n      swap3\n      swap2\n      swap1\n      tag_69\n      jump\t// in\n    tag_68:\n      0x20\n      mload(0x40)\n      dup1\n      dup4\n      sub\n      dup2\n      0x00\n      dup8\n      gas\n      call\n      iszero\n      dup1\n      iszero\n      tag_71\n      jumpi\n      returndatacopy(0x00, 0x00, returndatasize)\n      revert(0x00, returndatasize)\n    tag_71:\n      pop\n      pop\n      pop\n      pop\n      mload(0x40)\n      returndatasize\n      not(0x1f)\n      0x1f\n      dup3\n      add\n      and\n      dup3\n      add\n      dup1\n      0x40\n      mstore\n      pop\n      dup2\n      add\n      swap1\n      tag_72\n      swap2\n      swap1\n      tag_54\n      jump\t// in\n    tag_72:\n        /* \"bridge_sol.sol\":3344:3400  bool success = IERC20(token).transfer(recipient, amount) */\n      swap1\n      pop\n        /* \"bridge_sol.sol\":3418:3425  success */\n      dup1\n        /* \"bridge_sol.sol\":3410:3451  require(success, \"Token transfer failed\") */\n      tag_73\n      jumpi\n      mload(0x40)\n      0x08c379a000000000000000000000000000000000000000000000000000000000\n      dup2\n      mstore\n      0x04\n      add\n      tag_74\n      swap1\n      tag_75\n      jump\t// in\n    tag_74:\n      mload(0x40)\n      dup1\n      swap2\n      sub\n      swap1\n      revert\n    tag_73:\n        /* \"bridge_sol.sol\":3245:3458  {... */\n      pop\n        /* \"bridge_sol.sol\":3183:3458  function Transfer(address recipient, uint256 amount) external {... */\n      pop\n      pop\n      jump\t// out\n        /* \"bridge_sol.sol\":1439:1471  address public multisig_contract */\n    tag_30:\n      0x05\n      0x00\n      swap1\n      sload\n      swap1\n      0x0100\n      exp\n      swap1\n      div\n      0xffffffffffffffffffffffffffffffffffffffff\n      and\n      dup2\n      jump\t// out\n        /* \"bridge_sol.sol\":907:933  uint256 public own_balance */\n    tag_34:\n      sload(0x00)\n      dup2\n      jump\t// out\n        /* \"bridge_sol.sol\":1174:1194  uint256 public nonce */\n    tag_37:\n      sload(0x03)\n      dup2\n      jump\t// out\n        /* \"bridge_sol.sol\":939:970  uint256 public external_balance */\n    tag_40:\n      sload(0x01)\n      dup2\n      jump\t// out\n        /* \"bridge_sol.sol\":1281:1301  address public token */\n    tag_43:\n      0x04\n      0x00\n      swap1\n      sload\n      swap1\n      0x0100\n      exp\n      swap1\n      div\n      0xffffffffffffffffffffffffffffffffffffffff\n      and\n      dup2\n      jump\t// out\n        /* \"bridge_sol.sol\":2071:2397  function BridgeRequest(uint256 amount, string memory receiver) internal {... */\n    tag_59:\n        /* \"bridge_sol.sol\":2180:2186  amount */\n      dup2\n        /* \"bridge_sol.sol\":2161:2177  external_balance */\n      sload(0x01)\n        /* \"bridge_sol.sol\":2161:2186  external_balance > amount */\n      gt\n        /* \"bridge_sol.sol\":2153:2230  require(external_balance > amount, \"Insufficient funds on destination chain\") */\n      tag_77\n      jumpi\n      mload(0x40)\n      0x08c379a000000000000000000000000000000000000000000000000000000000\n      dup2\n      mstore\n      0x04\n      add\n      tag_78\n      swap1\n      tag_79\n      jump\t// in\n    tag_78:\n      mload(0x40)\n      dup1\n      swap2\n      sub\n      swap1\n      revert\n    tag_77:\n        /* \"bridge_sol.sol\":2260:2266  amount */\n      dup2\n        /* \"bridge_sol.sol\":2240:2256  external_balance */\n      0x01\n      0x00\n        /* \"bridge_sol.sol\":2240:2266  external_balance -= amount */\n      dup3\n      dup3\n      sload\n      tag_80\n      swap2\n      swap1\n      tag_81\n      jump\t// in\n    tag_80:\n      swap3\n      pop\n      pop\n      dup2\n      swap1\n      sstore\n      pop\n        /* \"bridge_sol.sol\":2296:2302  amount */\n      dup2\n        /* \"bridge_sol.sol\":2276:2287  own_balance */\n      0x00\n      0x00\n        /* \"bridge_sol.sol\":2276:2302  own_balance      += amount */\n      dup3\n      dup3\n      sload\n      tag_82\n      swap2\n      swap1\n      tag_83\n      jump\t// in\n    tag_82:\n      swap3\n      pop\n      pop\n      dup2\n      swap1\n      sstore\n      pop\n        /* \"bridge_sol.sol\":2334:2344  msg.sender */\n      caller\n        /* \"bridge_sol.sol\":2317:2370  Request_Approved(msg.sender, amount, receiver, nonce) */\n      0xffffffffffffffffffffffffffffffffffffffff\n      and\n      0x4ae16418416b042e51fc7d3cd38a51016f389d862442eaa688117bcdd497fff9\n        /* \"bridge_sol.sol\":2346:2352  amount */\n      dup4\n        /* \"bridge_sol.sol\":2354:2362  receiver */\n      dup4\n        /* \"bridge_sol.sol\":2364:2369  nonce */\n      sload(0x03)\n        /* \"bridge_sol.sol\":2317:2370  Request_Approved(msg.sender, amount, receiver, nonce) */\n      mload(0x40)\n      tag_84\n      swap4\n      swap3\n      swap2\n      swap1\n      tag_85\n      jump\t// in\n    tag_84:\n      mload(0x40)\n      dup1\n      swap2\n      sub\n      swap1\n      log2\n        /* \"bridge_sol.sol\":2389:2390  1 */\n      0x01\n        /* \"bridge_sol.sol\":2380:2385  nonce */\n      0x03\n      0x00\n        /* \"bridge_sol.sol\":2380:2390  nonce += 1 */\n      dup3\n      dup3\n      sload\n      tag_86\n      swap2\n      swap1\n      tag_83\n      jump\t// in\n    tag_86:\n      swap3\n      pop\n      pop\n      dup2\n      swap1\n      sstore\n      pop\n        /* \"bridge_sol.sol\":2071:2397  function BridgeRequest(uint256 amount, string memory receiver) internal {... */\n      pop\n      pop\n      jump\t// out\n        /* \"#utility.yul\":7:82   */\n    tag_87:\n        /* \"#utility.yul\":40:46   */\n      0x00\n        /* \"#utility.yul\":73:75   */\n      0x40\n        /* \"#utility.yul\":67:76   */\n      mload\n        /* \"#utility.yul\":57:76   */\n      swap1\n      pop\n        /* \"#utility.yul\":7:82   */\n      swap1\n      jump\t// out\n        /* \"#utility.yul\":88:205   */\n    tag_88:\n        /* \"#utility.yul\":197:198   */\n      0x00\n        /* \"#utility.yul\":194:195   */\n      0x00\n        /* \"#utility.yul\":187:199   */\n      revert\n        /* \"#utility.yul\":211:328   */\n    tag_89:\n        /* \"#utility.yul\":320:321   */\n      0x00\n        /* \"#utility.yul\":317:318   */\n      0x00\n        /* \"#utility.yul\":310:322   */\n      revert\n        /* \"#utility.yul\":334:411   */\n    tag_90:\n        /* \"#utility.yul\":371:378   */\n      0x00\n        /* \"#utility.yul\":400:405   */\n      dup2\n        /* \"#utility.yul\":389:405   */\n      swap1\n      pop\n        /* \"#utility.yul\":334:411   */\n      swap2\n      swap1\n      pop\n      jump\t// out\n        /* \"#utility.yul\":417:539   */\n    tag_91:\n        /* \"#utility.yul\":490:514   */\n      tag_135\n        /* \"#utility.yul\":508:513   */\n      dup2\n        /* \"#utility.yul\":490:514   */\n      tag_90\n      jump\t// in\n    tag_135:\n        /* \"#utility.yul\":483:488   */\n      dup2\n        /* \"#utility.yul\":480:515   */\n      eq\n        /* \"#utility.yul\":470:533   */\n      tag_136\n      jumpi\n        /* \"#utility.yul\":529:530   */\n      0x00\n        /* \"#utility.yul\":526:527   */\n      0x00\n        /* \"#utility.yul\":519:531   */\n      revert\n        /* \"#utility.yul\":470:533   */\n    tag_136:\n        /* \"#utility.yul\":417:539   */\n      pop\n      jump\t// out\n        /* \"#utility.yul\":545:684   */\n    tag_92:\n        /* \"#utility.yul\":591:596   */\n      0x00\n        /* \"#utility.yul\":629:635   */\n      dup2\n        /* \"#utility.yul\":616:636   */\n      calldataload\n        /* \"#utility.yul\":607:636   */\n      swap1\n      pop\n        /* \"#utility.yul\":645:678   */\n      tag_138\n        /* \"#utility.yul\":672:677   */\n      dup2\n        /* \"#utility.yul\":645:678   */\n      tag_91\n      jump\t// in\n    tag_138:\n        /* \"#utility.yul\":545:684   */\n      swap3\n      swap2\n      pop\n      pop\n      jump\t// out\n        /* \"#utility.yul\":690:807   */\n    tag_93:\n        /* \"#utility.yul\":799:800   */\n      0x00\n        /* \"#utility.yul\":796:797   */\n      0x00\n        /* \"#utility.yul\":789:801   */\n      revert\n        /* \"#utility.yul\":813:930   */\n    tag_94:\n        /* \"#utility.yul\":922:923   */\n      0x00\n        /* \"#utility.yul\":919:920   */\n      0x00\n        /* \"#utility.yul\":912:924   */\n      revert\n        /* \"#utility.yul\":936:1038   */\n    tag_95:\n        /* \"#utility.yul\":977:983   */\n      0x00\n        /* \"#utility.yul\":1028:1030   */\n      0x1f\n        /* \"#utility.yul\":1024:1031   */\n      not\n        /* \"#utility.yul\":1019:1021   */\n      0x1f\n        /* \"#utility.yul\":1012:1017   */\n      dup4\n        /* \"#utility.yul\":1008:1022   */\n      add\n        /* \"#utility.yul\":1004:1032   */\n      and\n        /* \"#utility.yul\":994:1032   */\n      swap1\n      pop\n        /* \"#utility.yul\":936:1038   */\n      swap2\n      swap1\n      pop\n      jump\t// out\n        /* \"#utility.yul\":1044:1224   */\n    tag_96:\n        /* \"#utility.yul\":1092:1169   */\n      0x4e487b7100000000000000000000000000000000000000000000000000000000\n        /* \"#utility.yul\":1089:1090   */\n      0x00\n        /* \"#utility.yul\":1082:1170   */\n      mstore\n        /* \"#utility.yul\":1189:1193   */\n      0x41\n        /* \"#utility.yul\":1186:1187   */\n      0x04\n        /* \"#utility.yul\":1179:1194   */\n      mstore\n        /* \"#utility.yul\":1213:1217   */\n      0x24\n        /* \"#utility.yul\":1210:1211   */\n      0x00\n        /* \"#utility.yul\":1203:1218   */\n      revert\n        /* \"#utility.yul\":1230:1511   */\n    tag_97:\n        /* \"#utility.yul\":1313:1340   */\n      tag_144\n        /* \"#utility.yul\":1335:1339   */\n      dup3\n        /* \"#utility.yul\":1313:1340   */\n      tag_95\n      jump\t// in\n    tag_144:\n        /* \"#utility.yul\":1305:1311   */\n      dup2\n        /* \"#utility.yul\":1301:1341   */\n      add\n        /* \"#utility.yul\":1443:1449   */\n      dup2\n        /* \"#utility.yul\":1431:1441   */\n      dup2\n        /* \"#utility.yul\":1428:1450   */\n      lt\n        /* \"#utility.yul\":1407:1425   */\n      0xffffffffffffffff\n        /* \"#utility.yul\":1395:1405   */\n      dup3\n        /* \"#utility.yul\":1392:1426   */\n      gt\n        /* \"#utility.yul\":1389:1451   */\n      or\n        /* \"#utility.yul\":1386:1474   */\n      iszero\n      tag_145\n      jumpi\n        /* \"#utility.yul\":1454:1472   */\n      tag_146\n      tag_96\n      jump\t// in\n    tag_146:\n        /* \"#utility.yul\":1386:1474   */\n    tag_145:\n        /* \"#utility.yul\":1494:1504   */\n      dup1\n        /* \"#utility.yul\":1490:1492   */\n      0x40\n        /* \"#utility.yul\":1483:1505   */\n      mstore\n        /* \"#utility.yul\":1273:1511   */\n      pop\n        /* \"#utility.yul\":1230:1511   */\n      pop\n      pop\n      jump\t// out\n        /* \"#utility.yul\":1517:1646   */\n    tag_98:\n        /* \"#utility.yul\":1551:1557   */\n      0x00\n        /* \"#utility.yul\":1578:1598   */\n      tag_148\n      tag_87\n      jump\t// in\n    tag_148:\n        /* \"#utility.yul\":1568:1598   */\n      swap1\n      pop\n        /* \"#utility.yul\":1607:1640   */\n      tag_149\n        /* \"#utility.yul\":1635:1639   */\n      dup3\n        /* \"#utility.yul\":1627:1633   */\n      dup3\n        /* \"#utility.yul\":1607:1640   */\n      tag_97\n      jump\t// in\n    tag_149:\n        /* \"#utility.yul\":1517:1646   */\n      swap2\n      swap1\n      pop\n      jump\t// out\n        /* \"#utility.yul\":1652:1960   */\n    tag_99:\n        /* \"#utility.yul\":1714:1718   */\n      0x00\n        /* \"#utility.yul\":1804:1822   */\n      0xffffffffffffffff\n        /* \"#utility.yul\":1796:1802   */\n      dup3\n        /* \"#utility.yul\":1793:1823   */\n      gt\n        /* \"#utility.yul\":1790:1846   */\n      iszero\n      tag_151\n      jumpi\n        /* \"#utility.yul\":1826:1844   */\n      tag_152\n      tag_96\n      jump\t// in\n    tag_152:\n        /* \"#utility.yul\":1790:1846   */\n    tag_151:\n        /* \"#utility.yul\":1864:1893   */\n      tag_153\n        /* \"#utility.yul\":1886:1892   */\n      dup3\n        /* \"#utility.yul\":1864:1893   */\n      tag_95\n      jump\t// in\n    tag_153:\n        /* \"#utility.yul\":1856:1893   */\n      swap1\n      pop\n        /* \"#utility.yul\":1948:1952   */\n      0x20\n        /* \"#utility.yul\":1942:1946   */\n      dup2\n        /* \"#utility.yul\":1938:1953   */\n      add\n        /* \"#utility.yul\":1930:1953   */\n      swap1\n      pop\n        /* \"#utility.yul\":1652:1960   */\n      swap2\n      swap1\n      pop\n      jump\t// out\n        /* \"#utility.yul\":1966:2114   */\n    tag_100:\n        /* \"#utility.yul\":2064:2070   */\n      dup3\n        /* \"#utility.yul\":2059:2062   */\n      dup2\n        /* \"#utility.yul\":2054:2057   */\n      dup4\n        /* \"#utility.yul\":2041:2071   */\n      calldatacopy\n        /* \"#utility.yul\":2105:2106   */\n      0x00\n        /* \"#utility.yul\":2096:2102   */\n      dup4\n        /* \"#utility.yul\":2091:2094   */\n      dup4\n        /* \"#utility.yul\":2087:2103   */\n      add\n        /* \"#utility.yul\":2080:2107   */\n      mstore\n        /* \"#utility.yul\":1966:2114   */\n      pop\n      pop\n      pop\n      jump\t// out\n        /* \"#utility.yul\":2120:2545   */\n    tag_101:\n        /* \"#utility.yul\":2198:2203   */\n      0x00\n        /* \"#utility.yul\":2223:2289   */\n      tag_156\n        /* \"#utility.yul\":2239:2288   */\n      tag_157\n        /* \"#utility.yul\":2281:2287   */\n      dup5\n        /* \"#utility.yul\":2239:2288   */\n      tag_99\n      jump\t// in\n    tag_157:\n        /* \"#utility.yul\":2223:2289   */\n      tag_98\n      jump\t// in\n    tag_156:\n        /* \"#utility.yul\":2214:2289   */\n      swap1\n      pop\n        /* \"#utility.yul\":2312:2318   */\n      dup3\n        /* \"#utility.yul\":2305:2310   */\n      dup2\n        /* \"#utility.yul\":2298:2319   */\n      mstore\n        /* \"#utility.yul\":2350:2354   */\n      0x20\n        /* \"#utility.yul\":2343:2348   */\n      dup2\n        /* \"#utility.yul\":2339:2355   */\n      add\n        /* \"#utility.yul\":2388:2391   */\n      dup5\n        /* \"#utility.yul\":2379:2385   */\n      dup5\n        /* \"#utility.yul\":2374:2377   */\n      dup5\n        /* \"#utility.yul\":2370:2386   */\n      add\n        /* \"#utility.yul\":2367:2392   */\n      gt\n        /* \"#utility.yul\":2364:2476   */\n      iszero\n      tag_158\n      jumpi\n        /* \"#utility.yul\":2395:2474   */\n      tag_159\n      tag_94\n      jump\t// in\n    tag_159:\n        /* \"#utility.yul\":2364:2476   */\n    tag_158:\n        /* \"#utility.yul\":2485:2539   */\n      tag_160\n        /* \"#utility.yul\":2532:2538   */\n      dup5\n        /* \"#utility.yul\":2527:2530   */\n      dup3\n        /* \"#utility.yul\":2522:2525   */\n      dup6\n        /* \"#utility.yul\":2485:2539   */\n      tag_100\n      jump\t// in\n    tag_160:\n        /* \"#utility.yul\":2204:2545   */\n      pop\n        /* \"#utility.yul\":2120:2545   */\n      swap4\n      swap3\n      pop\n      pop\n      pop\n      jump\t// out\n        /* \"#utility.yul\":2565:2905   */\n    tag_102:\n        /* \"#utility.yul\":2621:2626   */\n      0x00\n        /* \"#utility.yul\":2670:2673   */\n      dup3\n        /* \"#utility.yul\":2663:2667   */\n      0x1f\n        /* \"#utility.yul\":2655:2661   */\n      dup4\n        /* \"#utility.yul\":2651:2668   */\n      add\n        /* \"#utility.yul\":2647:2674   */\n      slt\n        /* \"#utility.yul\":2637:2759   */\n      tag_162\n      jumpi\n        /* \"#utility.yul\":2678:2757   */\n      tag_163\n      tag_93\n      jump\t// in\n    tag_163:\n        /* \"#utility.yul\":2637:2759   */\n    tag_162:\n        /* \"#utility.yul\":2795:2801   */\n      dup2\n        /* \"#utility.yul\":2782:2802   */\n      calldataload\n        /* \"#utility.yul\":2820:2899   */\n      tag_164\n        /* \"#utility.yul\":2895:2898   */\n      dup5\n        /* \"#utility.yul\":2887:2893   */\n      dup3\n        /* \"#utility.yul\":2880:2884   */\n      0x20\n        /* \"#utility.yul\":2872:2878   */\n      dup7\n        /* \"#utility.yul\":2868:2885   */\n      add\n        /* \"#utility.yul\":2820:2899   */\n      tag_101\n      jump\t// in\n    tag_164:\n        /* \"#utility.yul\":2811:2899   */\n      swap2\n      pop\n        /* \"#utility.yul\":2627:2905   */\n      pop\n        /* \"#utility.yul\":2565:2905   */\n      swap3\n      swap2\n      pop\n      pop\n      jump\t// out\n        /* \"#utility.yul\":2911:3565   */\n    tag_15:\n        /* \"#utility.yul\":2989:2995   */\n      0x00\n        /* \"#utility.yul\":2997:3003   */\n      0x00\n        /* \"#utility.yul\":3046:3048   */\n      0x40\n        /* \"#utility.yul\":3034:3043   */\n      dup4\n        /* \"#utility.yul\":3025:3032   */\n      dup6\n        /* \"#utility.yul\":3021:3044   */\n      sub\n        /* \"#utility.yul\":3017:3049   */\n      slt\n        /* \"#utility.yul\":3014:3133   */\n      iszero\n      tag_166\n      jumpi\n        /* \"#utility.yul\":3052:3131   */\n      tag_167\n      tag_88\n      jump\t// in\n    tag_167:\n        /* \"#utility.yul\":3014:3133   */\n    tag_166:\n        /* \"#utility.yul\":3172:3173   */\n      0x00\n        /* \"#utility.yul\":3197:3250   */\n      tag_168\n        /* \"#utility.yul\":3242:3249   */\n      dup6\n        /* \"#utility.yul\":3233:3239   */\n      dup3\n        /* \"#utility.yul\":3222:3231   */\n      dup7\n        /* \"#utility.yul\":3218:3240   */\n      add\n        /* \"#utility.yul\":3197:3250   */\n      tag_92\n      jump\t// in\n    tag_168:\n        /* \"#utility.yul\":3187:3250   */\n      swap3\n      pop\n        /* \"#utility.yul\":3143:3260   */\n      pop\n        /* \"#utility.yul\":3327:3329   */\n      0x20\n        /* \"#utility.yul\":3316:3325   */\n      dup4\n        /* \"#utility.yul\":3312:3330   */\n      add\n        /* \"#utility.yul\":3299:3331   */\n      calldataload\n        /* \"#utility.yul\":3358:3376   */\n      0xffffffffffffffff\n        /* \"#utility.yul\":3350:3356   */\n      dup2\n        /* \"#utility.yul\":3347:3377   */\n      gt\n        /* \"#utility.yul\":3344:3461   */\n      iszero\n      tag_169\n      jumpi\n        /* \"#utility.yul\":3380:3459   */\n      tag_170\n      tag_89\n      jump\t// in\n    tag_170:\n        /* \"#utility.yul\":3344:3461   */\n    tag_169:\n        /* \"#utility.yul\":3485:3548   */\n      tag_171\n        /* \"#utility.yul\":3540:3547   */\n      dup6\n        /* \"#utility.yul\":3531:3537   */\n      dup3\n        /* \"#utility.yul\":3520:3529   */\n      dup7\n        /* \"#utility.yul\":3516:3538   */\n      add\n        /* \"#utility.yul\":3485:3548   */\n      tag_102\n      jump\t// in\n    tag_171:\n        /* \"#utility.yul\":3475:3548   */\n      swap2\n      pop\n        /* \"#utility.yul\":3270:3558   */\n      pop\n        /* \"#utility.yul\":2911:3565   */\n      swap3\n      pop\n      swap3\n      swap1\n      pop\n      jump\t// out\n        /* \"#utility.yul\":3571:3697   */\n    tag_103:\n        /* \"#utility.yul\":3608:3615   */\n      0x00\n        /* \"#utility.yul\":3648:3690   */\n      0xffffffffffffffffffffffffffffffffffffffff\n        /* \"#utility.yul\":3641:3646   */\n      dup3\n        /* \"#utility.yul\":3637:3691   */\n      and\n        /* \"#utility.yul\":3626:3691   */\n      swap1\n      pop\n        /* \"#utility.yul\":3571:3697   */\n      swap2\n      swap1\n      pop\n      jump\t// out\n        /* \"#utility.yul\":3703:3799   */\n    tag_104:\n        /* \"#utility.yul\":3740:3747   */\n      0x00\n        /* \"#utility.yul\":3769:3793   */\n      tag_174\n        /* \"#utility.yul\":3787:3792   */\n      dup3\n        /* \"#utility.yul\":3769:3793   */\n      tag_103\n      jump\t// in\n    tag_174:\n        /* \"#utility.yul\":3758:3793   */\n      swap1\n      pop\n        /* \"#utility.yul\":3703:3799   */\n      swap2\n      swap1\n      pop\n      jump\t// out\n        /* \"#utility.yul\":3805:3927   */\n    tag_105:\n        /* \"#utility.yul\":3878:3902   */\n      tag_176\n        /* \"#utility.yul\":3896:3901   */\n      dup2\n        /* \"#utility.yul\":3878:3902   */\n      tag_104\n      jump\t// in\n    tag_176:\n        /* \"#utility.yul\":3871:3876   */\n      dup2\n        /* \"#utility.yul\":3868:3903   */\n      eq\n        /* \"#utility.yul\":3858:3921   */\n      tag_177\n      jumpi\n        /* \"#utility.yul\":3917:3918   */\n      0x00\n        /* \"#utility.yul\":3914:3915   */\n      0x00\n        /* \"#utility.yul\":3907:3919   */\n      revert\n        /* \"#utility.yul\":3858:3921   */\n    tag_177:\n        /* \"#utility.yul\":3805:3927   */\n      pop\n      jump\t// out\n        /* \"#utility.yul\":3933:4072   */\n    tag_106:\n        /* \"#utility.yul\":3979:3984   */\n      0x00\n        /* \"#utility.yul\":4017:4023   */\n      dup2\n        /* \"#utility.yul\":4004:4024   */\n      calldataload\n        /* \"#utility.yul\":3995:4024   */\n      swap1\n      pop\n        /* \"#utility.yul\":4033:4066   */\n      tag_179\n        /* \"#utility.yul\":4060:4065   */\n      dup2\n        /* \"#utility.yul\":4033:4066   */\n      tag_105\n      jump\t// in\n    tag_179:\n        /* \"#utility.yul\":3933:4072   */\n      swap3\n      swap2\n      pop\n      pop\n      jump\t// out\n        /* \"#utility.yul\":4078:4407   */\n    tag_19:\n        /* \"#utility.yul\":4137:4143   */\n      0x00\n        /* \"#utility.yul\":4186:4188   */\n      0x20\n        /* \"#utility.yul\":4174:4183   */\n      dup3\n        /* \"#utility.yul\":4165:4172   */\n      dup5\n        /* \"#utility.yul\":4161:4184   */\n      sub\n        /* \"#utility.yul\":4157:4189   */\n      slt\n        /* \"#utility.yul\":4154:4273   */\n      iszero\n      tag_181\n      jumpi\n        /* \"#utility.yul\":4192:4271   */\n      tag_182\n      tag_88\n      jump\t// in\n    tag_182:\n        /* \"#utility.yul\":4154:4273   */\n    tag_181:\n        /* \"#utility.yul\":4312:4313   */\n      0x00\n        /* \"#utility.yul\":4337:4390   */\n      tag_183\n        /* \"#utility.yul\":4382:4389   */\n      dup5\n        /* \"#utility.yul\":4373:4379   */\n      dup3\n        /* \"#utility.yul\":4362:4371   */\n      dup6\n        /* \"#utility.yul\":4358:4380   */\n      add\n        /* \"#utility.yul\":4337:4390   */\n      tag_106\n      jump\t// in\n    tag_183:\n        /* \"#utility.yul\":4327:4390   */\n      swap2\n      pop\n        /* \"#utility.yul\":4283:4400   */\n      pop\n        /* \"#utility.yul\":4078:4407   */\n      swap3\n      swap2\n      pop\n      pop\n      jump\t// out\n        /* \"#utility.yul\":4413:4531   */\n    tag_107:\n        /* \"#utility.yul\":4500:4524   */\n      tag_185\n        /* \"#utility.yul\":4518:4523   */\n      dup2\n        /* \"#utility.yul\":4500:4524   */\n      tag_90\n      jump\t// in\n    tag_185:\n        /* \"#utility.yul\":4495:4498   */\n      dup3\n        /* \"#utility.yul\":4488:4525   */\n      mstore\n        /* \"#utility.yul\":4413:4531   */\n      pop\n      pop\n      jump\t// out\n        /* \"#utility.yul\":4537:4759   */\n    tag_24:\n        /* \"#utility.yul\":4630:4634   */\n      0x00\n        /* \"#utility.yul\":4668:4670   */\n      0x20\n        /* \"#utility.yul\":4657:4666   */\n      dup3\n        /* \"#utility.yul\":4653:4671   */\n      add\n        /* \"#utility.yul\":4645:4671   */\n      swap1\n      pop\n        /* \"#utility.yul\":4681:4752   */\n      tag_187\n        /* \"#utility.yul\":4749:4750   */\n      0x00\n        /* \"#utility.yul\":4738:4747   */\n      dup4\n        /* \"#utility.yul\":4734:4751   */\n      add\n        /* \"#utility.yul\":4725:4731   */\n      dup5\n        /* \"#utility.yul\":4681:4752   */\n      tag_107\n      jump\t// in\n    tag_187:\n        /* \"#utility.yul\":4537:4759   */\n      swap3\n      swap2\n      pop\n      pop\n      jump\t// out\n        /* \"#utility.yul\":4765:5239   */\n    tag_27:\n        /* \"#utility.yul\":4833:4839   */\n      0x00\n        /* \"#utility.yul\":4841:4847   */\n      0x00\n        /* \"#utility.yul\":4890:4892   */\n      0x40\n        /* \"#utility.yul\":4878:4887   */\n      dup4\n        /* \"#utility.yul\":4869:4876   */\n      dup6\n        /* \"#utility.yul\":4865:4888   */\n      sub\n        /* \"#utility.yul\":4861:4893   */\n      slt\n        /* \"#utility.yul\":4858:4977   */\n      iszero\n      tag_189\n      jumpi\n        /* \"#utility.yul\":4896:4975   */\n      tag_190\n      tag_88\n      jump\t// in\n    tag_190:\n        /* \"#utility.yul\":4858:4977   */\n    tag_189:\n        /* \"#utility.yul\":5016:5017   */\n      0x00\n        /* \"#utility.yul\":5041:5094   */\n      tag_191\n        /* \"#utility.yul\":5086:5093   */\n      dup6\n        /* \"#utility.yul\":5077:5083   */\n      dup3\n        /* \"#utility.yul\":5066:5075   */\n      dup7\n        /* \"#utility.yul\":5062:5084   */\n      add\n        /* \"#utility.yul\":5041:5094   */\n      tag_106\n      jump\t// in\n    tag_191:\n        /* \"#utility.yul\":5031:5094   */\n      swap3\n      pop\n        /* \"#utility.yul\":4987:5104   */\n      pop\n        /* \"#utility.yul\":5143:5145   */\n      0x20\n        /* \"#utility.yul\":5169:5222   */\n      tag_192\n        /* \"#utility.yul\":5214:5221   */\n      dup6\n        /* \"#utility.yul\":5205:5211   */\n      dup3\n        /* \"#utility.yul\":5194:5203   */\n      dup7\n        /* \"#utility.yul\":5190:5212   */\n      add\n        /* \"#utility.yul\":5169:5222   */\n      tag_92\n      jump\t// in\n    tag_192:\n        /* \"#utility.yul\":5159:5222   */\n      swap2\n      pop\n        /* \"#utility.yul\":5114:5232   */\n      pop\n        /* \"#utility.yul\":4765:5239   */\n      swap3\n      pop\n      swap3\n      swap1\n      pop\n      jump\t// out\n        /* \"#utility.yul\":5245:5363   */\n    tag_108:\n        /* \"#utility.yul\":5332:5356   */\n      tag_194\n        /* \"#utility.yul\":5350:5355   */\n      dup2\n        /* \"#utility.yul\":5332:5356   */\n      tag_104\n      jump\t// in\n    tag_194:\n        /* \"#utility.yul\":5327:5330   */\n      dup3\n        /* \"#utility.yul\":5320:5357   */\n      mstore\n        /* \"#utility.yul\":5245:5363   */\n      pop\n      pop\n      jump\t// out\n        /* \"#utility.yul\":5369:5591   */\n    tag_32:\n        /* \"#utility.yul\":5462:5466   */\n      0x00\n        /* \"#utility.yul\":5500:5502   */\n      0x20\n        /* \"#utility.yul\":5489:5498   */\n      dup3\n        /* \"#utility.yul\":5485:5503   */\n      add\n        /* \"#utility.yul\":5477:5503   */\n      swap1\n      pop\n        /* \"#utility.yul\":5513:5584   */\n      tag_196\n        /* \"#utility.yul\":5581:5582   */\n      0x00\n        /* \"#utility.yul\":5570:5579   */\n      dup4\n        /* \"#utility.yul\":5566:5583   */\n      add\n        /* \"#utility.yul\":5557:5563   */\n      dup5\n        /* \"#utility.yul\":5513:5584   */\n      tag_108\n      jump\t// in\n    tag_196:\n        /* \"#utility.yul\":5369:5591   */\n      swap3\n      swap2\n      pop\n      pop\n      jump\t// out\n        /* \"#utility.yul\":5597:5766   */\n    tag_109:\n        /* \"#utility.yul\":5681:5692   */\n      0x00\n        /* \"#utility.yul\":5715:5721   */\n      dup3\n        /* \"#utility.yul\":5710:5713   */\n      dup3\n        /* \"#utility.yul\":5703:5722   */\n      mstore\n        /* \"#utility.yul\":5755:5759   */\n      0x20\n        /* \"#utility.yul\":5750:5753   */\n      dup3\n        /* \"#utility.yul\":5746:5760   */\n      add\n        /* \"#utility.yul\":5731:5760   */\n      swap1\n      pop\n        /* \"#utility.yul\":5597:5766   */\n      swap3\n      swap2\n      pop\n      pop\n      jump\t// out\n        /* \"#utility.yul\":5772:5954   */\n    tag_110:\n        /* \"#utility.yul\":5912:5946   */\n      0x416d6f756e74206d7573742062652067726561746572207468616e207a65726f\n        /* \"#utility.yul\":5908:5909   */\n      0x00\n        /* \"#utility.yul\":5900:5906   */\n      dup3\n        /* \"#utility.yul\":5896:5910   */\n      add\n        /* \"#utility.yul\":5889:5947   */\n      mstore\n        /* \"#utility.yul\":5772:5954   */\n      pop\n      jump\t// out\n        /* \"#utility.yul\":5960:6326   */\n    tag_111:\n        /* \"#utility.yul\":6102:6105   */\n      0x00\n        /* \"#utility.yul\":6123:6190   */\n      tag_200\n        /* \"#utility.yul\":6187:6189   */\n      0x20\n        /* \"#utility.yul\":6182:6185   */\n      dup4\n        /* \"#utility.yul\":6123:6190   */\n      tag_109\n      jump\t// in\n    tag_200:\n        /* \"#utility.yul\":6116:6190   */\n      swap2\n      pop\n        /* \"#utility.yul\":6199:6292   */\n      tag_201\n        /* \"#utility.yul\":6288:6291   */\n      dup3\n        /* \"#utility.yul\":6199:6292   */\n      tag_110\n      jump\t// in\n    tag_201:\n        /* \"#utility.yul\":6317:6319   */\n      0x20\n        /* \"#utility.yul\":6312:6315   */\n      dup3\n        /* \"#utility.yul\":6308:6320   */\n      add\n        /* \"#utility.yul\":6301:6320   */\n      swap1\n      pop\n        /* \"#utility.yul\":5960:6326   */\n      swap2\n      swap1\n      pop\n      jump\t// out\n        /* \"#utility.yul\":6332:6751   */\n    tag_48:\n        /* \"#utility.yul\":6498:6502   */\n      0x00\n        /* \"#utility.yul\":6536:6538   */\n      0x20\n        /* \"#utility.yul\":6525:6534   */\n      dup3\n        /* \"#utility.yul\":6521:6539   */\n      add\n        /* \"#utility.yul\":6513:6539   */\n      swap1\n      pop\n        /* \"#utility.yul\":6585:6594   */\n      dup2\n        /* \"#utility.yul\":6579:6583   */\n      dup2\n        /* \"#utility.yul\":6575:6595   */\n      sub\n        /* \"#utility.yul\":6571:6572   */\n      0x00\n        /* \"#utility.yul\":6560:6569   */\n      dup4\n        /* \"#utility.yul\":6556:6573   */\n      add\n        /* \"#utility.yul\":6549:6596   */\n      mstore\n        /* \"#utility.yul\":6613:6744   */\n      tag_203\n        /* \"#utility.yul\":6739:6743   */\n      dup2\n        /* \"#utility.yul\":6613:6744   */\n      tag_111\n      jump\t// in\n    tag_203:\n        /* \"#utility.yul\":6605:6744   */\n      swap1\n      pop\n        /* \"#utility.yul\":6332:6751   */\n      swap2\n      swap1\n      pop\n      jump\t// out\n        /* \"#utility.yul\":6757:7199   */\n    tag_50:\n        /* \"#utility.yul\":6906:6910   */\n      0x00\n        /* \"#utility.yul\":6944:6946   */\n      0x60\n        /* \"#utility.yul\":6933:6942   */\n      dup3\n        /* \"#utility.yul\":6929:6947   */\n      add\n        /* \"#utility.yul\":6921:6947   */\n      swap1\n      pop\n        /* \"#utility.yul\":6957:7028   */\n      tag_205\n        /* \"#utility.yul\":7025:7026   */\n      0x00\n        /* \"#utility.yul\":7014:7023   */\n      dup4\n        /* \"#utility.yul\":7010:7027   */\n      add\n        /* \"#utility.yul\":7001:7007   */\n      dup7\n        /* \"#utility.yul\":6957:7028   */\n      tag_108\n      jump\t// in\n    tag_205:\n        /* \"#utility.yul\":7038:7110   */\n      tag_206\n        /* \"#utility.yul\":7106:7108   */\n      0x20\n        /* \"#utility.yul\":7095:7104   */\n      dup4\n        /* \"#utility.yul\":7091:7109   */\n      add\n        /* \"#utility.yul\":7082:7088   */\n      dup6\n        /* \"#utility.yul\":7038:7110   */\n      tag_108\n      jump\t// in\n    tag_206:\n        /* \"#utility.yul\":7120:7192   */\n      tag_207\n        /* \"#utility.yul\":7188:7190   */\n      0x40\n        /* \"#utility.yul\":7177:7186   */\n      dup4\n        /* \"#utility.yul\":7173:7191   */\n      add\n        /* \"#utility.yul\":7164:7170   */\n      dup5\n        /* \"#utility.yul\":7120:7192   */\n      tag_107\n      jump\t// in\n    tag_207:\n        /* \"#utility.yul\":6757:7199   */\n      swap5\n      swap4\n      pop\n      pop\n      pop\n      pop\n      jump\t// out\n        /* \"#utility.yul\":7205:7295   */\n    tag_112:\n        /* \"#utility.yul\":7239:7246   */\n      0x00\n        /* \"#utility.yul\":7282:7287   */\n      dup2\n        /* \"#utility.yul\":7275:7288   */\n      iszero\n        /* \"#utility.yul\":7268:7289   */\n      iszero\n        /* \"#utility.yul\":7257:7289   */\n      swap1\n      pop\n        /* \"#utility.yul\":7205:7295   */\n      swap2\n      swap1\n      pop\n      jump\t// out\n        /* \"#utility.yul\":7301:7417   */\n    tag_113:\n        /* \"#utility.yul\":7371:7392   */\n      tag_210\n        /* \"#utility.yul\":7386:7391   */\n      dup2\n        /* \"#utility.yul\":7371:7392   */\n      tag_112\n      jump\t// in\n    tag_210:\n        /* \"#utility.yul\":7364:7369   */\n      dup2\n        /* \"#utility.yul\":7361:7393   */\n      eq\n        /* \"#utility.yul\":7351:7411   */\n      tag_211\n      jumpi\n        /* \"#utility.yul\":7407:7408   */\n      0x00\n        /* \"#utility.yul\":7404:7405   */\n      0x00\n        /* \"#utility.yul\":7397:7409   */\n      revert\n        /* \"#utility.yul\":7351:7411   */\n    tag_211:\n        /* \"#utility.yul\":7301:7417   */\n      pop\n      jump\t// out\n        /* \"#utility.yul\":7423:7560   */\n    tag_114:\n        /* \"#utility.yul\":7477:7482   */\n      0x00\n        /* \"#utility.yul\":7508:7514   */\n      dup2\n        /* \"#utility.yul\":7502:7515   */\n      mload\n        /* \"#utility.yul\":7493:7515   */\n      swap1\n      pop\n        /* \"#utility.yul\":7524:7554   */\n      tag_213\n        /* \"#utility.yul\":7548:7553   */\n      dup2\n        /* \"#utility.yul\":7524:7554   */\n      tag_113\n      jump\t// in\n    tag_213:\n        /* \"#utility.yul\":7423:7560   */\n      swap3\n      swap2\n      pop\n      pop\n      jump\t// out\n        /* \"#utility.yul\":7566:7911   */\n    tag_54:\n        /* \"#utility.yul\":7633:7639   */\n      0x00\n        /* \"#utility.yul\":7682:7684   */\n      0x20\n        /* \"#utility.yul\":7670:7679   */\n      dup3\n        /* \"#utility.yul\":7661:7668   */\n      dup5\n        /* \"#utility.yul\":7657:7680   */\n      sub\n        /* \"#utility.yul\":7653:7685   */\n      slt\n        /* \"#utility.yul\":7650:7769   */\n      iszero\n      tag_215\n      jumpi\n        /* \"#utility.yul\":7688:7767   */\n      tag_216\n      tag_88\n      jump\t// in\n    tag_216:\n        /* \"#utility.yul\":7650:7769   */\n    tag_215:\n        /* \"#utility.yul\":7808:7809   */\n      0x00\n        /* \"#utility.yul\":7833:7894   */\n      tag_217\n        /* \"#utility.yul\":7886:7893   */\n      dup5\n        /* \"#utility.yul\":7877:7883   */\n      dup3\n        /* \"#utility.yul\":7866:7875   */\n      dup6\n        /* \"#utility.yul\":7862:7884   */\n      add\n        /* \"#utility.yul\":7833:7894   */\n      tag_114\n      jump\t// in\n    tag_217:\n        /* \"#utility.yul\":7823:7894   */\n      swap2\n      pop\n        /* \"#utility.yul\":7779:7904   */\n      pop\n        /* \"#utility.yul\":7566:7911   */\n      swap3\n      swap2\n      pop\n      pop\n      jump\t// out\n        /* \"#utility.yul\":7917:8086   */\n    tag_115:\n        /* \"#utility.yul\":8057:8078   */\n      0x7472616e7366657246726f6d206661696c656400000000000000000000000000\n        /* \"#utility.yul\":8053:8054   */\n      0x00\n        /* \"#utility.yul\":8045:8051   */\n      dup3\n        /* \"#utility.yul\":8041:8055   */\n      add\n        /* \"#utility.yul\":8034:8079   */\n      mstore\n        /* \"#utility.yul\":7917:8086   */\n      pop\n      jump\t// out\n        /* \"#utility.yul\":8092:8458   */\n    tag_116:\n        /* \"#utility.yul\":8234:8237   */\n      0x00\n        /* \"#utility.yul\":8255:8322   */\n      tag_220\n        /* \"#utility.yul\":8319:8321   */\n      0x13\n        /* \"#utility.yul\":8314:8317   */\n      dup4\n        /* \"#utility.yul\":8255:8322   */\n      tag_109\n      jump\t// in\n    tag_220:\n        /* \"#utility.yul\":8248:8322   */\n      swap2\n      pop\n        /* \"#utility.yul\":8331:8424   */\n      tag_221\n        /* \"#utility.yul\":8420:8423   */\n      dup3\n        /* \"#utility.yul\":8331:8424   */\n      tag_115\n      jump\t// in\n    tag_221:\n        /* \"#utility.yul\":8449:8451   */\n      0x20\n        /* \"#utility.yul\":8444:8447   */\n      dup3\n        /* \"#utility.yul\":8440:8452   */\n      add\n        /* \"#utility.yul\":8433:8452   */\n      swap1\n      pop\n        /* \"#utility.yul\":8092:8458   */\n      swap2\n      swap1\n      pop\n      jump\t// out\n        /* \"#utility.yul\":8464:8883   */\n    tag_57:\n        /* \"#utility.yul\":8630:8634   */\n      0x00\n        /* \"#utility.yul\":8668:8670   */\n      0x20\n        /* \"#utility.yul\":8657:8666   */\n      dup3\n        /* \"#utility.yul\":8653:8671   */\n      add\n        /* \"#utility.yul\":8645:8671   */\n      swap1\n      pop\n        /* \"#utility.yul\":8717:8726   */\n      dup2\n        /* \"#utility.yul\":8711:8715   */\n      dup2\n        /* \"#utility.yul\":8707:8727   */\n      sub\n        /* \"#utility.yul\":8703:8704   */\n      0x00\n        /* \"#utility.yul\":8692:8701   */\n      dup4\n        /* \"#utility.yul\":8688:8705   */\n      add\n        /* \"#utility.yul\":8681:8728   */\n      mstore\n        /* \"#utility.yul\":8745:8876   */\n      tag_223\n        /* \"#utility.yul\":8871:8875   */\n      dup2\n        /* \"#utility.yul\":8745:8876   */\n      tag_116\n      jump\t// in\n    tag_223:\n        /* \"#utility.yul\":8737:8876   */\n      swap1\n      pop\n        /* \"#utility.yul\":8464:8883   */\n      swap2\n      swap1\n      pop\n      jump\t// out\n        /* \"#utility.yul\":8889:9052   */\n    tag_117:\n        /* \"#utility.yul\":9029:9044   */\n      0x6e6f742061206e6f2d6869766500000000000000000000000000000000000000\n        /* \"#utility.yul\":9025:9026   */\n      0x00\n        /* \"#utility.yul\":9017:9023   */\n      dup3\n        /* \"#utility.yul\":9013:9027   */\n      add\n        /* \"#utility.yul\":9006:9045   */\n      mstore\n        /* \"#utility.yul\":8889:9052   */\n      pop\n      jump\t// out\n        /* \"#utility.yul\":9058:9424   */\n    tag_118:\n        /* \"#utility.yul\":9200:9203   */\n      0x00\n        /* \"#utility.yul\":9221:9288   */\n      tag_226\n        /* \"#utility.yul\":9285:9287   */\n      0x0d\n        /* \"#utility.yul\":9280:9283   */\n      dup4\n        /* \"#utility.yul\":9221:9288   */\n      tag_109\n      jump\t// in\n    tag_226:\n        /* \"#utility.yul\":9214:9288   */\n      swap2\n      pop\n        /* \"#utility.yul\":9297:9390   */\n      tag_227\n        /* \"#utility.yul\":9386:9389   */\n      dup3\n        /* \"#utility.yul\":9297:9390   */\n      tag_117\n      jump\t// in\n    tag_227:\n        /* \"#utility.yul\":9415:9417   */\n      0x20\n        /* \"#utility.yul\":9410:9413   */\n      dup3\n        /* \"#utility.yul\":9406:9418   */\n      add\n        /* \"#utility.yul\":9399:9418   */\n      swap1\n      pop\n        /* \"#utility.yul\":9058:9424   */\n      swap2\n      swap1\n      pop\n      jump\t// out\n        /* \"#utility.yul\":9430:9849   */\n    tag_63:\n        /* \"#utility.yul\":9596:9600   */\n      0x00\n        /* \"#utility.yul\":9634:9636   */\n      0x20\n        /* \"#utility.yul\":9623:9632   */\n      dup3\n        /* \"#utility.yul\":9619:9637   */\n      add\n        /* \"#utility.yul\":9611:9637   */\n      swap1\n      pop\n        /* \"#utility.yul\":9683:9692   */\n      dup2\n        /* \"#utility.yul\":9677:9681   */\n      dup2\n        /* \"#utility.yul\":9673:9693   */\n      sub\n        /* \"#utility.yul\":9669:9670   */\n      0x00\n        /* \"#utility.yul\":9658:9667   */\n      dup4\n        /* \"#utility.yul\":9654:9671   */\n      add\n        /* \"#utility.yul\":9647:9694   */\n      mstore\n        /* \"#utility.yul\":9711:9842   */\n      tag_229\n        /* \"#utility.yul\":9837:9841   */\n      dup2\n        /* \"#utility.yul\":9711:9842   */\n      tag_118\n      jump\t// in\n    tag_229:\n        /* \"#utility.yul\":9703:9842   */\n      swap1\n      pop\n        /* \"#utility.yul\":9430:9849   */\n      swap2\n      swap1\n      pop\n      jump\t// out\n        /* \"#utility.yul\":9855:10077   */\n    tag_119:\n        /* \"#utility.yul\":9995:10029   */\n      0x43616c6c6572206973206e6f7420746865206d756c746973696720636f6e7472\n        /* \"#utility.yul\":9991:9992   */\n      0x00\n        /* \"#utility.yul\":9983:9989   */\n      dup3\n        /* \"#utility.yul\":9979:9993   */\n      add\n        /* \"#utility.yul\":9972:10030   */\n      mstore\n        /* \"#utility.yul\":10064:10069   */\n      0x6163740000000000000000000000000000000000000000000000000000000000\n        /* \"#utility.yul\":10059:10061   */\n      0x20\n        /* \"#utility.yul\":10051:10057   */\n      dup3\n        /* \"#utility.yul\":10047:10062   */\n      add\n        /* \"#utility.yul\":10040:10070   */\n      mstore\n        /* \"#utility.yul\":9855:10077   */\n      pop\n      jump\t// out\n        /* \"#utility.yul\":10083:10449   */\n    tag_120:\n        /* \"#utility.yul\":10225:10228   */\n      0x00\n        /* \"#utility.yul\":10246:10313   */\n      tag_232\n        /* \"#utility.yul\":10310:10312   */\n      0x23\n        /* \"#utility.yul\":10305:10308   */\n      dup4\n        /* \"#utility.yul\":10246:10313   */\n      tag_109\n      jump\t// in\n    tag_232:\n        /* \"#utility.yul\":10239:10313   */\n      swap2\n      pop\n        /* \"#utility.yul\":10322:10415   */\n      tag_233\n        /* \"#utility.yul\":10411:10414   */\n      dup3\n        /* \"#utility.yul\":10322:10415   */\n      tag_119\n      jump\t// in\n    tag_233:\n        /* \"#utility.yul\":10440:10442   */\n      0x40\n        /* \"#utility.yul\":10435:10438   */\n      dup3\n        /* \"#utility.yul\":10431:10443   */\n      add\n        /* \"#utility.yul\":10424:10443   */\n      swap1\n      pop\n        /* \"#utility.yul\":10083:10449   */\n      swap2\n      swap1\n      pop\n      jump\t// out\n        /* \"#utility.yul\":10455:10874   */\n    tag_67:\n        /* \"#utility.yul\":10621:10625   */\n      0x00\n        /* \"#utility.yul\":10659:10661   */\n      0x20\n        /* \"#utility.yul\":10648:10657   */\n      dup3\n        /* \"#utility.yul\":10644:10662   */\n      add\n        /* \"#utility.yul\":10636:10662   */\n      swap1\n      pop\n        /* \"#utility.yul\":10708:10717   */\n      dup2\n        /* \"#utility.yul\":10702:10706   */\n      dup2\n        /* \"#utility.yul\":10698:10718   */\n      sub\n        /* \"#utility.yul\":10694:10695   */\n      0x00\n        /* \"#utility.yul\":10683:10692   */\n      dup4\n        /* \"#utility.yul\":10679:10696   */\n      add\n        /* \"#utility.yul\":10672:10719   */\n      mstore\n        /* \"#utility.yul\":10736:10867   */\n      tag_235\n        /* \"#utility.yul\":10862:10866   */\n      dup2\n        /* \"#utility.yul\":10736:10867   */\n      tag_120\n      jump\t// in\n    tag_235:\n        /* \"#utility.yul\":10728:10867   */\n      swap1\n      pop\n        /* \"#utility.yul\":10455:10874   */\n      swap2\n      swap1\n      pop\n      jump\t// out\n        /* \"#utility.yul\":10880:11212   */\n    tag_69:\n        /* \"#utility.yul\":11001:11005   */\n      0x00\n        /* \"#utility.yul\":11039:11041   */\n      0x40\n        /* \"#utility.yul\":11028:11037   */\n      dup3\n        /* \"#utility.yul\":11024:11042   */\n      add\n        /* \"#utility.yul\":11016:11042   */\n      swap1\n      pop\n        /* \"#utility.yul\":11052:11123   */\n      tag_237\n        /* \"#utility.yul\":11120:11121   */\n      0x00\n        /* \"#utility.yul\":11109:11118   */\n      dup4\n        /* \"#utility.yul\":11105:11122   */\n      add\n        /* \"#utility.yul\":11096:11102   */\n      dup6\n        /* \"#utility.yul\":11052:11123   */\n      tag_108\n      jump\t// in\n    tag_237:\n        /* \"#utility.yul\":11133:11205   */\n      tag_238\n        /* \"#utility.yul\":11201:11203   */\n      0x20\n        /* \"#utility.yul\":11190:11199   */\n      dup4\n        /* \"#utility.yul\":11186:11204   */\n      add\n        /* \"#utility.yul\":11177:11183   */\n      dup5\n        /* \"#utility.yul\":11133:11205   */\n      tag_107\n      jump\t// in\n    tag_238:\n        /* \"#utility.yul\":10880:11212   */\n      swap4\n      swap3\n      pop\n      pop\n      pop\n      jump\t// out\n        /* \"#utility.yul\":11218:11389   */\n    tag_121:\n        /* \"#utility.yul\":11358:11381   */\n      0x546f6b656e207472616e73666572206661696c65640000000000000000000000\n        /* \"#utility.yul\":11354:11355   */\n      0x00\n        /* \"#utility.yul\":11346:11352   */\n      dup3\n        /* \"#utility.yul\":11342:11356   */\n      add\n        /* \"#utility.yul\":11335:11382   */\n      mstore\n        /* \"#utility.yul\":11218:11389   */\n      pop\n      jump\t// out\n        /* \"#utility.yul\":11395:11761   */\n    tag_122:\n        /* \"#utility.yul\":11537:11540   */\n      0x00\n        /* \"#utility.yul\":11558:11625   */\n      tag_241\n        /* \"#utility.yul\":11622:11624   */\n      0x15\n        /* \"#utility.yul\":11617:11620   */\n      dup4\n        /* \"#utility.yul\":11558:11625   */\n      tag_109\n      jump\t// in\n    tag_241:\n        /* \"#utility.yul\":11551:11625   */\n      swap2\n      pop\n        /* \"#utility.yul\":11634:11727   */\n      tag_242\n        /* \"#utility.yul\":11723:11726   */\n      dup3\n        /* \"#utility.yul\":11634:11727   */\n      tag_121\n      jump\t// in\n    tag_242:\n        /* \"#utility.yul\":11752:11754   */\n      0x20\n        /* \"#utility.yul\":11747:11750   */\n      dup3\n        /* \"#utility.yul\":11743:11755   */\n      add\n        /* \"#utility.yul\":11736:11755   */\n      swap1\n      pop\n        /* \"#utility.yul\":11395:11761   */\n      swap2\n      swap1\n      pop\n      jump\t// out\n        /* \"#utility.yul\":11767:12186   */\n    tag_75:\n        /* \"#utility.yul\":11933:11937   */\n      0x00\n        /* \"#utility.yul\":11971:11973   */\n      0x20\n        /* \"#utility.yul\":11960:11969   */\n      dup3\n        /* \"#utility.yul\":11956:11974   */\n      add\n        /* \"#utility.yul\":11948:11974   */\n      swap1\n      pop\n        /* \"#utility.yul\":12020:12029   */\n      dup2\n        /* \"#utility.yul\":12014:12018   */\n      dup2\n        /* \"#utility.yul\":12010:12030   */\n      sub\n        /* \"#utility.yul\":12006:12007   */\n      0x00\n        /* \"#utility.yul\":11995:12004   */\n      dup4\n        /* \"#utility.yul\":11991:12008   */\n      add\n        /* \"#utility.yul\":11984:12031   */\n      mstore\n        /* \"#utility.yul\":12048:12179   */\n      tag_244\n        /* \"#utility.yul\":12174:12178   */\n      dup2\n        /* \"#utility.yul\":12048:12179   */\n      tag_122\n      jump\t// in\n    tag_244:\n        /* \"#utility.yul\":12040:12179   */\n      swap1\n      pop\n        /* \"#utility.yul\":11767:12186   */\n      swap2\n      swap1\n      pop\n      jump\t// out\n        /* \"#utility.yul\":12192:12418   */\n    tag_123:\n        /* \"#utility.yul\":12332:12366   */\n      0x496e73756666696369656e742066756e6473206f6e2064657374696e6174696f\n        /* \"#utility.yul\":12328:12329   */\n      0x00\n        /* \"#utility.yul\":12320:12326   */\n      dup3\n        /* \"#utility.yul\":12316:12330   */\n      add\n        /* \"#utility.yul\":12309:12367   */\n      mstore\n        /* \"#utility.yul\":12401:12410   */\n      0x6e20636861696e00000000000000000000000000000000000000000000000000\n        /* \"#utility.yul\":12396:12398   */\n      0x20\n        /* \"#utility.yul\":12388:12394   */\n      dup3\n        /* \"#utility.yul\":12384:12399   */\n      add\n        /* \"#utility.yul\":12377:12411   */\n      mstore\n        /* \"#utility.yul\":12192:12418   */\n      pop\n      jump\t// out\n        /* \"#utility.yul\":12424:12790   */\n    tag_124:\n        /* \"#utility.yul\":12566:12569   */\n      0x00\n        /* \"#utility.yul\":12587:12654   */\n      tag_247\n        /* \"#utility.yul\":12651:12653   */\n      0x27\n        /* \"#utility.yul\":12646:12649   */\n      dup4\n        /* \"#utility.yul\":12587:12654   */\n      tag_109\n      jump\t// in\n    tag_247:\n        /* \"#utility.yul\":12580:12654   */\n      swap2\n      pop\n        /* \"#utility.yul\":12663:12756   */\n      tag_248\n        /* \"#utility.yul\":12752:12755   */\n      dup3\n        /* \"#utility.yul\":12663:12756   */\n      tag_123\n      jump\t// in\n    tag_248:\n        /* \"#utility.yul\":12781:12783   */\n      0x40\n        /* \"#utility.yul\":12776:12779   */\n      dup3\n        /* \"#utility.yul\":12772:12784   */\n      add\n        /* \"#utility.yul\":12765:12784   */\n      swap1\n      pop\n        /* \"#utility.yul\":12424:12790   */\n      swap2\n      swap1\n      pop\n      jump\t// out\n        /* \"#utility.yul\":12796:13215   */\n    tag_79:\n        /* \"#utility.yul\":12962:12966   */\n      0x00\n        /* \"#utility.yul\":13000:13002   */\n      0x20\n        /* \"#utility.yul\":12989:12998   */\n      dup3\n        /* \"#utility.yul\":12985:13003   */\n      add\n        /* \"#utility.yul\":12977:13003   */\n      swap1\n      pop\n        /* \"#utility.yul\":13049:13058   */\n      dup2\n        /* \"#utility.yul\":13043:13047   */\n      dup2\n        /* \"#utility.yul\":13039:13059   */\n      sub\n        /* \"#utility.yul\":13035:13036   */\n      0x00\n        /* \"#utility.yul\":13024:13033   */\n      dup4\n        /* \"#utility.yul\":13020:13037   */\n      add\n        /* \"#utility.yul\":13013:13060   */\n      mstore\n        /* \"#utility.yul\":13077:13208   */\n      tag_250\n        /* \"#utility.yul\":13203:13207   */\n      dup2\n        /* \"#utility.yul\":13077:13208   */\n      tag_124\n      jump\t// in\n    tag_250:\n        /* \"#utility.yul\":13069:13208   */\n      swap1\n      pop\n        /* \"#utility.yul\":12796:13215   */\n      swap2\n      swap1\n      pop\n      jump\t// out\n        /* \"#utility.yul\":13221:13401   */\n    tag_125:\n        /* \"#utility.yul\":13269:13346   */\n      0x4e487b7100000000000000000000000000000000000000000000000000000000\n        /* \"#utility.yul\":13266:13267   */\n      0x00\n        /* \"#utility.yul\":13259:13347   */\n      mstore\n        /* \"#utility.yul\":13366:13370   */\n      0x11\n        /* \"#utility.yul\":13363:13364   */\n      0x04\n        /* \"#utility.yul\":13356:13371   */\n      mstore\n        /* \"#utility.yul\":13390:13394   */\n      0x24\n        /* \"#utility.yul\":13387:13388   */\n      0x00\n        /* \"#utility.yul\":13380:13395   */\n      revert\n        /* \"#utility.yul\":13407:13601   */\n    tag_81:\n        /* \"#utility.yul\":13447:13451   */\n      0x00\n        /* \"#utility.yul\":13467:13487   */\n      tag_253\n        /* \"#utility.yul\":13485:13486   */\n      dup3\n        /* \"#utility.yul\":13467:13487   */\n      tag_90\n      jump\t// in\n    tag_253:\n        /* \"#utility.yul\":13462:13487   */\n      swap2\n      pop\n        /* \"#utility.yul\":13501:13521   */\n      tag_254\n        /* \"#utility.yul\":13519:13520   */\n      dup4\n        /* \"#utility.yul\":13501:13521   */\n      tag_90\n      jump\t// in\n    tag_254:\n        /* \"#utility.yul\":13496:13521   */\n      swap3\n      pop\n        /* \"#utility.yul\":13545:13546   */\n      dup3\n        /* \"#utility.yul\":13542:13543   */\n      dup3\n        /* \"#utility.yul\":13538:13547   */\n      sub\n        /* \"#utility.yul\":13530:13547   */\n      swap1\n      pop\n        /* \"#utility.yul\":13569:13570   */\n      dup2\n        /* \"#utility.yul\":13563:13567   */\n      dup2\n        /* \"#utility.yul\":13560:13571   */\n      gt\n        /* \"#utility.yul\":13557:13594   */\n      iszero\n      tag_255\n      jumpi\n        /* \"#utility.yul\":13574:13592   */\n      tag_256\n      tag_125\n      jump\t// in\n    tag_256:\n        /* \"#utility.yul\":13557:13594   */\n    tag_255:\n        /* \"#utility.yul\":13407:13601   */\n      swap3\n      swap2\n      pop\n      pop\n      jump\t// out\n        /* \"#utility.yul\":13607:13798   */\n    tag_83:\n        /* \"#utility.yul\":13647:13650   */\n      0x00\n        /* \"#utility.yul\":13666:13686   */\n      tag_258\n        /* \"#utility.yul\":13684:13685   */\n      dup3\n        /* \"#utility.yul\":13666:13686   */\n      tag_90\n      jump\t// in\n    tag_258:\n        /* \"#utility.yul\":13661:13686   */\n      swap2\n      pop\n        /* \"#utility.yul\":13700:13720   */\n      tag_259\n        /* \"#utility.yul\":13718:13719   */\n      dup4\n        /* \"#utility.yul\":13700:13720   */\n      tag_90\n      jump\t// in\n    tag_259:\n        /* \"#utility.yul\":13695:13720   */\n      swap3\n      pop\n        /* \"#utility.yul\":13743:13744   */\n      dup3\n        /* \"#utility.yul\":13740:13741   */\n      dup3\n        /* \"#utility.yul\":13736:13745   */\n      add\n        /* \"#utility.yul\":13729:13745   */\n      swap1\n      pop\n        /* \"#utility.yul\":13764:13767   */\n      dup1\n        /* \"#utility.yul\":13761:13762   */\n      dup3\n        /* \"#utility.yul\":13758:13768   */\n      gt\n        /* \"#utility.yul\":13755:13791   */\n      iszero\n      tag_260\n      jumpi\n        /* \"#utility.yul\":13771:13789   */\n      tag_261\n      tag_125\n      jump\t// in\n    tag_261:\n        /* \"#utility.yul\":13755:13791   */\n    tag_260:\n        /* \"#utility.yul\":13607:13798   */\n      swap3\n      swap2\n      pop\n      pop\n      jump\t// out\n        /* \"#utility.yul\":13804:13903   */\n    tag_126:\n        /* \"#utility.yul\":13856:13862   */\n      0x00\n        /* \"#utility.yul\":13890:13895   */\n      dup2\n        /* \"#utility.yul\":13884:13896   */\n      mload\n        /* \"#utility.yul\":13874:13896   */\n      swap1\n      pop\n        /* \"#utility.yul\":13804:13903   */\n      swap2\n      swap1\n      pop\n      jump\t// out\n        /* \"#utility.yul\":13909:14048   */\n    tag_127:\n        /* \"#utility.yul\":13998:14004   */\n      dup3\n        /* \"#utility.yul\":13993:13996   */\n      dup2\n        /* \"#utility.yul\":13988:13991   */\n      dup4\n        /* \"#utility.yul\":13982:14005   */\n      mcopy\n        /* \"#utility.yul\":14039:14040   */\n      0x00\n        /* \"#utility.yul\":14030:14036   */\n      dup4\n        /* \"#utility.yul\":14025:14028   */\n      dup4\n        /* \"#utility.yul\":14021:14037   */\n      add\n        /* \"#utility.yul\":14014:14041   */\n      mstore\n        /* \"#utility.yul\":13909:14048   */\n      pop\n      pop\n      pop\n      jump\t// out\n        /* \"#utility.yul\":14054:14431   */\n    tag_128:\n        /* \"#utility.yul\":14142:14145   */\n      0x00\n        /* \"#utility.yul\":14170:14209   */\n      tag_265\n        /* \"#utility.yul\":14203:14208   */\n      dup3\n        /* \"#utility.yul\":14170:14209   */\n      tag_126\n      jump\t// in\n    tag_265:\n        /* \"#utility.yul\":14225:14296   */\n      tag_266\n        /* \"#utility.yul\":14289:14295   */\n      dup2\n        /* \"#utility.yul\":14284:14287   */\n      dup6\n        /* \"#utility.yul\":14225:14296   */\n      tag_109\n      jump\t// in\n    tag_266:\n        /* \"#utility.yul\":14218:14296   */\n      swap4\n      pop\n        /* \"#utility.yul\":14305:14370   */\n      tag_267\n        /* \"#utility.yul\":14363:14369   */\n      dup2\n        /* \"#utility.yul\":14358:14361   */\n      dup6\n        /* \"#utility.yul\":14351:14355   */\n      0x20\n        /* \"#utility.yul\":14344:14349   */\n      dup7\n        /* \"#utility.yul\":14340:14356   */\n      add\n        /* \"#utility.yul\":14305:14370   */\n      tag_127\n      jump\t// in\n    tag_267:\n        /* \"#utility.yul\":14395:14424   */\n      tag_268\n        /* \"#utility.yul\":14417:14423   */\n      dup2\n        /* \"#utility.yul\":14395:14424   */\n      tag_95\n      jump\t// in\n    tag_268:\n        /* \"#utility.yul\":14390:14393   */\n      dup5\n        /* \"#utility.yul\":14386:14425   */\n      add\n        /* \"#utility.yul\":14379:14425   */\n      swap2\n      pop\n        /* \"#utility.yul\":14146:14431   */\n      pop\n        /* \"#utility.yul\":14054:14431   */\n      swap3\n      swap2\n      pop\n      pop\n      jump\t// out\n        /* \"#utility.yul\":14437:14970   */\n    tag_85:\n        /* \"#utility.yul\":14606:14610   */\n      0x00\n        /* \"#utility.yul\":14644:14646   */\n      0x60\n        /* \"#utility.yul\":14633:14642   */\n      dup3\n        /* \"#utility.yul\":14629:14647   */\n      add\n        /* \"#utility.yul\":14621:14647   */\n      swap1\n      pop\n        /* \"#utility.yul\":14657:14728   */\n      tag_270\n        /* \"#utility.yul\":14725:14726   */\n      0x00\n        /* \"#utility.yul\":14714:14723   */\n      dup4\n        /* \"#utility.yul\":14710:14727   */\n      add\n        /* \"#utility.yul\":14701:14707   */\n      dup7\n        /* \"#utility.yul\":14657:14728   */\n      tag_107\n      jump\t// in\n    tag_270:\n        /* \"#utility.yul\":14775:14784   */\n      dup2\n        /* \"#utility.yul\":14769:14773   */\n      dup2\n        /* \"#utility.yul\":14765:14785   */\n      sub\n        /* \"#utility.yul\":14760:14762   */\n      0x20\n        /* \"#utility.yul\":14749:14758   */\n      dup4\n        /* \"#utility.yul\":14745:14763   */\n      add\n        /* \"#utility.yul\":14738:14786   */\n      mstore\n        /* \"#utility.yul\":14803:14881   */\n      tag_271\n        /* \"#utility.yul\":14876:14880   */\n      dup2\n        /* \"#utility.yul\":14867:14873   */\n      dup6\n        /* \"#utility.yul\":14803:14881   */\n      tag_128\n      jump\t// in\n    tag_271:\n        /* \"#utility.yul\":14795:14881   */\n      swap1\n      pop\n        /* \"#utility.yul\":14891:14963   */\n      tag_272\n        /* \"#utility.yul\":14959:14961   */\n      0x40\n        /* \"#utility.yul\":14948:14957   */\n      dup4\n        /* \"#utility.yul\":14944:14962   */\n      add\n        /* \"#utility.yul\":14935:14941   */\n      dup5\n        /* \"#utility.yul\":14891:14963   */\n      tag_107\n      jump\t// in\n    tag_272:\n        /* \"#utility.yul\":14437:14970   */\n      swap5\n      swap4\n      pop\n      pop\n      pop\n      pop\n      jump\t// out\n\n    auxdata: 0xa2646970667358221220bc8920674f6f3c544474436c6a131f29efb1c6f725f7f81fbc32e947f86bcc9664736f6c63430008200033\n}\n",
				"bytecode": {
					"linkReferences": {},
					"object": "608060405234801561000f575f5ffd5b5060405161100338038061100383398181016040528101906100319190610130565b825f8190555081600181905550828261004a91906101ad565b6002819055508060045f6101000a81548173ffffffffffffffffffffffffffffffffffffffff021916908373ffffffffffffffffffffffffffffffffffffffff1602179055505f6003819055505050506101e0565b5f5ffd5b5f819050919050565b6100b5816100a3565b81146100bf575f5ffd5b50565b5f815190506100d0816100ac565b92915050565b5f73ffffffffffffffffffffffffffffffffffffffff82169050919050565b5f6100ff826100d6565b9050919050565b61010f816100f5565b8114610119575f5ffd5b50565b5f8151905061012a81610106565b92915050565b5f5f5f606084860312156101475761014661009f565b5b5f610154868287016100c2565b9350506020610165868287016100c2565b92505060406101768682870161011c565b9150509250925092565b7f4e487b71000000000000000000000000000000000000000000000000000000005f52601160045260245ffd5b5f6101b7826100a3565b91506101c2836100a3565b92508282019050808211156101da576101d9610180565b5b92915050565b610e16806101ed5f395ff3fe608060405234801561000f575f5ffd5b5060043610610091575f3560e01c80636ce5edff116100645780636ce5edff146101075780639bfb252914610125578063affed0e014610143578063dc7ccf4314610161578063fc0c546a1461017f57610091565b806302411f5a1461009557806322a272c3146100b157806362ef5dce146100cd57806369ca02dd146100eb575b5f5ffd5b6100af60048036038101906100aa91906107cc565b61019d565b005b6100cb60048036038101906100c69190610880565b6102cf565b005b6100d5610394565b6040516100e291906108ba565b60405180910390f35b610105600480360381019061010091906108d3565b61039a565b005b61010f61050d565b60405161011c9190610920565b60405180910390f35b61012d610532565b60405161013a91906108ba565b60405180910390f35b61014b610537565b60405161015891906108ba565b60405180910390f35b61016961053d565b60405161017691906108ba565b60405180910390f35b610187610543565b6040516101949190610920565b60405180910390f35b5f82116101df576040517f08c379a00000000000000000000000000000000000000000000000000000000081526004016101d690610993565b60405180910390fd5b5f60045f9054906101000a900473ffffffffffffffffffffffffffffffffffffffff1673ffffffffffffffffffffffffffffffffffffffff166323b872dd3330866040518463ffffffff1660e01b815260040161023e939291906109b1565b6020604051808303815f875af115801561025a573d5f5f3e3d5ffd5b505050506040513d601f19601f8201168201806040525081019061027e9190610a1b565b9050806102c0576040517f08c379a00000000000000000000000000000000000000000000000000000000081526004016102b790610a90565b60405180910390fd5b6102ca8383610568565b505050565b739bb51a70c346d9cff52b382e85851d78671accd073ffffffffffffffffffffffffffffffffffffffff163373ffffffffffffffffffffffffffffffffffffffff1614610351576040517f08c379a000000000000000000000000000000000000000000000000000000000815260040161034890610af8565b60405180910390fd5b8060055f6101000a81548173ffffffffffffffffffffffffffffffffffffffff021916908373ffffffffffffffffffffffffffffffffffffffff16021790555050565b60025481565b3373ffffffffffffffffffffffffffffffffffffffff1660055f9054906101000a900473ffffffffffffffffffffffffffffffffffffffff1673ffffffffffffffffffffffffffffffffffffffff1614610429576040517f08c379a000000000000000000000000000000000000000000000000000000000815260040161042090610b86565b60405180910390fd5b5f60045f9054906101000a900473ffffffffffffffffffffffffffffffffffffffff1673ffffffffffffffffffffffffffffffffffffffff1663a9059cbb84846040518363ffffffff1660e01b8152600401610486929190610ba4565b6020604051808303815f875af11580156104a2573d5f5f3e3d5ffd5b505050506040513d601f19601f820116820180604052508101906104c69190610a1b565b905080610508576040517f08c379a00000000000000000000000000000000000000000000000000000000081526004016104ff90610c15565b60405180910390fd5b505050565b60055f9054906101000a900473ffffffffffffffffffffffffffffffffffffffff1681565b5f5481565b60035481565b60015481565b60045f9054906101000a900473ffffffffffffffffffffffffffffffffffffffff1681565b81600154116105ac576040517f08c379a00000000000000000000000000000000000000000000000000000000081526004016105a390610ca3565b60405180910390fd5b8160015f8282546105bd9190610cee565b92505081905550815f5f8282546105d49190610d21565b925050819055503373ffffffffffffffffffffffffffffffffffffffff167f4ae16418416b042e51fc7d3cd38a51016f389d862442eaa688117bcdd497fff9838360035460405161062793929190610da4565b60405180910390a2600160035f8282546106419190610d21565b925050819055505050565b5f604051905090565b5f5ffd5b5f5ffd5b5f819050919050565b61066f8161065d565b8114610679575f5ffd5b50565b5f8135905061068a81610666565b92915050565b5f5ffd5b5f5ffd5b5f601f19601f8301169050919050565b7f4e487b71000000000000000000000000000000000000000000000000000000005f52604160045260245ffd5b6106de82610698565b810181811067ffffffffffffffff821117156106fd576106fc6106a8565b5b80604052505050565b5f61070f61064c565b905061071b82826106d5565b919050565b5f67ffffffffffffffff82111561073a576107396106a8565b5b61074382610698565b9050602081019050919050565b828183375f83830152505050565b5f61077061076b84610720565b610706565b90508281526020810184848401111561078c5761078b610694565b5b610797848285610750565b509392505050565b5f82601f8301126107b3576107b2610690565b5b81356107c384826020860161075e565b91505092915050565b5f5f604083850312156107e2576107e1610655565b5b5f6107ef8582860161067c565b925050602083013567ffffffffffffffff8111156108105761080f610659565b5b61081c8582860161079f565b9150509250929050565b5f73ffffffffffffffffffffffffffffffffffffffff82169050919050565b5f61084f82610826565b9050919050565b61085f81610845565b8114610869575f5ffd5b50565b5f8135905061087a81610856565b92915050565b5f6020828403121561089557610894610655565b5b5f6108a28482850161086c565b91505092915050565b6108b48161065d565b82525050565b5f6020820190506108cd5f8301846108ab565b92915050565b5f5f604083850312156108e9576108e8610655565b5b5f6108f68582860161086c565b92505060206109078582860161067c565b9150509250929050565b61091a81610845565b82525050565b5f6020820190506109335f830184610911565b92915050565b5f82825260208201905092915050565b7f416d6f756e74206d7573742062652067726561746572207468616e207a65726f5f82015250565b5f61097d602083610939565b915061098882610949565b602082019050919050565b5f6020820190508181035f8301526109aa81610971565b9050919050565b5f6060820190506109c45f830186610911565b6109d16020830185610911565b6109de60408301846108ab565b949350505050565b5f8115159050919050565b6109fa816109e6565b8114610a04575f5ffd5b50565b5f81519050610a15816109f1565b92915050565b5f60208284031215610a3057610a2f610655565b5b5f610a3d84828501610a07565b91505092915050565b7f7472616e7366657246726f6d206661696c6564000000000000000000000000005f82015250565b5f610a7a601383610939565b9150610a8582610a46565b602082019050919050565b5f6020820190508181035f830152610aa781610a6e565b9050919050565b7f6e6f742061206e6f2d68697665000000000000000000000000000000000000005f82015250565b5f610ae2600d83610939565b9150610aed82610aae565b602082019050919050565b5f6020820190508181035f830152610b0f81610ad6565b9050919050565b7f43616c6c6572206973206e6f7420746865206d756c746973696720636f6e74725f8201527f6163740000000000000000000000000000000000000000000000000000000000602082015250565b5f610b70602383610939565b9150610b7b82610b16565b604082019050919050565b5f6020820190508181035f830152610b9d81610b64565b9050919050565b5f604082019050610bb75f830185610911565b610bc460208301846108ab565b9392505050565b7f546f6b656e207472616e73666572206661696c656400000000000000000000005f82015250565b5f610bff601583610939565b9150610c0a82610bcb565b602082019050919050565b5f6020820190508181035f830152610c2c81610bf3565b9050919050565b7f496e73756666696369656e742066756e6473206f6e2064657374696e6174696f5f8201527f6e20636861696e00000000000000000000000000000000000000000000000000602082015250565b5f610c8d602783610939565b9150610c9882610c33565b604082019050919050565b5f6020820190508181035f830152610cba81610c81565b9050919050565b7f4e487b71000000000000000000000000000000000000000000000000000000005f52601160045260245ffd5b5f610cf88261065d565b9150610d038361065d565b9250828203905081811115610d1b57610d1a610cc1565b5b92915050565b5f610d2b8261065d565b9150610d368361065d565b9250828201905080821115610d4e57610d4d610cc1565b5b92915050565b5f81519050919050565b8281835e5f83830152505050565b5f610d7682610d54565b610d808185610939565b9350610d90818560208601610d5e565b610d9981610698565b840191505092915050565b5f606082019050610db75f8301866108ab565b8181036020830152610dc98185610d6c565b9050610dd860408301846108ab565b94935050505056fea2646970667358221220bc8920674f6f3c544474436c6a131f29efb1c6f725f7f81fbc32e947f86bcc9664736f6c63430008200033",
					"opcodes": "PUSH1 0x80 PUSH1 0x40 MSTORE CALLVALUE DUP1 ISZERO PUSH2 0xF JUMPI PUSH0 PUSH0 REVERT JUMPDEST POP PUSH1 0x40 MLOAD PUSH2 0x1003 CODESIZE SUB DUP1 PUSH2 0x1003 DUP4 CODECOPY DUP2 DUP2 ADD PUSH1 0x40 MSTORE DUP2 ADD SWAP1 PUSH2 0x31 SWAP2 SWAP1 PUSH2 0x130 JUMP JUMPDEST DUP3 PUSH0 DUP2 SWAP1 SSTORE POP DUP2 PUSH1 0x1 DUP2 SWAP1 SSTORE POP DUP3 DUP3 PUSH2 0x4A SWAP2 SWAP1 PUSH2 0x1AD JUMP JUMPDEST PUSH1 0x2 DUP2 SWAP1 SSTORE POP DUP1 PUSH1 0x4 PUSH0 PUSH2 0x100 EXP DUP2 SLOAD DUP2 PUSH20 0xFFFFFFFFFFFFFFFFFFFFFFFFFFFFFFFFFFFFFFFF MUL NOT AND SWAP1 DUP4 PUSH20 0xFFFFFFFFFFFFFFFFFFFFFFFFFFFFFFFFFFFFFFFF AND MUL OR SWAP1 SSTORE POP PUSH0 PUSH1 0x3 DUP2 SWAP1 SSTORE POP POP POP POP PUSH2 0x1E0 JUMP JUMPDEST PUSH0 PUSH0 REVERT JUMPDEST PUSH0 DUP2 SWAP1 POP SWAP2 SWAP1 POP JUMP JUMPDEST PUSH2 0xB5 DUP2 PUSH2 0xA3 JUMP JUMPDEST DUP2 EQ PUSH2 0xBF JUMPI PUSH0 PUSH0 REVERT JUMPDEST POP JUMP JUMPDEST PUSH0 DUP2 MLOAD SWAP1 POP PUSH2 0xD0 DUP2 PUSH2 0xAC JUMP JUMPDEST SWAP3 SWAP2 POP POP JUMP JUMPDEST PUSH0 PUSH20 0xFFFFFFFFFFFFFFFFFFFFFFFFFFFFFFFFFFFFFFFF DUP3 AND SWAP1 POP SWAP2 SWAP1 POP JUMP JUMPDEST PUSH0 PUSH2 0xFF DUP3 PUSH2 0xD6 JUMP JUMPDEST SWAP1 POP SWAP2 SWAP1 POP JUMP JUMPDEST PUSH2 0x10F DUP2 PUSH2 0xF5 JUMP JUMPDEST DUP2 EQ PUSH2 0x119 JUMPI PUSH0 PUSH0 REVERT JUMPDEST POP JUMP JUMPDEST PUSH0 DUP2 MLOAD SWAP1 POP PUSH2 0x12A DUP2 PUSH2 0x106 JUMP JUMPDEST SWAP3 SWAP2 POP POP JUMP JUMPDEST PUSH0 PUSH0 PUSH0 PUSH1 0x60 DUP5 DUP7 SUB SLT ISZERO PUSH2 0x147 JUMPI PUSH2 0x146 PUSH2 0x9F JUMP JUMPDEST JUMPDEST PUSH0 PUSH2 0x154 DUP7 DUP3 DUP8 ADD PUSH2 0xC2 JUMP JUMPDEST SWAP4 POP POP PUSH1 0x20 PUSH2 0x165 DUP7 DUP3 DUP8 ADD PUSH2 0xC2 JUMP JUMPDEST SWAP3 POP POP PUSH1 0x40 PUSH2 0x176 DUP7 DUP3 DUP8 ADD PUSH2 0x11C JUMP JUMPDEST SWAP2 POP POP SWAP3 POP SWAP3 POP SWAP3 JUMP JUMPDEST PUSH32 0x4E487B7100000000000000000000000000000000000000000000000000000000 PUSH0 MSTORE PUSH1 0x11 PUSH1 0x4 MSTORE PUSH1 0x24 PUSH0 REVERT JUMPDEST PUSH0 PUSH2 0x1B7 DUP3 PUSH2 0xA3 JUMP JUMPDEST SWAP2 POP PUSH2 0x1C2 DUP4 PUSH2 0xA3 JUMP JUMPDEST SWAP3 POP DUP3 DUP3 ADD SWAP1 POP DUP1 DUP3 GT ISZERO PUSH2 0x1DA JUMPI PUSH2 0x1D9 PUSH2 0x180 JUMP JUMPDEST JUMPDEST SWAP3 SWAP2 POP POP JUMP JUMPDEST PUSH2 0xE16 DUP1 PUSH2 0x1ED PUSH0 CODECOPY PUSH0 RETURN INVALID PUSH1 0x80 PUSH1 0x40 MSTORE CALLVALUE DUP1 ISZERO PUSH2 0xF JUMPI PUSH0 PUSH0 REVERT JUMPDEST POP PUSH1 0x4 CALLDATASIZE LT PUSH2 0x91 JUMPI PUSH0 CALLDATALOAD PUSH1 0xE0 SHR DUP1 PUSH4 0x6CE5EDFF GT PUSH2 0x64 JUMPI DUP1 PUSH4 0x6CE5EDFF EQ PUSH2 0x107 JUMPI DUP1 PUSH4 0x9BFB2529 EQ PUSH2 0x125 JUMPI DUP1 PUSH4 0xAFFED0E0 EQ PUSH2 0x143 JUMPI DUP1 PUSH4 0xDC7CCF43 EQ PUSH2 0x161 JUMPI DUP1 PUSH4 0xFC0C546A EQ PUSH2 0x17F JUMPI PUSH2 0x91 JUMP JUMPDEST DUP1 PUSH4 0x2411F5A EQ PUSH2 0x95 JUMPI DUP1 PUSH4 0x22A272C3 EQ PUSH2 0xB1 JUMPI DUP1 PUSH4 0x62EF5DCE EQ PUSH2 0xCD JUMPI DUP1 PUSH4 0x69CA02DD EQ PUSH2 0xEB JUMPI JUMPDEST PUSH0 PUSH0 REVERT JUMPDEST PUSH2 0xAF PUSH1 0x4 DUP1 CALLDATASIZE SUB DUP2 ADD SWAP1 PUSH2 0xAA SWAP2 SWAP1 PUSH2 0x7CC JUMP JUMPDEST PUSH2 0x19D JUMP JUMPDEST STOP JUMPDEST PUSH2 0xCB PUSH1 0x4 DUP1 CALLDATASIZE SUB DUP2 ADD SWAP1 PUSH2 0xC6 SWAP2 SWAP1 PUSH2 0x880 JUMP JUMPDEST PUSH2 0x2CF JUMP JUMPDEST STOP JUMPDEST PUSH2 0xD5 PUSH2 0x394 JUMP JUMPDEST PUSH1 0x40 MLOAD PUSH2 0xE2 SWAP2 SWAP1 PUSH2 0x8BA JUMP JUMPDEST PUSH1 0x40 MLOAD DUP1 SWAP2 SUB SWAP1 RETURN JUMPDEST PUSH2 0x105 PUSH1 0x4 DUP1 CALLDATASIZE SUB DUP2 ADD SWAP1 PUSH2 0x100 SWAP2 SWAP1 PUSH2 0x8D3 JUMP JUMPDEST PUSH2 0x39A JUMP JUMPDEST STOP JUMPDEST PUSH2 0x10F PUSH2 0x50D JUMP JUMPDEST PUSH1 0x40 MLOAD PUSH2 0x11C SWAP2 SWAP1 PUSH2 0x920 JUMP JUMPDEST PUSH1 0x40 MLOAD DUP1 SWAP2 SUB SWAP1 RETURN JUMPDEST PUSH2 0x12D PUSH2 0x532 JUMP JUMPDEST PUSH1 0x40 MLOAD PUSH2 0x13A SWAP2 SWAP1 PUSH2 0x8BA JUMP JUMPDEST PUSH1 0x40 MLOAD DUP1 SWAP2 SUB SWAP1 RETURN JUMPDEST PUSH2 0x14B PUSH2 0x537 JUMP JUMPDEST PUSH1 0x40 MLOAD PUSH2 0x158 SWAP2 SWAP1 PUSH2 0x8BA JUMP JUMPDEST PUSH1 0x40 MLOAD DUP1 SWAP2 SUB SWAP1 RETURN JUMPDEST PUSH2 0x169 PUSH2 0x53D JUMP JUMPDEST PUSH1 0x40 MLOAD PUSH2 0x176 SWAP2 SWAP1 PUSH2 0x8BA JUMP JUMPDEST PUSH1 0x40 MLOAD DUP1 SWAP2 SUB SWAP1 RETURN JUMPDEST PUSH2 0x187 PUSH2 0x543 JUMP JUMPDEST PUSH1 0x40 MLOAD PUSH2 0x194 SWAP2 SWAP1 PUSH2 0x920 JUMP JUMPDEST PUSH1 0x40 MLOAD DUP1 SWAP2 SUB SWAP1 RETURN JUMPDEST PUSH0 DUP3 GT PUSH2 0x1DF JUMPI PUSH1 0x40 MLOAD PUSH32 0x8C379A000000000000000000000000000000000000000000000000000000000 DUP2 MSTORE PUSH1 0x4 ADD PUSH2 0x1D6 SWAP1 PUSH2 0x993 JUMP JUMPDEST PUSH1 0x40 MLOAD DUP1 SWAP2 SUB SWAP1 REVERT JUMPDEST PUSH0 PUSH1 0x4 PUSH0 SWAP1 SLOAD SWAP1 PUSH2 0x100 EXP SWAP1 DIV PUSH20 0xFFFFFFFFFFFFFFFFFFFFFFFFFFFFFFFFFFFFFFFF AND PUSH20 0xFFFFFFFFFFFFFFFFFFFFFFFFFFFFFFFFFFFFFFFF AND PUSH4 0x23B872DD CALLER ADDRESS DUP7 PUSH1 0x40 MLOAD DUP5 PUSH4 0xFFFFFFFF AND PUSH1 0xE0 SHL DUP2 MSTORE PUSH1 0x4 ADD PUSH2 0x23E SWAP4 SWAP3 SWAP2 SWAP1 PUSH2 0x9B1 JUMP JUMPDEST PUSH1 0x20 PUSH1 0x40 MLOAD DUP1 DUP4 SUB DUP2 PUSH0 DUP8 GAS CALL ISZERO DUP1 ISZERO PUSH2 0x25A JUMPI RETURNDATASIZE PUSH0 PUSH0 RETURNDATACOPY RETURNDATASIZE PUSH0 REVERT JUMPDEST POP POP POP POP PUSH1 0x40 MLOAD RETURNDATASIZE PUSH1 0x1F NOT PUSH1 0x1F DUP3 ADD AND DUP3 ADD DUP1 PUSH1 0x40 MSTORE POP DUP2 ADD SWAP1 PUSH2 0x27E SWAP2 SWAP1 PUSH2 0xA1B JUMP JUMPDEST SWAP1 POP DUP1 PUSH2 0x2C0 JUMPI PUSH1 0x40 MLOAD PUSH32 0x8C379A000000000000000000000000000000000000000000000000000000000 DUP2 MSTORE PUSH1 0x4 ADD PUSH2 0x2B7 SWAP1 PUSH2 0xA90 JUMP JUMPDEST PUSH1 0x40 MLOAD DUP1 SWAP2 SUB SWAP1 REVERT JUMPDEST PUSH2 0x2CA DUP4 DUP4 PUSH2 0x568 JUMP JUMPDEST POP POP POP JUMP JUMPDEST PUSH20 0x9BB51A70C346D9CFF52B382E85851D78671ACCD0 PUSH20 0xFFFFFFFFFFFFFFFFFFFFFFFFFFFFFFFFFFFFFFFF AND CALLER PUSH20 0xFFFFFFFFFFFFFFFFFFFFFFFFFFFFFFFFFFFFFFFF AND EQ PUSH2 0x351 JUMPI PUSH1 0x40 MLOAD PUSH32 0x8C379A000000000000000000000000000000000000000000000000000000000 DUP2 MSTORE PUSH1 0x4 ADD PUSH2 0x348 SWAP1 PUSH2 0xAF8 JUMP JUMPDEST PUSH1 0x40 MLOAD DUP1 SWAP2 SUB SWAP1 REVERT JUMPDEST DUP1 PUSH1 0x5 PUSH0 PUSH2 0x100 EXP DUP2 SLOAD DUP2 PUSH20 0xFFFFFFFFFFFFFFFFFFFFFFFFFFFFFFFFFFFFFFFF MUL NOT AND SWAP1 DUP4 PUSH20 0xFFFFFFFFFFFFFFFFFFFFFFFFFFFFFFFFFFFFFFFF AND MUL OR SWAP1 SSTORE POP POP JUMP JUMPDEST PUSH1 0x2 SLOAD DUP2 JUMP JUMPDEST CALLER PUSH20 0xFFFFFFFFFFFFFFFFFFFFFFFFFFFFFFFFFFFFFFFF AND PUSH1 0x5 PUSH0 SWAP1 SLOAD SWAP1 PUSH2 0x100 EXP SWAP1 DIV PUSH20 0xFFFFFFFFFFFFFFFFFFFFFFFFFFFFFFFFFFFFFFFF AND PUSH20 0xFFFFFFFFFFFFFFFFFFFFFFFFFFFFFFFFFFFFFFFF AND EQ PUSH2 0x429 JUMPI PUSH1 0x40 MLOAD PUSH32 0x8C379A000000000000000000000000000000000000000000000000000000000 DUP2 MSTORE PUSH1 0x4 ADD PUSH2 0x420 SWAP1 PUSH2 0xB86 JUMP JUMPDEST PUSH1 0x40 MLOAD DUP1 SWAP2 SUB SWAP1 REVERT JUMPDEST PUSH0 PUSH1 0x4 PUSH0 SWAP1 SLOAD SWAP1 PUSH2 0x100 EXP SWAP1 DIV PUSH20 0xFFFFFFFFFFFFFFFFFFFFFFFFFFFFFFFFFFFFFFFF AND PUSH20 0xFFFFFFFFFFFFFFFFFFFFFFFFFFFFFFFFFFFFFFFF AND PUSH4 0xA9059CBB DUP5 DUP5 PUSH1 0x40 MLOAD DUP4 PUSH4 0xFFFFFFFF AND PUSH1 0xE0 SHL DUP2 MSTORE PUSH1 0x4 ADD PUSH2 0x486 SWAP3 SWAP2 SWAP1 PUSH2 0xBA4 JUMP JUMPDEST PUSH1 0x20 PUSH1 0x40 MLOAD DUP1 DUP4 SUB DUP2 PUSH0 DUP8 GAS CALL ISZERO DUP1 ISZERO PUSH2 0x4A2 JUMPI RETURNDATASIZE PUSH0 PUSH0 RETURNDATACOPY RETURNDATASIZE PUSH0 REVERT JUMPDEST POP POP POP POP PUSH1 0x40 MLOAD RETURNDATASIZE PUSH1 0x1F NOT PUSH1 0x1F DUP3 ADD AND DUP3 ADD DUP1 PUSH1 0x40 MSTORE POP DUP2 ADD SWAP1 PUSH2 0x4C6 SWAP2 SWAP1 PUSH2 0xA1B JUMP JUMPDEST SWAP1 POP DUP1 PUSH2 0x508 JUMPI PUSH1 0x40 MLOAD PUSH32 0x8C379A000000000000000000000000000000000000000000000000000000000 DUP2 MSTORE PUSH1 0x4 ADD PUSH2 0x4FF SWAP1 PUSH2 0xC15 JUMP JUMPDEST PUSH1 0x40 MLOAD DUP1 SWAP2 SUB SWAP1 REVERT JUMPDEST POP POP POP JUMP JUMPDEST PUSH1 0x5 PUSH0 SWAP1 SLOAD SWAP1 PUSH2 0x100 EXP SWAP1 DIV PUSH20 0xFFFFFFFFFFFFFFFFFFFFFFFFFFFFFFFFFFFFFFFF AND DUP2 JUMP JUMPDEST PUSH0 SLOAD DUP2 JUMP JUMPDEST PUSH1 0x3 SLOAD DUP2 JUMP JUMPDEST PUSH1 0x1 SLOAD DUP2 JUMP JUMPDEST PUSH1 0x4 PUSH0 SWAP1 SLOAD SWAP1 PUSH2 0x100 EXP SWAP1 DIV PUSH20 0xFFFFFFFFFFFFFFFFFFFFFFFFFFFFFFFFFFFFFFFF AND DUP2 JUMP JUMPDEST DUP2 PUSH1 0x1 SLOAD GT PUSH2 0x5AC JUMPI PUSH1 0x40 MLOAD PUSH32 0x8C379A000000000000000000000000000000000000000000000000000000000 DUP2 MSTORE PUSH1 0x4 ADD PUSH2 0x5A3 SWAP1 PUSH2 0xCA3 JUMP JUMPDEST PUSH1 0x40 MLOAD DUP1 SWAP2 SUB SWAP1 REVERT JUMPDEST DUP2 PUSH1 0x1 PUSH0 DUP3 DUP3 SLOAD PUSH2 0x5BD SWAP2 SWAP1 PUSH2 0xCEE JUMP JUMPDEST SWAP3 POP POP DUP2 SWAP1 SSTORE POP DUP2 PUSH0 PUSH0 DUP3 DUP3 SLOAD PUSH2 0x5D4 SWAP2 SWAP1 PUSH2 0xD21 JUMP JUMPDEST SWAP3 POP POP DUP2 SWAP1 SSTORE POP CALLER PUSH20 0xFFFFFFFFFFFFFFFFFFFFFFFFFFFFFFFFFFFFFFFF AND PUSH32 0x4AE16418416B042E51FC7D3CD38A51016F389D862442EAA688117BCDD497FFF9 DUP4 DUP4 PUSH1 0x3 SLOAD PUSH1 0x40 MLOAD PUSH2 0x627 SWAP4 SWAP3 SWAP2 SWAP1 PUSH2 0xDA4 JUMP JUMPDEST PUSH1 0x40 MLOAD DUP1 SWAP2 SUB SWAP1 LOG2 PUSH1 0x1 PUSH1 0x3 PUSH0 DUP3 DUP3 SLOAD PUSH2 0x641 SWAP2 SWAP1 PUSH2 0xD21 JUMP JUMPDEST SWAP3 POP POP DUP2 SWAP1 SSTORE POP POP POP JUMP JUMPDEST PUSH0 PUSH1 0x40 MLOAD SWAP1 POP SWAP1 JUMP JUMPDEST PUSH0 PUSH0 REVERT JUMPDEST PUSH0 PUSH0 REVERT JUMPDEST PUSH0 DUP2 SWAP1 POP SWAP2 SWAP1 POP JUMP JUMPDEST PUSH2 0x66F DUP2 PUSH2 0x65D JUMP JUMPDEST DUP2 EQ PUSH2 0x679 JUMPI PUSH0 PUSH0 REVERT JUMPDEST POP JUMP JUMPDEST PUSH0 DUP2 CALLDATALOAD SWAP1 POP PUSH2 0x68A DUP2 PUSH2 0x666 JUMP JUMPDEST SWAP3 SWAP2 POP POP JUMP JUMPDEST PUSH0 PUSH0 REVERT JUMPDEST PUSH0 PUSH0 REVERT JUMPDEST PUSH0 PUSH1 0x1F NOT PUSH1 0x1F DUP4 ADD AND SWAP1 POP SWAP2 SWAP1 POP JUMP JUMPDEST PUSH32 0x4E487B7100000000000000000000000000000000000000000000000000000000 PUSH0 MSTORE PUSH1 0x41 PUSH1 0x4 MSTORE PUSH1 0x24 PUSH0 REVERT JUMPDEST PUSH2 0x6DE DUP3 PUSH2 0x698 JUMP JUMPDEST DUP2 ADD DUP2 DUP2 LT PUSH8 0xFFFFFFFFFFFFFFFF DUP3 GT OR ISZERO PUSH2 0x6FD JUMPI PUSH2 0x6FC PUSH2 0x6A8 JUMP JUMPDEST JUMPDEST DUP1 PUSH1 0x40 MSTORE POP POP POP JUMP JUMPDEST PUSH0 PUSH2 0x70F PUSH2 0x64C JUMP JUMPDEST SWAP1 POP PUSH2 0x71B DUP3 DUP3 PUSH2 0x6D5 JUMP JUMPDEST SWAP2 SWAP1 POP JUMP JUMPDEST PUSH0 PUSH8 0xFFFFFFFFFFFFFFFF DUP3 GT ISZERO PUSH2 0x73A JUMPI PUSH2 0x739 PUSH2 0x6A8 JUMP JUMPDEST JUMPDEST PUSH2 0x743 DUP3 PUSH2 0x698 JUMP JUMPDEST SWAP1 POP PUSH1 0x20 DUP2 ADD SWAP1 POP SWAP2 SWAP1 POP JUMP JUMPDEST DUP3 DUP2 DUP4 CALLDATACOPY PUSH0 DUP4 DUP4 ADD MSTORE POP POP POP JUMP JUMPDEST PUSH0 PUSH2 0x770 PUSH2 0x76B DUP5 PUSH2 0x720 JUMP JUMPDEST PUSH2 0x706 JUMP JUMPDEST SWAP1 POP DUP3 DUP2 MSTORE PUSH1 0x20 DUP2 ADD DUP5 DUP5 DUP5 ADD GT ISZERO PUSH2 0x78C JUMPI PUSH2 0x78B PUSH2 0x694 JUMP JUMPDEST JUMPDEST PUSH2 0x797 DUP5 DUP3 DUP6 PUSH2 0x750 JUMP JUMPDEST POP SWAP4 SWAP3 POP POP POP JUMP JUMPDEST PUSH0 DUP3 PUSH1 0x1F DUP4 ADD SLT PUSH2 0x7B3 JUMPI PUSH2 0x7B2 PUSH2 0x690 JUMP JUMPDEST JUMPDEST DUP2 CALLDATALOAD PUSH2 0x7C3 DUP5 DUP3 PUSH1 0x20 DUP7 ADD PUSH2 0x75E JUMP JUMPDEST SWAP2 POP POP SWAP3 SWAP2 POP POP JUMP JUMPDEST PUSH0 PUSH0 PUSH1 0x40 DUP4 DUP6 SUB SLT ISZERO PUSH2 0x7E2 JUMPI PUSH2 0x7E1 PUSH2 0x655 JUMP JUMPDEST JUMPDEST PUSH0 PUSH2 0x7EF DUP6 DUP3 DUP7 ADD PUSH2 0x67C JUMP JUMPDEST SWAP3 POP POP PUSH1 0x20 DUP4 ADD CALLDATALOAD PUSH8 0xFFFFFFFFFFFFFFFF DUP2 GT ISZERO PUSH2 0x810 JUMPI PUSH2 0x80F PUSH2 0x659 JUMP JUMPDEST JUMPDEST PUSH2 0x81C DUP6 DUP3 DUP7 ADD PUSH2 0x79F JUMP JUMPDEST SWAP2 POP POP SWAP3 POP SWAP3 SWAP1 POP JUMP JUMPDEST PUSH0 PUSH20 0xFFFFFFFFFFFFFFFFFFFFFFFFFFFFFFFFFFFFFFFF DUP3 AND SWAP1 POP SWAP2 SWAP1 POP JUMP JUMPDEST PUSH0 PUSH2 0x84F DUP3 PUSH2 0x826 JUMP JUMPDEST SWAP1 POP SWAP2 SWAP1 POP JUMP JUMPDEST PUSH2 0x85F DUP2 PUSH2 0x845 JUMP JUMPDEST DUP2 EQ PUSH2 0x869 JUMPI PUSH0 PUSH0 REVERT JUMPDEST POP JUMP JUMPDEST PUSH0 DUP2 CALLDATALOAD SWAP1 POP PUSH2 0x87A DUP2 PUSH2 0x856 JUMP JUMPDEST SWAP3 SWAP2 POP POP JUMP JUMPDEST PUSH0 PUSH1 0x20 DUP3 DUP5 SUB SLT ISZERO PUSH2 0x895 JUMPI PUSH2 0x894 PUSH2 0x655 JUMP JUMPDEST JUMPDEST PUSH0 PUSH2 0x8A2 DUP5 DUP3 DUP6 ADD PUSH2 0x86C JUMP JUMPDEST SWAP2 POP POP SWAP3 SWAP2 POP POP JUMP JUMPDEST PUSH2 0x8B4 DUP2 PUSH2 0x65D JUMP JUMPDEST DUP3 MSTORE POP POP JUMP JUMPDEST PUSH0 PUSH1 0x20 DUP3 ADD SWAP1 POP PUSH2 0x8CD PUSH0 DUP4 ADD DUP5 PUSH2 0x8AB JUMP JUMPDEST SWAP3 SWAP2 POP POP JUMP JUMPDEST PUSH0 PUSH0 PUSH1 0x40 DUP4 DUP6 SUB SLT ISZERO PUSH2 0x8E9 JUMPI PUSH2 0x8E8 PUSH2 0x655 JUMP JUMPDEST JUMPDEST PUSH0 PUSH2 0x8F6 DUP6 DUP3 DUP7 ADD PUSH2 0x86C JUMP JUMPDEST SWAP3 POP POP PUSH1 0x20 PUSH2 0x907 DUP6 DUP3 DUP7 ADD PUSH2 0x67C JUMP JUMPDEST SWAP2 POP POP SWAP3 POP SWAP3 SWAP1 POP JUMP JUMPDEST PUSH2 0x91A DUP2 PUSH2 0x845 JUMP JUMPDEST DUP3 MSTORE POP POP JUMP JUMPDEST PUSH0 PUSH1 0x20 DUP3 ADD SWAP1 POP PUSH2 0x933 PUSH0 DUP4 ADD DUP5 PUSH2 0x911 JUMP JUMPDEST SWAP3 SWAP2 POP POP JUMP JUMPDEST PUSH0 DUP3 DUP3 MSTORE PUSH1 0x20 DUP3 ADD SWAP1 POP SWAP3 SWAP2 POP POP JUMP JUMPDEST PUSH32 0x416D6F756E74206D7573742062652067726561746572207468616E207A65726F PUSH0 DUP3 ADD MSTORE POP JUMP JUMPDEST PUSH0 PUSH2 0x97D PUSH1 0x20 DUP4 PUSH2 0x939 JUMP JUMPDEST SWAP2 POP PUSH2 0x988 DUP3 PUSH2 0x949 JUMP JUMPDEST PUSH1 0x20 DUP3 ADD SWAP1 POP SWAP2 SWAP1 POP JUMP JUMPDEST PUSH0 PUSH1 0x20 DUP3 ADD SWAP1 POP DUP2 DUP2 SUB PUSH0 DUP4 ADD MSTORE PUSH2 0x9AA DUP2 PUSH2 0x971 JUMP JUMPDEST SWAP1 POP SWAP2 SWAP1 POP JUMP JUMPDEST PUSH0 PUSH1 0x60 DUP3 ADD SWAP1 POP PUSH2 0x9C4 PUSH0 DUP4 ADD DUP7 PUSH2 0x911 JUMP JUMPDEST PUSH2 0x9D1 PUSH1 0x20 DUP4 ADD DUP6 PUSH2 0x911 JUMP JUMPDEST PUSH2 0x9DE PUSH1 0x40 DUP4 ADD DUP5 PUSH2 0x8AB JUMP JUMPDEST SWAP5 SWAP4 POP POP POP POP JUMP JUMPDEST PUSH0 DUP2 ISZERO ISZERO SWAP1 POP SWAP2 SWAP1 POP JUMP JUMPDEST PUSH2 0x9FA DUP2 PUSH2 0x9E6 JUMP JUMPDEST DUP2 EQ PUSH2 0xA04 JUMPI PUSH0 PUSH0 REVERT JUMPDEST POP JUMP JUMPDEST PUSH0 DUP2 MLOAD SWAP1 POP PUSH2 0xA15 DUP2 PUSH2 0x9F1 JUMP JUMPDEST SWAP3 SWAP2 POP POP JUMP JUMPDEST PUSH0 PUSH1 0x20 DUP3 DUP5 SUB SLT ISZERO PUSH2 0xA30 JUMPI PUSH2 0xA2F PUSH2 0x655 JUMP JUMPDEST JUMPDEST PUSH0 PUSH2 0xA3D DUP5 DUP3 DUP6 ADD PUSH2 0xA07 JUMP JUMPDEST SWAP2 POP POP SWAP3 SWAP2 POP POP JUMP JUMPDEST PUSH32 0x7472616E7366657246726F6D206661696C656400000000000000000000000000 PUSH0 DUP3 ADD MSTORE POP JUMP JUMPDEST PUSH0 PUSH2 0xA7A PUSH1 0x13 DUP4 PUSH2 0x939 JUMP JUMPDEST SWAP2 POP PUSH2 0xA85 DUP3 PUSH2 0xA46 JUMP JUMPDEST PUSH1 0x20 DUP3 ADD SWAP1 POP SWAP2 SWAP1 POP JUMP JUMPDEST PUSH0 PUSH1 0x20 DUP3 ADD SWAP1 POP DUP2 DUP2 SUB PUSH0 DUP4 ADD MSTORE PUSH2 0xAA7 DUP2 PUSH2 0xA6E JUMP JUMPDEST SWAP1 POP SWAP2 SWAP1 POP JUMP JUMPDEST PUSH32 0x6E6F742061206E6F2D6869766500000000000000000000000000000000000000 PUSH0 DUP3 ADD MSTORE POP JUMP JUMPDEST PUSH0 PUSH2 0xAE2 PUSH1 0xD DUP4 PUSH2 0x939 JUMP JUMPDEST SWAP2 POP PUSH2 0xAED DUP3 PUSH2 0xAAE JUMP JUMPDEST PUSH1 0x20 DUP3 ADD SWAP1 POP SWAP2 SWAP1 POP JUMP JUMPDEST PUSH0 PUSH1 0x20 DUP3 ADD SWAP1 POP DUP2 DUP2 SUB PUSH0 DUP4 ADD MSTORE PUSH2 0xB0F DUP2 PUSH2 0xAD6 JUMP JUMPDEST SWAP1 POP SWAP2 SWAP1 POP JUMP JUMPDEST PUSH32 0x43616C6C6572206973206E6F7420746865206D756C746973696720636F6E7472 PUSH0 DUP3 ADD MSTORE PUSH32 0x6163740000000000000000000000000000000000000000000000000000000000 PUSH1 0x20 DUP3 ADD MSTORE POP JUMP JUMPDEST PUSH0 PUSH2 0xB70 PUSH1 0x23 DUP4 PUSH2 0x939 JUMP JUMPDEST SWAP2 POP PUSH2 0xB7B DUP3 PUSH2 0xB16 JUMP JUMPDEST PUSH1 0x40 DUP3 ADD SWAP1 POP SWAP2 SWAP1 POP JUMP JUMPDEST PUSH0 PUSH1 0x20 DUP3 ADD SWAP1 POP DUP2 DUP2 SUB PUSH0 DUP4 ADD MSTORE PUSH2 0xB9D DUP2 PUSH2 0xB64 JUMP JUMPDEST SWAP1 POP SWAP2 SWAP1 POP JUMP JUMPDEST PUSH0 PUSH1 0x40 DUP3 ADD SWAP1 POP PUSH2 0xBB7 PUSH0 DUP4 ADD DUP6 PUSH2 0x911 JUMP JUMPDEST PUSH2 0xBC4 PUSH1 0x20 DUP4 ADD DUP5 PUSH2 0x8AB JUMP JUMPDEST SWAP4 SWAP3 POP POP POP JUMP JUMPDEST PUSH32 0x546F6B656E207472616E73666572206661696C65640000000000000000000000 PUSH0 DUP3 ADD MSTORE POP JUMP JUMPDEST PUSH0 PUSH2 0xBFF PUSH1 0x15 DUP4 PUSH2 0x939 JUMP JUMPDEST SWAP2 POP PUSH2 0xC0A DUP3 PUSH2 0xBCB JUMP JUMPDEST PUSH1 0x20 DUP3 ADD SWAP1 POP SWAP2 SWAP1 POP JUMP JUMPDEST PUSH0 PUSH1 0x20 DUP3 ADD SWAP1 POP DUP2 DUP2 SUB PUSH0 DUP4 ADD MSTORE PUSH2 0xC2C DUP2 PUSH2 0xBF3 JUMP JUMPDEST SWAP1 POP SWAP2 SWAP1 POP JUMP JUMPDEST PUSH32 0x496E73756666696369656E742066756E6473206F6E2064657374696E6174696F PUSH0 DUP3 ADD MSTORE PUSH32 0x6E20636861696E00000000000000000000000000000000000000000000000000 PUSH1 0x20 DUP3 ADD MSTORE POP JUMP JUMPDEST PUSH0 PUSH2 0xC8D PUSH1 0x27 DUP4 PUSH2 0x939 JUMP JUMPDEST SWAP2 POP PUSH2 0xC98 DUP3 PUSH2 0xC33 JUMP JUMPDEST PUSH1 0x40 DUP3 ADD SWAP1 POP SWAP2 SWAP1 POP JUMP JUMPDEST PUSH0 PUSH1 0x20 DUP3 ADD SWAP1 POP DUP2 DUP2 SUB PUSH0 DUP4 ADD MSTORE PUSH2 0xCBA DUP2 PUSH2 0xC81 JUMP JUMPDEST SWAP1 POP SWAP2 SWAP1 POP JUMP JUMPDEST PUSH32 0x4E487B7100000000000000000000000000000000000000000000000000000000 PUSH0 MSTORE PUSH1 0x11 PUSH1 0x4 MSTORE PUSH1 0x24 PUSH0 REVERT JUMPDEST PUSH0 PUSH2 0xCF8 DUP3 PUSH2 0x65D JUMP JUMPDEST SWAP2 POP PUSH2 0xD03 DUP4 PUSH2 0x65D JUMP JUMPDEST SWAP3 POP DUP3 DUP3 SUB SWAP1 POP DUP2 DUP2 GT ISZERO PUSH2 0xD1B JUMPI PUSH2 0xD1A PUSH2 0xCC1 JUMP JUMPDEST JUMPDEST SWAP3 SWAP2 POP POP JUMP JUMPDEST PUSH0 PUSH2 0xD2B DUP3 PUSH2 0x65D JUMP JUMPDEST SWAP2 POP PUSH2 0xD36 DUP4 PUSH2 0x65D JUMP JUMPDEST SWAP3 POP DUP3 DUP3 ADD SWAP1 POP DUP1 DUP3 GT ISZERO PUSH2 0xD4E JUMPI PUSH2 0xD4D PUSH2 0xCC1 JUMP JUMPDEST JUMPDEST SWAP3 SWAP2 POP POP JUMP JUMPDEST PUSH0 DUP2 MLOAD SWAP1 POP SWAP2 SWAP1 POP JUMP JUMPDEST DUP3 DUP2 DUP4 MCOPY PUSH0 DUP4 DUP4 ADD MSTORE POP POP POP JUMP JUMPDEST PUSH0 PUSH2 0xD76 DUP3 PUSH2 0xD54 JUMP JUMPDEST PUSH2 0xD80 DUP2 DUP6 PUSH2 0x939 JUMP JUMPDEST SWAP4 POP PUSH2 0xD90 DUP2 DUP6 PUSH1 0x20 DUP7 ADD PUSH2 0xD5E JUMP JUMPDEST PUSH2 0xD99 DUP2 PUSH2 0x698 JUMP JUMPDEST DUP5 ADD SWAP2 POP POP SWAP3 SWAP2 POP POP JUMP JUMPDEST PUSH0 PUSH1 0x60 DUP3 ADD SWAP1 POP PUSH2 0xDB7 PUSH0 DUP4 ADD DUP7 PUSH2 0x8AB JUMP JUMPDEST DUP2 DUP2 SUB PUSH1 0x20 DUP4 ADD MSTORE PUSH2 0xDC9 DUP2 DUP6 PUSH2 0xD6C JUMP JUMPDEST SWAP1 POP PUSH2 0xDD8 PUSH1 0x40 DUP4 ADD DUP5 PUSH2 0x8AB JUMP JUMPDEST SWAP5 SWAP4 POP POP POP POP JUMP INVALID LOG2 PUSH5 0x6970667358 0x22 SLT KECCAK256 0xBC DUP10 KECCAK256 PUSH8 0x4F6F3C544474436C PUSH11 0x131F29EFB1C6F725F7F81F 0xBC ORIGIN 0xE9 SELFBALANCE EXTCALL PUSH12 0xCC9664736F6C634300082000 CALLER "
				},
				"gasEstimates": {
					"creation": {
						"codeDepositCost": "721200",
						"executionCost": "infinite",
						"totalCost": "infinite"
					},
					"external": {
						"ChangeMultisigAddress(address)": "24772",
						"Deposit(uint256,string)": "infinite",
						"Transfer(address,uint256)": "infinite",
						"external_balance()": "2491",
						"multisig_contract()": "2508",
						"nonce()": "2469",
						"own_balance()": "2446",
						"start_balance()": "2470",
						"token()": "2596"
					},
					"internal": {
						"BridgeRequest(uint256,string memory)": "infinite"
					}
				},
				"methodIdentifiers": {
					"ChangeMultisigAddress(address)": "22a272c3",
					"Deposit(uint256,string)": "02411f5a",
					"Transfer(address,uint256)": "69ca02dd",
					"external_balance()": "dc7ccf43",
					"multisig_contract()": "6ce5edff",
					"nonce()": "affed0e0",
					"own_balance()": "9bfb2529",
					"start_balance()": "62ef5dce",
					"token()": "fc0c546a"
				}
			},
			"storageLayout": {
				"storage": [
					{
						"astId": 27,
						"contract": "bridge_sol.sol:Bridge_sol",
						"label": "own_balance",
						"offset": 0,
						"slot": "0",
						"type": "t_uint256"
					},
					{
						"astId": 29,
						"contract": "bridge_sol.sol:Bridge_sol",
						"label": "external_balance",
						"offset": 0,
						"slot": "1",
						"type": "t_uint256"
					},
					{
						"astId": 31,
						"contract": "bridge_sol.sol:Bridge_sol",
						"label": "start_balance",
						"offset": 0,
						"slot": "2",
						"type": "t_uint256"
					},
					{
						"astId": 34,
						"contract": "bridge_sol.sol:Bridge_sol",
						"label": "nonce",
						"offset": 0,
						"slot": "3",
						"type": "t_uint256"
					},
					{
						"astId": 37,
						"contract": "bridge_sol.sol:Bridge_sol",
						"label": "token",
						"offset": 0,
						"slot": "4",
						"type": "t_address"
					},
					{
						"astId": 40,
						"contract": "bridge_sol.sol:Bridge_sol",
						"label": "multisig_contract",
						"offset": 0,
						"slot": "5",
						"type": "t_address"
					}
				],
				"types": {
					"t_address": {
						"encoding": "inplace",
						"label": "address",
						"numberOfBytes": "20"
					},
					"t_uint256": {
						"encoding": "inplace",
						"label": "uint256",
						"numberOfBytes": "32"
					}
				}
			},
			"userdoc": {
				"events": {
					"Request_Approved(address,uint256,string,uint256)": {
						"notice": "Emitted by BridgeRequest to notify off-chain federation nodes that a user has deposited funds and a cross-chain transfer should begin. Nodes listen for this event and call confirmRequest() on FederationSync."
					}
				},
				"kind": "user",
				"methods": {
					"Deposit(uint256,string)": {
						"notice": "Entry point for users who want to bridge tokens to the other chain. Pulls USDC from the caller's wallet into this contract, then triggers BridgeRequest to update balances and notify the nodes."
					},
					"Transfer(address,uint256)": {
						"notice": "Called exclusively by the FederationSync multisig contract after 2-of-3 nodes reach consensus on a cross-chain transfer. Sends USDC from this contract's balance to the recipient on this chain."
					},
					"multisig_contract()": {
						"notice": "Address of the FederationSync multisig contract. Only this address is authorized to call Transfer()."
					},
					"nonce()": {
						"notice": "Incremented on each Deposit to uniquely identify every bridge request. Off-chain nodes use this nonce to match events across chains."
					},
					"own_balance()": {
						"notice": "Tracks the USDC balance held on this chain (own_balance) and the mirrored balance available on the other chain (external_balance). start_balance is recorded at deployment for accounting reference."
					},
					"token()": {
						"notice": "Address of the USDC ERC-20 token contract on this chain."
					}
				},
				"notice": "This contract is for testing purposes only.         Production version must use SafeERC20.",
				"version": 1
			}
		}
	}
}